:100000000C9471030C948E030C948E030C94012EAB
:100010000C948E030C948E030C948E030C948E031C
:100020000C948E030C948E030C94C2250C947E25A4
:100030000C94BE260C948E030C948E030C948E03A9
:100040000C948E030C948E030C948E030C948E03EC
:100050000C948E030C949A260C948E030C948E03AD
:100060000C948E030C948E030C948E030C948E03CC
:100070000C948E030C948E030C948E030C948E03BC
:100080000C948E030C948E030C948E030C948E03AC
:100090000C948E030C948E030C948E030C948E039C
:1000A0000C948E030C948E030C948E03050109802E
:1000B000A101850319012AB700150126B700950192
:1000C00075108100C0050C0901A101850419012AE0
:1000D000A002150126A002950175108100C005013E
:1000E0000906A1018506050719E029E71500250184
:1000F0009508750181020507190029EF15002501F2
:1001000095F075018102050819012905950575010C
:100110009102950175039101C00660FF0961A1017B
:100120000962150026FF00952075088102096315F4
:100130000026FF00952075089102C005010906A15F
:1001400001050719E029E7150025019508750181CA
:10015000029501750881010507190029FF15002680
:10016000FF0095067508810005081901290515008D
:100170002501950575019102950175039101C0FD59
:10018000377A585A000004E6D6B446020021011618
:10019000000000742FE5A3E0042F01425D003D88BC
:1001A00089C65436C3174FE4DCCBB3DF6320E7D7EF
:1001B0001739D83D5F52C90BECB7E6D5195224B0B8
:1001C000736759B3E0B456C74788C96520CF4A3C26
:1001D000940C015E29865C8E1FD2901470DD8177AD
:1001E000B2096EB5F6AEE987F3FD6E8628D433CF3B
:1001F000B875786A02A926DEE8E6250BF2F12FEB46
:1002000095EF757127C27F9195E2635AB0D245B8D8
:1002100072C0B554D7004EDE62BA2013945BD1FF92
:100220005921584935658A11E5CA1A8401C66412F4
:10023000A7BCC461E80A8B8F1814972CD485C2CA56
:1002400011139D8194454D5141C1135A07F3F59CFB
:100250008A2EB089D73F3EF2C32110C396AA6256B8
:10026000BA70B31061455FB111971836BB16666F4F
:100270007B478FC44223D0767E3FA7ECEA0CBF2792
:1002800074C309BD093C35A8EED8AEC7E9FF0F2FEE
:1002900064DF72C5CDF6701A8177ECEF634989711E
:1002A0001EFAEC985A059B0A0F6BC0B382F9308591
:1002B000B0A8A630E1DE91E0E101A42FEECFFAB4C0
:1002C000CC09FA55E9DC3EB4782343F5F745FEAA9C
:1002D0006A7F620EBDEBFB2CF315BF380D4959E068
:1002E0000000005614AADD3187545C0001DE02B024
:1002F000080000C0E5C082B1C467FB020000000036
:1003000004595A0001010101010101010102020227
:1003100002020202020203030303030303030404B1
:10032000040404040405050505050606060606077B
:100330000707070708080808090909090A0A0A0B34
:100340000B0B0C0C0C0D0D0D0E0E0E0F0F0F1010D5
:10035000111111121213131414151516161717185C
:100360001819191A1A1B1B1C1D1D1E1E1F202021C7
:100370002222232424252626272829292A2B2C2D0E
:100380002D2E2F30313232333435363738393A3B2F
:100390003C3D3E3F404142434445464748494A4C24
:1003A0004D4E4F50515354555658595A5B5D5E5FF0
:1003B000616264656668696B6C6D6F707273757786
:1003C000787A7B7D7E8082838587888A8C8E8F91E8
:1003D000939596989A9C9EA0A2A3A5A7A9ABADAF12
:1003E000B1B3B5B7BABCBEC0C2C4C6C9CBCDCFD1FC
:1003F000D4D6D8DBDDDFE2E4E7E9EBEEF0F3F5F8A5
:10040000FAFDFF2B0014001A00080015001700E089
:100410000004001600070009000A00E1001D001B8F
:1004200000060019000500000000000000E300774E
:100430007C2C002A00130012000C0018001C003451
:100440000033000F000E000D000B002900380037AC
:1004500000360010001100000000000000E60078E7
:100460007C28002B001E001F00200021002200E03D
:100470000000000000000000000000E1000000009B
:1004800000000000000000000000000000E3000188
:10049000002C002A0027002600250024002300004D
:1004A0000000004F0052005100500000000000000A
:1004B00000000000000000000000000000E6000155
:1004C0000028002B001E021F02200221022202E04F
:1004D0000000000000000000000000E1000000003B
:1004E00000000000000000000000000000E3000128
:1004F000002C002A002702260225022402230235AE
:1005000000310030002F002E002D00350231023066
:10051000022F022E022D02000000000000E6000162
:10052000002800007C000000000000000000002007
:100530007823782578277800000000217824782611
:1005400078287800000000000000000000E30001AF
:10055000002C00000000000000000000000000006F
:10056000000000000000000000000000000000008B
:1005700000000000000000000000000000E6000194
:1005800000280009025B00030100A0FA0904000032
:1005900001030101000921110100012244000705A6
:1005A0008103080001090401000203000000092181
:1005B0001101000122220007058203200001070526
:1005C00003032000010904020001030000000921C7
:1005D00011010001226D00070584032000011201B2
:1005E000000200000008534601000100010203015F
:1005F0001C037600690061006C003A00660036005A
:1006000034006300320062003300630000000C031A
:1006100043006F0072006E0065000000100366006A
:100620006F006F007300740061006E00000004032F
:1006300009040000000000000000000000000000AD
:1006400000000000000000000000000000000000AA
:100650000000000000007E0F00D4FFFFFFC7000075
:10066000007800000000000000002A2B2800000095
:100670000000000000000000000000000029000051
:1006800000002C1E3420212224342627252E362D2E
:100690003738271E1F202122232425263333362EC8
:1006A00037381F0405060708090A0B0C0D0E0F103A
:1006B0001112131415161718191A1B1C1D2F31307F
:1006C000232D350405060708090A0B0C0D0E0F1023
:1006D0001112131415161718191A1B1C1D2F31305F
:1006E000354C11241FBECFEFDAE0DEBFCDBF11E0E5
:1006F000A0E0B1E0EAE5F1E602C005900D92A03974
:10070000B107D9F724E0A0E9B1E001C01D92A03BF8
:10071000B207E1F70E94E5260C9442300C940000E9
:10072000982FE091AF044091760457E0E41302C0A3
:1007300080E008952E2F30E05E9FF0011124E958EB
:10074000FB4F8181681306C08081981303C08581A7
:100750008111EFCFF9013196E770E8CFFC01AC01D0
:100760004C5F5F4F8FEF91E32191822728E030E0CB
:1007700087FF09C0880F892721503109C9F7E4177D
:10078000F50791F70895880FF7CFE8EDF0E0808145
:100790008E7F80831092E2001092DA001092E100C6
:1007A000A0EEB0E08C9181608C9380818F77808304
:1007B00019BCA7EDB0E08C918E7F8C9380818F7EE9
:1007C00080831092470408952091E4003091E50061
:1007D00095E6A9012091EC00822F817020FF06C0D0
:1007E0008091E80080FF06C080E008952091E80035
:1007F00022FD1AC080916C04882389F0853089F02D
:100800008091EB0085FD0FC02091E4003091E50060
:1008100042175307F9F29150E1F684E0089582E01F
:10082000089583E0089581E0089580916E0487FF24
:1008300013C08091E80082FF06C08091E8008B77AA
:100840008093E80004C080916C048111F2CF089578
:1008500080916C048823D9F38091E80080FFF8CF61
:100860008091E8008E77ECCF982F9093E900242FA9
:10087000762F50E0891731F07091EC002091ED0057
:100880005091F00021FD07C09F5F973071F7809372
:10089000E90081E008953091EB003E7F3093EB005A
:1008A0003091ED003D7F3093ED003091EB003160F1
:1008B0003093EB007093EC002093ED005093F00028
:1008C0002091EE0027FDE0CF80E00895B0E0A0E0A9
:1008D000ECE6F4E00C94282FC8EDD0E088818F7E00
:1008E0008883E7EDF0E080818160808384E082BFCF
:1008F00081E08093470488818E7F888302EE10E038
:10090000F80110821092DA0081EEC82ED12CF60187
:10091000108288818F778883888180688883888126
:100920008F7D888319BC10926C0410926D04109214
:100930006B0410926A0490EEE92EF12CF70180818D
:100940008B7F808388818160888342E060E080E0E3
:100950000E943404F60180818E7F8083F8018081BB
:1009600081608083808188608083F70180818E7FB1
:100970008083888180618883CDB7DEB7E8E00C94FE
:10098000442FFC01CB01209174043091750426178B
:10099000370790F0009729F42091E8002E772093F4
:1009A000E80040E0009751F4411108C08091E80050
:1009B00082FF31C080E00895C901F3CF20916C041B
:1009C0002223A9F12530A9F12091E80023FD2DC0B3
:1009D0002091E80022FDEACF2091E80020FFE2CF3D
:1009E0003091F3002091F200009719F02830310582
:1009F00058F041E02830310509F040E02091E8004E
:100A00002E772093E800CECF41914093F1000197DB
:100A10002F5F3F4FE9CF80916C04882341F08530F0
:100A200041F08091E80083FFC1CF81E0089582E02A
:100A3000089583E00895089580914904089587E713
:100A400097E7909301088093000888E19AE00FB639
:100A5000F894A895809360000FBE90936000FFCF3C
:100A60009C014FB7F8948091410490914204A09169
:100A70004304B09144044FBF821B930B0895A4E03C
:100A8000B0E0E5E4F5E00C942E2F8FB7F8942091B8
:100A9000410430914204409143045091440429831D
:100AA0003A834B835C838FBF69817A818B819C8180
:100AB0002496E2E00C944A2F2FB7F89480914104D9
:100AC00090914204A0914304B09144042FBF089533
:100AD0009C0180912F018823C1F08091450487FFFC
:100AE00014C0E62FE695E695E695603FF8F4E20F30
:100AF000F32FF11D677021E030E001C0220F6A95ED
:100B0000EAF78281822B82830895F90132968FEF72
:100B100090E04191641751F08F3F19F4411101C0E9
:100B2000892F9F5F9630A9F78F3F09F40895280F0A
:100B3000311D87FD3A95F90162830895A3E0B0E085
:100B4000E4EAF5E00C942E2F9C0180913E049091F4
:100B50003F0482179307A1F030933F0420933E0493
:100B6000E0913C04F0913D04309751F084E089839A
:100B70003B832A830680F781E02DCE0101960995FB
:100B80002396E2E00C944A2FA3E0B0E0EAECF5E013
:100B90000C942E2F9C0180913A0490913B04821773
:100BA0009307A1F030933B0420933A04E0913C0476
:100BB000F0913D04309751F083E089833B832A8391
:100BC0000680F781E02DCE01019609952396E2E09B
:100BD0000C944A2FFA01309709F009950895CF93A4
:100BE000DF93D82FC92F4091280450912904609198
:100BF0002A0470912B042FB7F894809141049091AE
:100C00004204A0914304B09144042FBF841B950B70
:100C1000A60BB70B843F9140A105B10518F5809153
:100C2000280490912904A0912A04B0912B04809368
:100C3000240490932504A0932604B093270484EF02
:100C400091E0A0E0B0E08093200490932104A09371
:100C50002204B0932304D0932F04C0933004DF9177
:100C6000CF9108950E943F0560932404709325045A
:100C7000809326049093270482E390E0A0E0B0E004
:100C8000E2CFFC018481862351F482818823B9F06C
:100C90006823908593FF05C081E061110FC080E05B
:100CA0000895282F2F7082958F70282B962F9F7074
:100CB00062956F70692B81E02613F1CF089581E072
:100CC000FDCFE3E1F3E090E080E06EE474E245E71D
:100CD00054E22EEC33E27783668351874087338773
:100CE000228797878687019670968830910599F7B5
:100CF000089581152CE7920741F420911E0430914C
:100D00001F04232B11F490E080E00895FA0188235A
:100D100011F009950895FB01FCCF8091F702982FFF
:100D20009E7F71F48091F702817082608093F70258
:100D30008091FA02893718F088E78093FA020895C3
:100D4000843080F7F5CF80E00895F894E82FE2959D
:100D5000EF70F0E041A18F7021E030E0B90102C0F6
:100D6000660F771F8A95E2F7CB01962F9095942313
:100D700091A392A1892B82A3789408959091450420
:100D800092FF10C041E0282F2471243009F040E088
:100D900031E0282F2871283009F030E0431711F096
:100DA0002CE0822793FF10C041E0282F24712431CA
:100DB00009F040E031E0282F2871283109F030E0B7
:100DC000431711F02CE082273091460430FF10C009
:100DD00051E0282F2171213009F050E041E0282F07
:100DE0002871283009F040E0541711F029E08227DB
:100DF00031FF10C041E0282F2171213109F040E07E
:100E000031E0282F2871283109F030E0431711F024
:100E100029E0822794FD877E0895803E9105C1F1E7
:100E2000C8F48133910509F47DC048F489329105F5
:100E300009F46DC08A32910509F47BC008958933A5
:100E40009105D1F082389105B9F08533910509F407
:100E500059C00895843E9105C1F138F4823E910550
:100E600021F1833E910531F10895863E9105C1F14E
:100E7000873E9105E1F1089520914504237009F022
:100E800065C02091460423FF14C089E290E00895D4
:100E90002091450420FD43C03091460430FF09C035
:100EA00024FF4EC090E080E008952091450422FD8B
:100EB000F7CF08952091450422FD45C030914604A6
:100EC00030FD44C024FFF5CFEDCF2091460421FF33
:100ED000F0CF8091450484FDE5CF87EE90E0089542
:100EE0002091450423FFE5CF24FDDCCFF6CF2091F0
:100EF000450423FD2EC03091460431FFE3CF84EE3C
:100F000090E008952091450425FFD3CFBECF2091D6
:100F1000450425FD21C02091460423FFCACF89E363
:100F200090E0C7CF2091450426FFC3CF8AE290E02E
:100F300008952091450426FFBCCF81E390E00895F9
:100F400083EE90E0089582EE90E0089580EE90E0C8
:100F5000089586EE90E0089585E390E008951F934C
:100F6000CF93DF930E940D07EC018115924508F0A5
:100F70005FC0C11580E5D80708F0DDC0C03ED105CF
:100F800038F5CD3CD10508F0AEC0C83AD10580F4A3
:100F9000C53AD10508F0A4C0C130D10509F443C059
:100FA000CE010497813A9105F0F1D0E0C0E03BC05A
:100FB000CE01885A91094B97C0F7C85AD0E0CC0FA0
:100FC000DD1FC35CDE4F0990D881C02DD4642BC0D7
:100FD000C11590E4D907F0F4C11520E2D20708F05A
:100FE000C4C0C83ED105F8F0CE019A9581159F4145
:100FF000E0F68D2F0E94BE06182FCE0199270E9481
:101000000D07C12FD0E0DC2FCC27CC27DF71C82BF8
:10101000D92B09C0CE0199270E940D07CC27DF707C
:10102000C82BD92BD06ACE01DF91CF911F910895A3
:10103000C03882E5D807B8F5C03692E5D90708F080
:101040005BC0C03422E5D207C8F4C03282E5D807BD
:1010500008F04BC02C2F2695269590E2299F9001F1
:1010600011248C2F8370C1E0D0E002C0CC0FDD1FB3
:101070008A95E2F7C22BD32BDD68D5CF2C2F26958E
:101080002695277080E2289F900111248C2F837071
:10109000C1E0D0E002C0CC0FDD1F8A95E2F7C22B81
:1010A000D32BDC68C0CFC03C92E5D90760F48C2F0D
:1010B0008F71C03AD245A8F5C82FD0E0DC2FCC27DD
:1010C000C46FD06AB0CFCE01805C9245809708F0A3
:1010D0006CCFDC2FCC27CC27DF71C06FD06AA3CFB9
:1010E000A497D064A0CFD0659ECFCF71D0E0DC2F85
:1010F000CC27C16FD06A97CF2C2F269526952770C5
:1011000080E2289F900111248C2F8370C1E0D0E0F1
:1011100002C0CC0FDD1F8A95E2F7C22BD32BDA6811
:1011200082CF0E94BE06C82FD0E0DC2FCC27CC2770
:10113000DF71D06278CF8C2F8F710E94BE0655E090
:10114000D695C7955A95E1F7CF70D0E0DC2FCC2724
:10115000282F30E084FF05C044E0220F331F4A955A
:10116000E1F7C22BD32BD0695ECF8D2F8F710E94F8
:10117000BE06182FCE0199270E940D07C12FD0E07F
:10118000DC2FCC27CC27DF71C82BD92BD2CF809175
:10119000F401882331F01092F4011092F3011092BF
:1011A000F20108959091F401292F282361F0809590
:1011B00089238093F401882339F00E945C05809391
:1011C000F2019093F301089580E090E0F8CF982F1A
:1011D0009095809136048923809336040895982F42
:1011E0009095809137048923809337040895109255
:1011F000D1011092D0011092CF0108959091CE01AB
:10120000292F282321F0809589238093CE010895EA
:1012100090912F019923E1F09091450497FF18C018
:10122000E82FE695E695E695803FF0F4F0E0EE567F
:10123000FE4F877021E030E0A90102C0440F551F26
:101240008A95E2F7CA018095928189238283089565
:10125000E4E9F1E09191891303C0DF0111971C9239
:1012600051E0EA39F507B1F708958091AF04909104
:101270007604981301C008958F5F8770FACF292FE5
:10128000983078F5863068F590E036E0239F800D41
:10129000911D1124682F677023E0969587952A95F4
:1012A000E1F7FC01EE0FFF1FE80FF91FEB54FE4FB3
:1012B00050E040E080E0219130E0062E02C03695FB
:1012C00027950A94E2F721703327042E01C0220FDC
:1012D0000A94EAF7822B4F5F5F4F4330510559F76D
:1012E000089580E00895292F983090F5863080F594
:1012F00090E036E0239F800D911D1124282F277048
:1013000041E001C0440F2A95EAF723E096958795BE
:101310002A95E1F7FC01EE0FFF1FE80FF91FEB54D0
:10132000FE4F90E080E070E05191DF0111979B014A
:10133000082E02C0369527950A94E2F72170219570
:101340002527242325272C9301968330910561F7C7
:1013500008958093360208959091360221E030E09E
:10136000F90101C0EE0F8A95EAF7D90102C0AA0F70
:10137000BB1F6A95E2F7EA2B01C0220F4A95EAF7F4
:10138000892F8E23E81305C0292B822F0E94A909DB
:10139000089520952923F9CF21E030E001C0220FE4
:1013A0008A95EAF720958091360282230E94A90946
:1013B00008959091D101809589238093D101282FA0
:1013C000277069F4891759F09091460492FF07C07D
:1013D0008695869586950E94CC090E94F708089507
:1013E00021E030E001C0220F8A95EAF780913602B1
:1013F000822B0E94A90908959091460492FF10C083
:1014000098E0899F90011124622B6093D1010E9482
:10141000F0090E945C059093D0018093CF0108955C
:101420000E94F00908958093F50108959C019A9512
:1014300081159F4150F5D901AA27B170F901EE2716
:10144000F270B90166277470A9014427587034FFFF
:101450000EC080E1AB2B09F480E0EF2B09F0806235
:10146000672B09F08064452B89F08068089581E03E
:10147000AB2B09F480E0EF2B09F08260672B09F0B9
:101480008460452B19F08860089580E008950F93DB
:101490001F93CF93DF938B01EA0190916C049430FA
:1014A00061F58093E9008FEF9091E800815095FD00
:1014B00006C095ED9A95F1F700008111F5CF809166
:1014C000E80085FF1AC00E94E403811111C08091D9
:1014D000E80085FD06C08091E8008E778093E800E3
:1014E000F2CFF80181918F018093F100219779F774
:1014F0008091E8008E778093E800DF91CF911F9173
:101500000F910895BC0143E050E084E00E94470A37
:101510000895CF93DF93D82FC92F80912F01811188
:1015200013C048E050E06D2F792F81E00E94470AF8
:1015300080E2ED2FFC2FAAE4B4E001900D928A9591
:10154000E1F7DF91CF9108958091450487FF06C0B0
:1015500040E284E050E06D2F7C2FE8CF48E081E04E
:10156000F9CF60912B018091F70280FF20C080911C
:101570002A0143E0849FC00111248B5A9D4F539A46
:101580002BB1277F3BB138605FB7F894FC01649FB3
:10159000E00DF11D1124BF0168177907D1F45FBF79
:1015A0008FE594E00197F1F700C000000895809165
:1015B0002C0190912D0123E0829FF0011124EB5A20
:1015C000FD4F8917A0F61182108212828F5F339629
:1015D000F8CFFC014191CF01E8E03BB9000000C029
:1015E00047FF2BB9440F000000C000C000C02BB95A
:1015F00000C0EA9591F7D0CFB0E0A0E0E2E0FBE0D8
:101600000C94262FF82EE92ED62EC72E8A01809113
:101610002702AA24A394B12C8A3018F48AE0A82EB9
:10162000B12CC1E0D0E06D2D7C2D8F2D9E2DF801C9
:101630000995811104C02196AC16BD062CF4CDB7D6
:10164000DEB7EAE00C94422FCC9F9001CD9F300D85
:10165000300D112490E080E045E34A95F1F7000059
:10166000019682179307C1F7DECF809102028111A4
:1016700010C08091D80080618093D8008AE18A955B
:10168000F1F700C08091D90080FF0AC081E080930B
:10169000020281E090910202913009F080E0089509
:1016A00082E0809302020E94C50310926C04F1CF85
:1016B0000E94350B882359F0E0913C04F0913D04E1
:1016C000309729F00190F081E02D0995089580E090
:1016D0000895A4E0B0E0EFE6FBE00C942E2F0E940A
:1016E000350B882371F00E943F0569837A838B83D1
:1016F0009C8369817A818B819C812496E2E00C94A1
:101700004A2F0E943F0569837A838B839C83809153
:10171000280290912902A0912A02B0912B022981DE
:101720003A814B815C81280F391F4A1F5B1F298337
:101730003A834B835C83DDCFCF93DF93C9E4D2E060
:1017400060E0CE010E9406302196C11584E0D807E2
:10175000B9F7DF91CF9108951F93CF93DF93962F21
:10176000122F632F8430D8F49830C8F44630B8F480
:10177000C42FD0E0CC0FDD1F2CE0929FC00DD11DF7
:10178000112490E6899FC00DD11D1124CE018996A8
:101790000E940630612FCE018A960E940630DF91AA
:1017A000CF911F910895CF93C82F6FEF811163E5FB
:1017B00085E290E00E9406306FEFC1116EEB86E289
:1017C00090E00E9406306FEFC1116CE687E290E076
:1017D0000E940630CF910895A4E1B0E0E2EFFBE073
:1017E0000C94232FA0901E04B0901F0481E090E081
:1017F00090931F0480931E04912C812CE12C640192
:10180000F12C15C0F80125913491472D6F2D8E2DA7
:101810000E94AC0B0E5F1F4F739486E07812F2CFDC
:10182000E6E0CE0ED11CF394F8E0FF1639F0860105
:10183000000F111F0D5F1B4F712CE4CFE39480E369
:10184000880E911CE4E0EE12DACF1A8219821C8213
:101850001B821E821D8218861F8284EB90E09A876D
:10186000898709EA11E04AE050E0B801CE0101960B
:101870000E942A30065F1F4F093FF1E01F0799F7CA
:101880007E018BE0E80EF11C89E0F70111928A9548
:10189000E9F78FEF9FEF988B8F8787E08C8B4AE07B
:1018A00050E0B801C7010E942A30065F1F4F09347B
:1018B000F2E01F07A1F7B0921F04A0921E046496E5
:1018C000EDE00C943F2F80E00E94D30B60E088E2B3
:1018D00090E00E9406300E94EC0B0E949C0B81E07D
:1018E0000E94D30B0895282FCB01283068F43AE0EA
:1018F000239FB001112467557E4F4AE050E00E94BB
:10190000D22F90E080E008958FEF9FEF0895AAE036
:10191000B0E0EDE8FCE00C942E2F9C0197558F3F32
:10192000910509F070F4BE016F5F7F4F822F0E9416
:10193000730C892B31F489859A852A96E2E00C9400
:101940004A2F84EB90E0F9CF0F931F93CF93DF934F
:10195000843030F5683020F5463010F5C42FD0E0E3
:10196000CC0FDD1F2CE0629FC00DD11D112430E68D
:10197000839FC00DD11D1124CE0189960E94E22FB4
:10198000082F10E0102F0027CE018A960E94E22F28
:101990009801282BC901DF91CF911F910F910895D4
:1019A00090E080E0F8CF462F672F209150023091D1
:1019B0005102232B91F4703F39F4403F71F4809130
:1019C000FF02909100030895783038F4463028F4EF
:1019D000843018F40E94A40C089580E090E00895EB
:1019E000B0E0A0E0E6EFFCE00C94292F7C01009130
:1019F00036028091F501082BC3E0D0E010E0DC2E28
:101A0000C8010C2E02C0959587950A94E2F780FDD7
:101A100009C02197A0F7D12C8D2DCDB7DEB7E7E017
:101A20000C94452FB7018C2F0E94D30C0E94AF0756
:101A3000019779F3F1CFCF93DF93D82FC92F0E946D
:101A4000F00C6D2F7C2F0E94D30C0E94AF07DF910A
:101A5000CF910895FC0184818823A1F08081918138
:101A60000E941B0D282F92959F70963091F060F484
:101A7000925F9F70923030F481E0203F81F030F42B
:101A8000283E30F080E004C09A5FF3CF243FD1F7C6
:101A9000089581E0283E20F0213FA1F7F9CF089575
:101AA0000895A6E0B0E0E7E5FDE00C942D2F9C0141
:101AB00086E0F901DE01119601900D928A95E1F719
:101AC000F901258189819A81222399F0662389F081
:101AD0000E94F00C182F682F89819A810E94730947
:101AE00069817A81812F0E94D30C2696E3E00C94C1
:101AF000492F0E943F09182FF3CF85E290E00E9402
:101B0000E22F833589F486E290E00E94E22F8E3B3B
:101B100059F487E290E00E94E22F91E08C3609F0C0
:101B200090E0892F8170089580E0FCCFAAE0B0E0BA
:101B3000ECE9FDE00C94242F06EA13E084E9C82EBA
:101B400083E0D82E99EFE92EFF24F39426E0922E1D
:101B500033E9A32E33E0B32E88248394D6010D936A
:101B60001D936D014AE050E0B701CE0101960E943D
:101B7000D22FF8013996DF01892D1D928A95E9F758
:101B800089819A81D80111969C938E938F811296A8
:101B90008C9312978D8113968C9313978885149646
:101BA0008C931497898515968C9315978B819C81BE
:101BB00017969C938E93169718961C9218978A8561
:101BC00087FF3CC01E961C921E921D9780FF03C08B
:101BD000D80118968C9281FF04C0F801908592601C
:101BE000908782FF07C0D80118969C91189794603F
:101BF00018969C9383FF04C0F801908598609087A5
:101C000084FF07C0D80118969C9118979061189688
:101C10009C9385FF04C0F801808580628087015F06
:101C20001F4FFAE0EF0EF11C89E4E81682E0F80697
:101C300009F094CF2A96ECE00C94402FF801B68678
:101C4000A586C4CFB0E0A0E0E8E2FEE00C94242F2B
:101C500049015A018B01D82FC92F0E948D066401BA
:101C60007501A401B50188E090E00E94183094014C
:101C7000A501B8018D2F9C2F00E20E94912F622FA9
:101C800084E290E00E940630CDB7DEB7ECE00C9421
:101C9000402FB0E0A0E0EFE4FEE00C94242F182FDA
:101CA000C62FD42F922E0091F70200FF50C08091D2
:101CB000F802811308C08091F902861304C0809154
:101CC000FA02841729F080915402826080935402B2
:101CD000E02FE695F0E0E158FE4F808180935202BC
:101CE000802F8E7F8230E9F4ED2FD93708F0E8E7B6
:101CF000F0E0ED5FFC4FC1112FC0F4918F2EEF2F5C
:101D000000FF0FC080912C0190912D0123E0829F54
:101D1000D0011124AB5ABD4F891708F48FC00E941F
:101D2000B10A1093F802C093F902D093FA029920F5
:101D300071F02091F7026091FB027091FC02312F4B
:101D4000AE018091FD029091FE020E94220ECDB75D
:101D5000DEB7ECE00C94402FEC2EF12CE49126E061
:101D6000129F600111242FEF30E0C601B9010E94DB
:101D7000552F812F90E0880F991FF5E5F69FA00160
:101D8000F79F500D1124841B950BB82EBB0CB80E79
:101D9000A9014E195F09E49FC001E59F900D112430
:101DA000F92FCB9DA0011124452F5527D901A41B44
:101DB000B50BEA9FA001EB9F500D1124852ED90190
:101DC000AB19B1095D01AE9CD001AF9CB00DBE9CBA
:101DD000B00D1124AB2FBB272A1B3B0BE29FD00178
:101DE000E39FB00D112463307105D1F02CEFC216C2
:101DF00023E0D20670F461307105B1F062307105F4
:101E0000B9F02FEFC216D10408F07ACF892EFB2F3C
:101E100077CF6430710579F066307105B9F370CF12
:101E2000F52F8E2EE92F6CCFFE2FE52F892E68CF50
:101E30008B2EFE2FF7CF8E2EEB2F62CF1196EC93C9
:101E40001197FC9312968C9212978F5F139664CF22
:101E5000E7EFF2E0438121E1421B08F440E021E09A
:101E6000628181810E94490E0895E7EFF2E043818B
:101E700021E1420F08F44FEF21E0628181810E944D
:101E8000490E0895E7EFF2E0628121E1621B08F458
:101E900060E021E0438181810E94490E0895E7EFCF
:101EA000F2E0628121E1620F08F46FEF21E04381EB
:101EB00081810E94490E0895E7EFF2E0818121E0DF
:101EC000438162818A500E94490E0895E7EFF2E053
:101ED000818121E043816281865F0E94490E0895DD
:101EE0008091FB02882319F081508093FB0220919E
:101EF000F7023091F8024091F9025091FA02609194
:101F0000FB027091FC028091FD029091FE020E9402
:101F1000220E08958091FB02833018F48F5F809326
:101F2000FB022091F7023091F8024091F9025091A2
:101F3000FA026091FB027091FC028091FD02909187
:101F4000FE020E94220E08952091F70220FF24C075
:101F5000217022602093F702809154028160809367
:101F60005402662381F03091F8024091F9025091B9
:101F7000FA026091FB027091FC028091FD02909147
:101F8000FE020E94220E20E04091FA026091F902C6
:101F90008091F8020E94490E08959091F70296955B
:101FA0008FEF890F913009F481E061E00E94A40F66
:101FB000089561E081E00E94A40F0895E7EFF2E048
:101FC00083E0808311828FEF828388E7838314828A
:101FD000A2E5B2E012968C911297836012968C93D0
:101FE000758123E030E04FEF58E760E0868197810C
:101FF0000E94220E08959091460492FB222720F918
:10200000281779F080FB92F990934604609145047B
:102010007091460484E090E00E94243082E00E94A7
:10202000D909089590E080E00E94F02F863E9E4FEF
:1020300019F40E947D0D089580E00895A8E0B0E0B5
:10204000E4E2F0E10C942D2F40910B0250910C0230
:1020500060910D0270910E022FB7F89480914104A7
:1020600090914204A0914304B09144042FBF841B7B
:10207000950BA60BB70B11E084369105A105B105B0
:1020800078F10E94690BDC01CB010296A11DB11D04
:1020900089839A83AB83BC83809112019091130151
:1020A000815F9D4F20911101422F50E0253010F0AB
:1020B00044E050E0BE016F5F7F4F0E94C22F82E07C
:1020C00090E00E94A82E182F882351F00E943F050F
:1020D00060930B0270930C0280930D0290930E029A
:1020E000812F2896E3E00C94492FABE0B0E0EBE7BA
:1020F000F0E10C942E2F88E0E7EFF2E0DE0111967C
:1021000001900D928A95E1F78091520290915302CD
:10211000A091540289879A87AB872B85409123022F
:102120005091240260912502709126023FB7F894E5
:102130008091410490914204A0914304B0914404E1
:102140003FBF841B950BA60BB70B84369105A105E9
:10215000B10510F4222319F180911A0190911B010D
:10216000815F9D4F20911901422F50E02C3010F0DB
:102170004BE050E0BE016F5F7F4F0E94C22F83E0B3
:1021800090E00E94A82E882369F00E943F0560938A
:1021900023027093240280932502909326021092CA
:1021A000540281E02B96E2E00C944A2FEF92FF92CA
:1021B0001F93CF93DF9300D000D00F92CDB7DEB73F
:1021C0007B0190E080E00E94A82E182F882309F45C
:1021D00087C080910401482F50E0882311F041E02E
:1021E00050E06091050170910601615F7D4FCE0165
:1021F00005960E94C22F40910702509108026091FB
:10220000090270910A022FB7F894809141049091CD
:102210004204A0914304B09144042FBF841B950B4A
:10222000A60BB70B84369105A105B10540F480E1FA
:1022300092E00E94AE039D81891709F451C081E0AC
:1022400090E00E94A82E81111AC010E08091030234
:1022500090910402A0910502B0910602F7018083DB
:102260009183A283B383812F0F900F900F900F90D3
:102270000F90DF91CF911F91FF90EF900895809183
:102280000C01482F50E0853010F044E050E06091A0
:102290000D0170910E01615F7D4FCE0101960E948C
:1022A000C22F80E192E00E94AE039D818913CDCFC1
:1022B0000E943F0560930702709308028093090211
:1022C00090930A0289819A81AB81BC818093030239
:1022D00090930402A0930502B093060211E0B6CFDA
:1022E0008091100290911102A0911202B0911302FC
:1022F00089839A83AB83BC831111E4CFA7CFA7E175
:10230000B0E0E5E8F1E10C94242F1D861C86FE0167
:102310003E9686E0DF011D928A95E9F785E7E82E73
:1023200081E0F82E10E000E0CC24C394D12C2FE7FC
:10233000A22E21E0B22EF70181917F018F3F09F497
:1023400045C0F894E82FE295EF70F0E021A18F707E
:10235000A60102C0440F551F8A95E2F7CA01922FC9
:10236000982B91A392A18095892382A3789400C091
:10237000E9E7F1E031E0912C21912F3F09F470C0A1
:10238000A22FA295AF70B0E090968C9190E02F7044
:1023900002C0959587952A95E2F780FD61C0832F4D
:1023A000982A330FAE16BF0639F7F70131978081AF
:1023B0008F3F11F00E94A50650EA5A95F1F7ECE024
:1023C000F0E0EC0FFD1FE00FF11F90820F5F1F4F39
:1023D0000430110509F0AFCF48E050E0BE01645F62
:1023E0007F4F8CE292E00E94B52F9C01892B49F02F
:1023F00088E0FE013C96ACE2B2E001900D928A9535
:10240000E1F700913502232B69F181E08093FA0115
:102410000E945C059093F9018093F8018091F80186
:102420009091F9010E943005059700F110E0085BDA
:102430001D4F44E050E06CE272E0C8010E94B52FED
:10244000E12C892B51F084E0ECE2F2E0D80101901C
:102450000D928A95E1F7EE24E3941092FA0107C0F9
:1024600080E09ECF8091FA018111D8CFE12C0E94AB
:10247000350BF82EE0913502882309F47DC01A82CD
:1024800019821C821B820E2F10E0085B1D4F809169
:1024900027028A30D8F546ED50E1BE016F5F7F4FCD
:1024A000C8010E94FC0A882309F455C04EE150E19E
:1024B000BE016F5F7F4FC8010E94FC0A882309F4A8
:1024C0004AC045E750E1BE016F5F7F4FC8010E94DF
:1024D000FC0A882309F43FC010922702809134023D
:1024E00090E044E050E0BE016F5F7F4F885B9D4FFE
:1024F0000E94B52F21E020930102892BF1F4F12CE9
:102500008F2D8E296796ECE00C94402F8091FB0173
:102510009091FC010E943005843F914008F0BBCFB0
:1025200080910102882359F384E0FE013196DF0196
:102530001D928A95E9F710920102E0913402F0E0D1
:10254000E85BFD4F89819A81AB81BC818083918357
:10255000A283B383D5CF809127028F3F31F08F5F65
:10256000809327028A3008F4B9CF0E945C059093CB
:10257000FC018093FB01D4CFF0E0E85BFD4F80814C
:102580009181A281B3818093100290931102A09354
:102590001202B093130280E192E00E94AE03809396
:1025A0000F028090140290901502A0901602B09035
:1025B00017028091FD019091FE01A091FF01B09161
:1025C000000288169906AA06BB06D1F08092FD018A
:1025D0009092FE01A092FF01B09200020E94350B82
:1025E00081110EC00E943F05861A970AA80AB90AEF
:1025F0008092280290922902A0922A02B0922B0285
:102600008BE0E8E1F2E0DE01119601900D928A95EF
:10261000E1F780911802869500911902D0901A0274
:10262000C0901B021091220210922202112309F481
:1026300067CF10FF10C029812170982F990F292B87
:1026400029839091F70220FF0FC091609093F702C9
:1026500060E00E94A40F11FF53CF20E04C2D6D2DA0
:10266000802F0E94490E4CCF9E7F9093F70280915D
:1026700054028160809354020E94B10AECCFCF9340
:102680008091370490913604892B80939201809138
:10269000F401882339F10E945C052091F201309108
:1026A000F301821B930B8838934110F00E94C708F6
:1026B000809192019091F401892B809392018091F5
:1026C0002F01882309F447C08091450487FF43C048
:1026D0008EE1E4E9F1E090E0815008F03EC0911114
:1026E0000E94C708C0912C04C09580919201C82314
:1026F00080912D04C82BC093920140E250E062ED1E
:1027000071E082E991E00E94B52F892B11F180E2FE
:10271000E2E9F1E0A2EDB1E001900D928A95E1F7D6
:10272000E0913C04F0913D04309799F080912F01A5
:10273000882349F08091450487FF05C0C093930129
:1027400086E0809392010280F381E02D82E991E09E
:102750000995CF91089586E0BCCF2191222309F4F9
:10276000BBCF9F5FB9CFCF93DF93EC014A855B85E9
:102770006E857F850E94EA058B810E94E7088C8127
:102780000E94EF080E943F1386E0FE0111928A9595
:10279000E9F7DF91CF910895CF93DF93EC018D811D
:1027A00081FD17C082608D83809136049B81892BC7
:1027B00080933604809137049C81892B8093370461
:1027C0000E943F13488559856E857F85CE010E9402
:1027D000EA0510923904109238048D8180FD03C0FF
:1027E000CE010E94B313DF91CF9108951092370468
:1027F00080912F01E4E9F1E08823B1F08091450454
:1028000087FF12C08EE1DF011D928A95E9F790E003
:1028100080E00E94C40590E080E00E949E05109236
:1028200036040E943F13089586E0EDCFAAE2B0E09F
:10283000ECE1F4E10C942D2F8EE694E0FC0101967E
:102840002091F100208324E086379207B9F7809128
:102850006F04893009F456C0C8F4823009F4B3C05B
:10286000833009F482C0813071F18091E80083FFE8
:1028700092C280916E0490916F049A3008F08BC2DE
:10288000E92FF0E0EC5BFF4C0C94692F8A3009F4DF
:1028900089C08B3051F780916E04813231F780917D
:1028A000720490917304892B01F78091E800877F6F
:1028B0008093E8000E9415048091700480932F019A
:1028C0000E94F613D2CF80916E04813A71F6809106
:1028D000E800877F8093E8008091720490917304F0
:1028E000892B61F460E28AE494E070E00E94C10404
:1028F0008091E8008B778093E800B7CF60E090E0AC
:1029000080E0F3CF80916E04813209F0AECF8091E8
:102910007204909173048D7F892B09F0A6CF80916A
:10292000E800877F8093E8008091E80082FF18C06C
:102930009091F3008091F200029731F48091F100C0
:10294000813011F0863021F48091F10080934904A8
:102950008091E8008B778093E8000E94150485CF72
:1029600080916C048111E0CF80CF80916E04813A18
:1029700009F07BCF8091720490917304892B09F048
:1029800074CF8091E800877F8093E8008091E80011
:1029900080FFFCCF80912F018093F1008091E800AF
:1029A0008E77D9CF80916E04813209F05ECF80910D
:1029B000E800877F8093E8000E94150480917104ED
:1029C0008093480452CF80916E04813A09F04DCF34
:1029D0008091E800877F8093E8008091E80080FF85
:1029E000FCCF80914804D8CF803899F0823809F024
:1029F000D2C1809172048F70873008F0CCC180936F
:102A0000E9008091EB0085FB882780F91092E900AE
:102A100006C080916A0490916B049111826090913C
:102A2000E800977F9093E8008093F1001092F10006
:102A30008091E8008E77ABC1882309F499C1823078
:102A400009F0A9C18091700481119CC18091720428
:102A50008F702FEF280F263008F09DC18093E9007A
:102A60002091EB0020FF8EC1933031F48091EB0078
:102A700080628093EB0086C19091EB00906190930F
:102A8000EB0021E030E001C0220F8A95EAF72093A5
:102A9000EA001092EA008091EB008860EACF811191
:102AA0007AC1109170041F778091E3008078812BA8
:102AB0008093E3008091E800877F8093E8000E9484
:102AC00015048091E80080FFFCCF8091E3008068CE
:102AD0008093E30082E0111183E080936C045BC17A
:102AE0008058823008F057C14091700450917104B1
:102AF0004C3D83E05807A1F583E08A838AE289830D
:102B00004FB7F894DE01139620E03EE051E2E32F48
:102B1000F0E050935700E49120FF03C0E295EF707E
:102B20003F5FEF708E2F90E0EA30C0F0C7968D9334
:102B30009D932F5F243159F74FBF8091E800877F25
:102B40008093E8006AE270E0CE0101960E94C10421
:102B50008091E8008B778093E8001DC1C096E7CF95
:102B60008091720490917304252F3327233031050F
:102B700009F44AC078F52130310509F486C08BE5A7
:102B800090E0E3E8F5E02230310509F004C120913E
:102B9000E800277F2093E8002091740430917504A9
:102BA0008217930708F49C0140E02115310509F0D4
:102BB00071C041116FC08091E80082FDC9CF809142
:102BC0006C04882329F2853019F28091E80083FF94
:102BD000F2CFBECF2132310509F448C0223231058F
:102BE00009F0D9C08330910508F0D5C0FC01EE0F83
:102BF000FF1FEC57FE4F0190F081E02D8F579E4F45
:102C0000DC018C9190E026C0CA019927423031F155
:102C10008330910568F40097B1F0019709F0BBC0CB
:102C2000ECE1F6E0E4918E2F90E0ECE1F6E012C0EA
:102C3000039709F0B0C0E0EFF5E0E4918E2F90E04B
:102C4000E0EFF5E007C0EEE2F6E0E4918E2F90E0D1
:102C5000EEE2F6E0009709F49EC099CFEEE0F6E0D0
:102C6000E4918E2F90E0EEE0F6E0F4CF8330910512
:102C700008F091C0880F991FFC01E657FE4F0190A4
:102C8000F081E02D89E090E082CF82E190E0EEEDEE
:102C9000F5E07DCF80916C04882309F459CF85300D
:102CA00009F456CF8091E80083FD52CF8091E8006F
:102CB00082FD81CF8091E80080FF77CF9091F30073
:102CC0008091F2002115310519F08830910550F0FE
:102CD00041E0089709F040E08091E8008E7780930A
:102CE000E80063CF44914093F100319621503109BF
:102CF0000196E8CF803809F04EC08091E800877FC8
:102D00008093E80080916D048093F10091CE811151
:102D100042C0109170041230F0F58091E800877F76
:102D20008093E80010936D040E941504112311F0A4
:102D300084E005C08091E30087FDFACF81E08093B5
:102D40006C0442E061EC81E00E94340442E261ECF8
:102D500084E00E94340442E261EC82E00E94340488
:102D600042E260EC83E00E94340480916C0413C062
:102D700080917004813079F481E0933009F080E033
:102D800080936B041092E9008091E800877F809324
:102D9000E8000E9415048091E80083FF0AC080913A
:102DA000E800877F8093E8008091EB008062809349
:102DB000EB00AA96E3E00C94492F0E94F6132FEF44
:102DC00084E39CE0215080409040E1F700C0000087
:102DD00088E19AE00FB6F894A895809360000FBE42
:102DE00090936000FFCF882321F00E94E7080E94A3
:102DF0003F130895882339F090913604892B8093EE
:102E000036040E943F130895882321F00E94EF08A2
:102E10000E943F130895882339F090913704892B3D
:102E2000809337040E943F130895882339F19CEF63
:102E3000980F913A28F40E9408090E943F130895C0
:102E400090E2980F983050F4877091E001C0990F8C
:102E50008A95EAF7892F0E94EF08EFCF9BE5980F3C
:102E6000933028F490E080E00E94C4050895885AC9
:102E70008B3120F490E080E00E949E050895FF923F
:102E80000F931F93CF93DF93F82E0091310410918D
:102E900032040115110509F449C010923004109252
:102EA0002F0410922C0410922D04D8011696CD9167
:102EB000DC91CE019A9581159F4108F4D07ED1E036
:102EC000C11101C0D0E0D8011996ED91FC911A977B
:102ED000309731F01B966D917C9180E00995D82355
:102EE000DD2339F08CEF8C0F813A30F58C2F0E9466
:102EF0000809FF2099F0E0913104F09132048085B7
:102F000084FD0CC080912E04882341F08081918142
:102F10009C01215031092F333E47A0F00E943F13FE
:102F2000109232041092310410922E04C801CDB7D1
:102F3000DEB7E5E00C94472F0E943F138C2F0E94D0
:102F40001517D7CF0E94EF05E9CFCF93C82F88235D
:102F5000C9F18CEF8C0F813AB8F580912F0188234D
:102F600001F18091450487FF1CC0EC2FE695E695A2
:102F7000E695F0E0EE56FE4F828190E04C2F4770D0
:102F800021E030E002C0220F331F4A95E2F782238E
:102F90009323892B81F08C2F0E9408090E943F13F4
:102FA0000AC0E4E9F1E08AE991E02191C21799F3BE
:102FB0008E179F07D1F76C2F82E991E00E94680578
:102FC0000E943F13CF91089580E28C0F883068F4FF
:102FD000C77021E030E001C0220FCA95EAF7809166
:102FE0003704822B80933704EBCF8BE58C0F833033
:102FF00038F42C2F2452330BC9010E94C405E2CFB0
:10300000C85ACB31F8F6EC2FF0E0EE0FFF1FE35C6F
:10301000FE4F808191810E949E05D4CF0F931F9314
:10302000CF93C82F10E000E0893311F400E510E0E1
:103030008C2F0E94A5170115110539F48C2F0E94C1
:103040001517CF911F910F9108958FE99FE0019778
:10305000F1F700C0000001501109EDCFB0E0A0E091
:10306000E4E3F8E10C94262FEC018AE0A82E2881F5
:10307000222309F48FC02130C9F599818A819130CA
:1030800021F422960E940E1805C0923029F422964F
:103090000E94A5172196EBCF933021F422960E942F
:1030A0001517F8CF943011F02196F4CF229630E026
:1030B00020E0AE014F5F5F4F8053990B8A3091053E
:1030C00050F02150310930F38FE99FE00197F1F77B
:1030D00000C00000F6CFA29EB001A39E700D112487
:1030E0009C01260F371F8981EA01E3CFE22FF0E030
:1030F000EE59F94FB490822F86958695869590E08B
:10310000FC01EE5AF94FE4902770F12C022E02C018
:10311000F594E7940A94E2F731E0E322FF24FC01FE
:10312000EE5BF94FC490D12C022E02C0D594C79407
:103130000A94E2F731E0C322DD24FC01EE5CF94F92
:10314000049110E002C0159507952A95E2F70170E9
:103150001127E114F10419F081EE0E94A517C114A2
:10316000D10419F086EE0E94A5178B2D0E940E182F
:10317000C114D10419F086EE0E941517E114F10470
:1031800019F081EE0E9415170115110509F482CF7F
:103190008CE278CFCDB7DEB7EAE00C94422FB0E0F6
:1031A000A0E0E5EDF8E10C94282FD62E172FC42FC0
:1031B000C22EFC0185818823A9F0409335040E942A
:1031C0005C059093340480933304C77081E001C0A0
:1031D000880FCA95EAF70E940B17CDB7DEB7E8E073
:1031E0000C94442FD0913504D41335C0809133040E
:1031F000909134040E9430057C018D2D912F0E9406
:10320000870CE816F90638F5C0E2CC0DDC15A1F004
:10321000D77011E0812F01C0880FDA95EAF70E947C
:103220000417C83048F48C2D877001C0110F8A959F
:10323000EAF7812F0E940B17802F0E940E18C830CA
:1032400060F62C2D277081E001C0880F2A95EAF7DF
:103250000E940417C2CFC77081E001C0880FCA95D1
:10326000EAF7F6CFCF93DF93EC010E94160A9E0196
:10327000205E31092830310510F0209741F40E947A
:103280000B178C2F0E94A517DF91CF9108950E94F4
:10329000FA16F7CFA7E0B0E0E0E5F9E10C941E2FB5
:1032A0007C01DC0114968C91882309F460C161E0F3
:1032B000C7010E94510D8C01F7018581882319F106
:1032C00080913804909139040097E9F008171907A4
:1032D000D1F0992764E0880F991F6A95E1F7FC0106
:1032E000E85EFC4F2081246020838D5E9C4FDC01D2
:1032F0000D931C930E94CC131092360461E0C70119
:103300000E94510D8C01F7018581882309F4BAC010
:10331000C80197578038910508F0E7C0D02EFFE02C
:10332000F01708F414C18FEF93E00E94E22F81118F
:103330000EC109E412E0D1103EC08091300190919D
:103340003101A0913201B091330189839A83AB831B
:10335000BC8399249A9468013FEFC31AD30AC80129
:103360000E94E22F89831A82882309F4F0C08130F9
:1033700009F082C0580182E0A80EB11CC6010E946B
:10338000E22FD82E8A83882309F4E1C0C5010E9468
:10339000E22FC82E8FEF8D0D8330D8F4580193E0C3
:1033A000A90EB11CCB82CC2021F0CE0101960E9447
:1033B0002E188501D0CF011524E0120709F4C7C0EB
:1033C000C8010E94E22F811101C0DA940F5F1F4FE4
:1033D000B2CF8BEF8D0D833030F5C8010396CB82D1
:1033E0005C01CC2031F35801A4E0AA0EB11C0E946C
:1033F000E22F8C838823E9F28B819C818130BFEF9F
:103400009B0710F0982F8827E6E0DE1631F0F7E0F2
:10341000DF1631F00E944124CCCF0E941C24C9CF7A
:103420000E949623C6CF24E0D212C3CF580134E0C5
:10343000A30EB11CC80103960E94E22F282FCC20B6
:1034400009F485C0882309F482C02150330B929E71
:10345000A001939E500D1124AC2DA150BB0BCD01AA
:10346000840F951F019708F4A4CFEFE9FFE031978F
:10347000F1F700C00000F6CFCE0101960E942E1891
:10348000560197CF680127E5D21A3FEFC316D10442
:1034900009F058F569E073E08C2D0E94730C892BBC
:1034A00021F5C60144E0880F991F4A95E1F7FC0118
:1034B000ED5EFC4F22812130A1F52091090330916E
:1034C0000A03232B91F020910B0330910C03232B43
:1034D00061F020910D0330910E0340910F03509144
:1034E0001003242B352B232B21F1D70115963C906B
:1034F000332009F440C00E35BCE71B0729F10F3516
:10350000ECE71E0741F00D35FCE71F07A1F58091A0
:1035100000018823C9F01092000180E00E943F174B
:1035200016C0223011F720910D0330910E03232B8A
:10353000E1F2FC01E85EFC4F20812E7F20838D5E4E
:103540009C4F0E94CC13D1CF81E0809300018091E9
:10355000D101877061F0D70115968C91882339F0DD
:103560008091460482FF03C082E00E94D909279619
:10357000E2E10C943A2F80910001882309F40EC5F2
:10358000480120EE821A91082090F4018091CE012A
:10359000282A80913704282A38E08316910408F0FD
:1035A00086C098012770332781E090E001C0880F22
:1035B0002A95EAF7332009F477C0282AD7018D919C
:1035C0009C910E943F0921E030E0390102C0660C65
:1035D000771C8A95E2F7E0913104F0913204FF8381
:1035E000EE834090B2015090B3011D822D81E22FF5
:1035F000F0E0EE0FFF1FEC56FC4FC080D180C114ED
:10360000D10409F426C5211005C0D60112968C916B
:10361000811189C0F601838190E086219721892B51
:1036200009F481C08085982F977009F487E0F8E04D
:103630008F16910408F055C0332009F44EC08695CA
:103640008170882309F46FC0D601AD90BC900A1533
:103650001B0519F4332009F466C0EE81FF81CE16F4
:10366000DF0609F460C0D6011D96ED91FC913097FC
:1036700021F08081882309F456C0622DC6010E9482
:103680004106882309F44FC00A151B0509F03DC502
:103690000115110509F43EC531103EC5A414B50449
:1036A00009F041C0312C38C58095282287CF3320BE
:1036B00009F4B8C41093B3010093B2010E943F050E
:1036C000609328047093290480932A0490932B0418
:1036D0001092300410922F0471CF82FB882780F95A
:1036E000B0CF332001F18170ACCF0E94151733C5E4
:1036F0000497813A910558F46A2D82E991E00E947D
:103700006805332009F44AC40E943F1320CF0E9469
:103710003F138FE39CE90197F1F700C000008A2D69
:103720000E94A517EECF9D819F5F9D835FCFFC0117
:10373000208131810217130709F029C4311029C4EF
:1037400010922E0480E00E943F1728C4902F812FF2
:1037500064C4F9014485558566857785C9010E9451
:10376000EA05D60115968C9181FF87C4C6010E9497
:10377000B31380913804909139040817190709F0A0
:103780007CC4109239041092380477C406E221EE0A
:1037900041EE6AE17CE7C7010E94CF18D8CE07E26C
:1037A00025EE45EE6BE17CE7F6CF06E221EE40EE3A
:1037B00068E17CE7F0CF07E225EE44EE69E17CE7C3
:1037C000EACF06E221EE42EE6CE17CE7E4CF07E2CD
:1037D00025EE46EE6DE17CE7DECF08E221E045EE26
:1037E0006EE17CE7D8CF80914504816080934504E9
:1037F000609145047091460484E090E00E9424307A
:103800000E94F613A4CE80914604886080934604FB
:10381000EFCF809145048260E9CF809145048460B8
:10382000E5CF809145048860E1CF809146048160B6
:10383000EDCF809146048260E9CF8091450480619C
:10384000D5CF809145048062D1CF809145048064BA
:10385000CDCF0E94F613809145048068C7CF809138
:1038600045048C60C3CF809146048360CFCF8091A4
:1038700045048E7FBBCF80914604877FC7CF809160
:1038800045048D7FB3CF809145048B7FAFCF80916E
:103890004504877FABCF809146048E7FB7CF809160
:1038A00046048D7FB3CF809145048F7E9FCF80915A
:1038B00045048F7D9BCF809145048F7B97CF0E94DD
:1038C000F613809145048F7791CF80914504837FD3
:1038D0008DCF809146048C7F99CF8091450482FBE7
:1038E000992790F921E0922790FB82F990FB83F9C8
:1038F0007DCF80914604982F909591708E7F892B73
:1039000090FB81F983CF90914504892F8F7B96FF9F
:1039100080646CCF0E94F61390914504892F97FB29
:1039200087F9805863CF61E08EE090E00E94063016
:103930005FCF60E0F9CF90914504892F8F7E94FF8F
:10394000806154CF90914504892F8E7F90FF8160D4
:103950004DCF90914604892F877F93FF886056CF83
:1039600085E3D0C38091F70280FF1CC0282F2E7FF3
:103970002093F7023091F8024091F9025091FA0237
:103980006091FB027091FC028091FD029091FE0219
:103990000E94220E809154028160809354020E9402
:1039A000B10AD5CD81608093F70261E086950E94CF
:1039B000A40FCDCD4DEC5FE069ED7FE00E9486065F
:1039C000C6CD49ED5FE06DEC7FE0F8CF4CE55FE000
:1039D00066E67FE0F3CF46E65FE06CE57FE0EECFA2
:1039E00042E45FE06FE47FE0E9CF4FE45FE062E450
:1039F0007FE0E4CF48E25FE065E37FE0DFCF45E3CF
:103A00005FE068E27FE0DACF40E75FE06AE87FE00E
:103A1000D5CF4AE85FE060E77FE0D0CF61E081E0AA
:103A2000C6CF0737FCE71F0709F0D0C381E00E942B
:103A3000CC09E8C30A352CE7120709F4A2C008F044
:103A400079C001308CE7180709F499C003309CE76E
:103A5000190709F48EC001151C4709F47DC0F70150
:103A60008581C080D180882309F48FC0C6010E945F
:103A7000F00C182F682FC6010E947309B601812F20
:103A80000E94D30C0E94AF078C01982ED701159687
:103A9000BC9015971696AC90A2949FE0A9228091B5
:103AA000D1018770F1F08B2CBB20E1F0812F807F5A
:103AB000803451F080E2800F883098F0A11004C06B
:103AC000812F807E803269F08091460482FF09C098
:103AD00082E00E94D9098091D10187708824839463
:103AE0008111812CD12ED2948FE0D822B8E0DB1640
:103AF00009F456C1BD1508F474C0E3E0ED1508F4EF
:103B000049C0812F807F1F70F1E0FD1508F07DC056
:103B1000803211F01295107F992009F4A7C0A1E01E
:103B20009A1609F403C1BB2009F40FC1AA2009F4B5
:103B3000BCC081C00B35BCE71B0729F10C351C4705
:103B400009F08DCF8091460482FB882780F991E0AF
:103B500089270E94FB0F83CF0E94F613FFEF24E317
:103B60003CE0F15020403040E1F700C000000E94EE
:103B70001F056FEF7FEF90E080E00E9424300E94ED
:103B8000DD1681E0E6CF80E0E4CFC6010E943F0968
:103B9000182F74CF24E0D21609F4E8C0AD2DA85038
:103BA000BB0B149710F40E94580B8820A9F0809149
:103BB000D10180FD11C0F701158286958695869505
:103BC0000E94F009C7010E944A198091D10186958F
:103BD000869586950E94CC0960E0C7010E94510D30
:103BE000C6CC39E0D31609F448C186E08D0D8F703C
:103BF0008230A0F6802F92EF99124EC1812F8F71E3
:103C0000B11047C10E94F009C9CF882311F0129565
:103C1000107F802FBB20B9F0112369F090E2900F44
:103C2000983010F0011109C080913704182B1093BF
:103C300037040E943F13802F29C080913604182B2F
:103C400010933604F6CF0E941517112309F4A6CF5E
:103C5000005E812F083010F0911003C00E94EF0821
:103C600002C00E94E7080E943F1398CF809146044B
:103C700082FD17C0BB2069F0112339F09091370401
:103C8000192B109337040E943F1380E00E94A51760
:103C900085CF80E00E941517112309F47FCF812F73
:103CA000DDCFBB2071F1A11004C0812F0E940B1742
:103CB00075CFB1E0AB1211C0C090F401812F8C21FF
:103CC000181709F46BCF0E945C059093F301809361
:103CD000F2011C291093F40161CFE5E0AE125ECF32
:103CE000812F0E940B17812F0E94D2089091CE0144
:103CF000812F8923181709F451CF192B1093CE0166
:103D00004DCFA1100AC0812F0E940417812F0E945D
:103D1000D208812F0E94FE0841CFF1E0AF123ECFC2
:103D200080913704812309F439CFEDCFBB2029F0EE
:103D300025E02A1508F432CFB8CF34E03A1508F45C
:103D40002DCF812F0E94041729CFAA20D1F3093348
:103D500049F48FEF97EEA3E081509040A040E1F747
:103D600000C00000802F0E94151718CF812F869564
:103D70008695837061F0813009F010CFC80193708F
:103D8000B11002C080E090E00E949E0507CFC801FC
:103D90009370B11002C080E090E00E94C405FECE96
:103DA000812F837091F5B110F9CE402F4295469541
:103DB0004770440F440F802F8F70042E01C0880F6E
:103DC0000A94EAF7202F207104FF07C02FE030E0AB
:103DD00001C0220F4A95EAF72095169516951370A3
:103DE000123071F0133051F03091F501113029F09B
:103DF000822B83230E94130AD1CE832B822BFACFEE
:103E0000282B8091F5018227F5CF8695BB2011F0F4
:103E1000812F8170882309F4C1CE402F42954695A9
:103E20004770440F440F802F8F70042E01C0880FFD
:103E30000A94EAF7202F207104FF07C02FE030E03A
:103E400001C0220F4A95EAF7209516951695137032
:103E5000123071F0133051F030913602113029F0E8
:103E6000822B83230E94A90999CE832B822BFACF20
:103E7000282B809136028227F5CF1F70BB2029F0B6
:103E8000812F0E94F009802F11CF802F0E940417EC
:103E9000812F0E94CC0982CEB2EFB91570F0E0EF0D
:103EA0009E16D1F0F1EF9F1691F0BB2009F45FC090
:103EB000A110C1CE812F8F71A5CE23EF921619F1DB
:103EC00034EF9312F2CF8091460482FD28C0812FF7
:103ED0008F71BB20F1F296CEBB2081F084E08A1571
:103EE00008F45CCE1F7181E090E0012E01C0880FC4
:103EF0000A94EAF7909136028927B4CF95E09A1593
:103F000008F44CCEEFCF80E0BB2009F4ABCF1F719B
:103F100081E0012E01C0880F0A94EAF7A3CFBB20ED
:103F2000C9F08091D1018770843041F40E94F70874
:103F3000812F8F710E94CC09812C30CEA4E0AA156C
:103F4000D8F31F71812F0E94F00963E0812F0E9436
:103F5000FC09F2CFB4E0BA1530F40E94F70864E02F
:103F6000812F8F71F4CF81E00E94D909E5CFAA207B
:103F700059F0893309F0F6CEEFEFF7EE23E0E15088
:103F8000F0402040E1F7ECCE812F8F7182CF3320BB
:103F900029F0DC0118968C9185FFD4CBC801975588
:103FA000F8018F3F910511F008F084C0FF2724E04D
:103FB000EE0FFF1F2A95E1F79F012D5E3C4F69012F
:103FC000D70115968C91E85EFC4F908180FB90F9AB
:103FD0009083882309F4BDCB0E945C059093420234
:103FE00080934102F60182818F5F82838091360443
:103FF00090913704892B83838091F40184834681D7
:10400000578166857785C6010E94EA05D601159617
:104010008C9181FF9BCB90E080E09093380480935B
:1040200039042BC08091B2019091B3010817190790
:1040300081F41092B3011092B201109228041092F0
:10404000290410922A0410922B041092300410922A
:104050002F048091310490913204009709F49ECF8F
:10406000A8E08A16910408F062CB622D0E944106F6
:10407000811103C081E00E943F17F70185818823E9
:10408000B9F110923504C80190578397E0F484E0A9
:1040900090E00E94F02F9093460480934504F8012D
:1040A000E150F047E232F10508F09DCBE25BFF4CB6
:1040B0000C94692FE851FC47E730F105F0F6E05920
:1040C000FF4C0C94692F0631BCE71B0709F093C025
:1040D000809137048A7A91E009F490E09093B401DA
:1040E00069E2811165E382E991E00E9468050CCBE9
:1040F0000631ECE71E0709F070C08091B401811110
:104100002FCC89E20E940809FFCAA114B10409F06A
:10411000C5CA312CB12CA12C80E00E943F17D0924F
:104120003204C092310481E080932E04D6011596AA
:104130008C9180932C0431100EC0AB2861F0F601F5
:10414000808191819C0124503109213A310508F088
:10415000CCCA0E940809D6011696AD90BC90C50144
:104160009A9581159F4110F4E0EEBE227724739456
:10417000C50101978F339E4708F0712CD60119961F
:10418000ED91FC911A97309731F01B966D917C91CF
:1041900081E009957822772079F0F6018681978170
:1041A0000E94160A80932D04C501F8E08F16910431
:1041B00008F09ECA0E94EF050E943F13A2CA08376A
:1041C000FCE71F0709F036CC82E01AC008372CE75D
:1041D000120709F044CC82E02ACC80913704827225
:1041E000F801E052F847E531F10508F01ACCE9583A
:1041F000FF4C0C94692F07373CE7130701F781E068
:104200000E94F00943E062E081E00E94AC099FC98E
:10421000B0E0A0E0EEE0F1E20C94292F8091CD0116
:10422000807F09F051C08091CC01882309F44CC0F3
:10423000E091AF0487E0D82E809176048E1709F4C0
:1042400043C00E2F10E0ED9DF0011124E958FB4F03
:1042500084818823F1F1D09EE001D19ED00D1124FC
:10426000FE01E958FB4F91818091C801981331C03C
:1042700090818091C70198132CC08581811129C03C
:10428000E280F3808091C9019091CA01E81AF90A8D
:1042900060E087EC91E00E94510D0E94870CE816C7
:1042A000F906B8F48091CD018F7080618093CD01C3
:1042B000C358DB4F88818F708061888387EC91E0E1
:1042C0000E944A190E943509CDB7DEB7E7E00C9489
:1042D000452FF8013196E770AFCFADE0B0E0E3E7EE
:1042E000F1E20C94212F8C0186E0F801DE01189692
:1042F00001900D928A95E1F7F801F480E58087EC52
:10430000882E81E0982E8091CB0181112AC0F11076
:1043100003C0FF24F3941CC0EE20F9F0C8010E94F2
:104320002A0DF82E8823C9F087E0F801A7ECB1E048
:1043300001900D928A95E1F78091CB01813031F4A3
:104340008091C7019091C8010E941B0D0E94082115
:104350008F2D2D96EFE00C943D2FC8010E944A1935
:10436000D8CFC280D380B090CC018091C901909108
:10437000CA013601681A790ABB2009F4DBC05080F3
:10438000A18060E087EC91E00E94510D0E94870CB3
:104390006816790608F0A5C0FF2009F4BACF80910D
:1043A000CD01382F307F2091C801F8019181311162
:1043B00058C0FE2C291314C02091C70190812913E5
:1043C0000FC0E11047C08F7080618093CD0187ECF2
:1043D00091E00E944A198091CD01F8018683B8CFFF
:1043E000E11038C06A2D852D0E9490036A2D852D1D
:1043F0000E949003E82E8111ABCF5886A98688854C
:1044000099850E941B0D292F22952F70903458F406
:104410009F70223088F0992399F0F8019681907F5F
:1044200079F4FE2C95CF2A5F2F70223068F0C801F6
:104430000E944A19EB2CF5CF992311F0882389F3B8
:10444000805E883070F3F3CF803F58F3815F833014
:1044500040F3EDCF8091CD0181608093CD01F12CAF
:1044600077CF291315C02091C7019081291310C05F
:10447000E1100EC08683C8010E944A1987E0F80146
:10448000A7ECB1E001900D928A95E1F7FB2C60CF8B
:10449000C8010E942A0D882309F45FCFEE2009F499
:1044A0005CCF8091CD01803288F02091C70130919E
:1044B000C8013A832983DC82CB829091CB019D8312
:1044C0001E828F83CE0101960E944A1987E0F8016F
:1044D000A7ECB1E001900D928A95E1F70E940821C6
:1044E00018CF8091CD01982F907F51F487EC91E007
:1044F0000E944A1987E0F40111928A95E9F7AFCF3B
:10450000FF2009F406CF2091C801F80191812913F9
:10451000BFCF2091C70190812913BACFE110B8CF46
:104520008683C8010E944A1987E0F40111928A9596
:10453000E9F7ACCF60E087EC91E00E94510D0E945A
:10454000870C68167906B0F6FF2009F4E2CEFE2C3F
:10455000EE2009F402CF9091C801F80181819813EF
:104560002CC09091C7018081981327C08091C90108
:104570009091CA01C81AD90AF4EBCF16D104A0F45D
:104580008091CD0180FD10C0982F907F69F0F801D7
:104590008683903F31F0982F907F905F8F70892BAA
:1045A0008683C8010E944A1987E0F801A7ECB1E0B0
:1045B00001900D928A95E1F7CBCEC8010E942A0D99
:1045C000811184CF8091CD0181608093CD01C8019C
:1045D0000E944A19BDCEABE1B0E0E1EFF2E20C94EB
:1045E0002D2F4E8B5F8B688F798F8A8F9B8F9111C8
:1045F000109236041D8A86E0FE017696DE011F9633
:1046000001900D928A95E1F78091460482FF1CC0CB
:104610000E945C052091CF013091D001821B930B49
:104620008838934120F08091D10182FF7BC00E94A5
:104630005C052091F2013091F301821B930B8838C5
:10464000934110F00E94C7088B89882329F061E00C
:10465000CE010F960E94510D87E0FE013F96DE01CC
:10466000189601900D928A95E1F7CE0108960E9466
:104670006D2181110CC087E0FE013896DE01119694
:1046800001900D928A95E1F74C8541110BC017E01E
:104690008091AF0490917604891332C06B96E3E069
:1046A0000C94492F2091760430E0C901019687705F
:1046B00099275091AF0458171906A1F04D8397E040
:1046C000929FD001939FB00D1124A958BB4FFE01BA
:1046D000319601900D929A95E1F7809376040E94AD
:1046E0003509D5CF0E94F613109276041092AF04CC
:1046F00087E0E7ECF1E0DF011D928A95E9F7C7CF8B
:10470000819FC001112489589B4F0E946D218823ED
:1047100029F28091AF0490E00196877099278093E9
:10472000AF04B6CF82E00E94D90981CFA6E0B0E005
:10473000ECE9F3E20C942C2F8C019093000380930E
:10474000FF02011580E21807C0F4802F0E941517A0
:10475000C8010E94160A9801205E310928303105EF
:1047600018F00115110531F40E9404172696E4E0B3
:104770000C94482F0E94F316F9CF80EF89838A8327
:104780000E945C058160682F9C838B8349815A81DC
:104790007C8181E090E00E94EB22E8CF0F931F9391
:1047A000CF93DF938C01EB0169E073E08C2F0E94C3
:1047B000730C892B71F4DD27CF5FDC4F8881F80102
:1047C000128218828330F1F048F4813059F082303F
:1047D00081F0DF91CF911F910F9108958430B9F04E
:1047E0008530B9F78091090390910A03009789F306
:1047F00006C080910B0390910C03009799F30E94DF
:104800009623E7CF80910D0390910E03F6CF809110
:104810000F0390911003009791F7209109033091B5
:104820000A0380910B0390910C0321153105F1F2DD
:10483000009729F7C901E3CFA6E0B0E0E2E2F4E295
:104840000C942E2F909300038093FF02811520E299
:10485000920730F40E9432192696E2E00C944A2F17
:1048600080EF89838A830E945C058160682F9C8326
:104870008B8349815A817C8181E091E00E94EB2207
:10488000EBCFCF93DF93D82FC92F0E941C248D2FFD
:104890009C2F0E949623DF91CF9108950F931F9331
:1048A000CF93DF938C01862F69E073E00E94730C35
:1048B000892BB1F4C0910903D0910A03209781F0AC
:1048C000F8018281833051F4CE010E944124CE014F
:1048D0000E944124CE010E94412402C08430D0F7BE
:1048E000DF91CF911F910F9108950F931F93CF9355
:1048F000DF938C01EB0169E073E08C2F0E94730C55
:10490000892B09F05CC0FE01FF27D80112968C911B
:104910001297EF5FFC4F8130B9F415969C9192FF8E
:1049200002C080830AC090FFFCCF82E08083809128
:104930000B0390910C030097B9F4809109039091B7
:104940000A030097E1F110C08230B9F515968C91F9
:1049500082FD28C080FD0BC083E0808380910D0321
:1049600090910E03009701F10E941C2428C084E05E
:10497000808380910F03909110030097A9F7809195
:10498000090390910A030097F9F00E944124809155
:104990000B0390910C03009739F7809109039091D4
:1049A0000A03E2CF85E080838091090390910A0396
:1049B000009729F00E944124F0CF86E08083DF91A8
:1049C000CF911F910F91089580910B0390910C034B
:1049D000B8CFA6E0B0E0EFEEF4E20C942C2F0E94EA
:1049E0005C058C018091F6019091F7018017910789
:1049F00081F019821A820E945C05682F49815A81D0
:104A0000792F80E090E00E94EB221093F701009351
:104A1000F6012696E4E00C94482FA8E0B0E0E3E12C
:104A2000F5E20C942E2F66EE7EEF90E080E00E947F
:104A3000243060E082E090E00E94063060E083E095
:104A400090E00E9406301092F50160E074E184E08D
:104A500090E00E94243060E086E090E00E94063002
:104A60006FEF87E090E00E94063040E050E0BA012E
:104A700088E090E00E94183060E084E290E00E94BC
:104A8000063060E087E190E00E94063060E08CE054
:104A900090E00E94063060E08DE090E00E940630D9
:104AA00019821A821B821C821D821E821F82188616
:104AB00048E050E068E170E0CE0101960E94F62FD8
:104AC00040E050E0BA0180E290E00E94183080E0BF
:104AD0000E94D30B0E94630C40E050E0BA018FE0CB
:104AE00090E00E94183040E050E0BA0183E190E08D
:104AF0000E9418302896E2E00C944A2F1F920F92E1
:104B00000FB60F9211242F933F934F935F936F93A0
:104B10007F938F939F93AF93BF93CF93DF93EF9345
:104B2000FF93D091E900DF708091EC00C82FC17035
:104B300080FDC0E81092E9008091F000877F8093AB
:104B4000F00078940E9416141092E9008091F00011
:104B500088608093F000CD2BCF70C093E900FF9167
:104B6000EF91DF91CF91BF91AF919F918F917F9105
:104B70006F915F914F913F912F910F900FBE0F90CA
:104B80001F9018951F920F920FB60F9211242F931A
:104B90003F934F935F936F937F938F939F93AF93C5
:104BA000BF93EF93FF938091E10082FF09C0809152
:104BB000E20082FF05C08091E1008B7F8093E100DD
:104BC0008091DA0080FF24C08091D80080FF20C04F
:104BD0008091DA008E7F8093DA008091D90080FF87
:104BE0009BC080E189BD82E189BD09B400FEFDCF93
:104BF00081E080936C0480914704811109C00E9478
:104C0000C5030E9466048091E20084608093E20004
:104C10008091E10080FF17C08091E20080FF13C007
:104C20008091E2008E7F8093E2008091E2008061BB
:104C30008093E2008091D80080628093D80019BCF4
:104C400085E080936C048091E10084FF29C080910D
:104C5000E20084FF25C080E189BD82E189BD09B4FD
:104C600000FEFDCF8091D8008F7D8093D800809189
:104C7000E1008F7E8093E1008091E2008F7E80933F
:104C8000E2008091E20081608093E20080916D04F7
:104C9000882309F447C084E080936C0480916C04FD
:104CA0008091E10083FF27C08091E20083FF23C051
:104CB0008091E100877F8093E10082E080936C0423
:104CC00010926D048091E1008E7F8093E1008091CD
:104CD000E2008E7F8093E2008091E2008061809309
:104CE000E20042E060E080E00E9434048091F00045
:104CF00088608093F000FF91EF91BF91AF919F91F9
:104D00008F917F916F915F914F913F912F910F9074
:104D10000FBE0F901F90189519BC10926C04109242
:104D2000470476CF8091E30087FD02C081E0B4CFD5
:104D300083E0B2CF78941F921FB61F9211248F93F5
:104D40009F93AF93BF938091410490914204A091AF
:104D50004304B09144040196A11DB11D8093410408
:104D600090934204A0934304B0934404BF91AF9145
:104D70009F918F911F901FBE1F9018951F921FB675
:104D80001F9211248F939F93AF93BF938091400400
:104D9000811113C08091410490914204A091430479
:104DA000B09144044196A11DB11D8093410490939C
:104DB0004204A0934304B0934404BF91AF919F91E8
:104DC0008F911F901FBE1F901895CDB7DEB7AF977C
:104DD0000FB6F894DEBF0FBECDBF85B7806885BF24
:104DE00085B7806885BF84B7877F84BF0FB6F89486
:104DF000A8958091600088618093600010926000A7
:104E00000FBE80E890E00FB6F89480936100909315
:104E100061000FBE83EA96E0909391018093900128
:104E20000E9461060E94960D0E94C5030E946604BE
:104E30008091E20084608093E200789480916C0419
:104E40008823A1F01091E9001F709091EC00892F48
:104E5000817090FD80E8182B1092E9008091E800A5
:104E600083FD0E9416141F701093E90082E084BD38
:104E700093E095BD9AEF97BD80936E001092280243
:104E80001092290210922A0210922B020E947D0D8C
:104E9000811102C00E94630C0E94350B8093210196
:104EA00080912101882309F472C010922A018BE1BC
:104EB00080932B010E94350B81110E94BB2D8091A4
:104EC00021018091210194E0811190E090933502BD
:104ED00084E0891B8093340284E90E94A50686E65B
:104EE0000E94A50687E90E94A50686EC0E94A506F9
:104EF00009E711E0D8018D918D018F3F11F00E94DB
:104F0000A506B1E00F371B07A9F788E0E8E4F2E057
:104F1000DF01282F1D922A95E9F7ECE2F2E0DF018C
:104F20001D928A95E9F70E941210811102C00E9419
:104F30000D2582E090E00E94E22F8093380284E009
:104F400090E00E94F02F90934604809345040E94C5
:104F50007F11BFEFE6E7F1E0B150E040F040E1F74C
:104F600000C000000E947F110E94350BE4E0811117
:104F7000E0E0F0E0E85BFD4F808181FF0CC06FEF67
:104F80007FEF90E080E00E9424300E941F058BE1BB
:104F900080932A018DCF83E090E00E94E22F0E944F
:104FA000130A80913702811173C00E94121081117F
:104FB00004C00E940D250E94DE0F88E090E00E9450
:104FC000EA2F6B017C0184E290E00E94E22F282FFF
:104FD00030E040E050E060E070E080E090E000E22F
:104FE0000E94762F260137012C2935294E29572971
:104FF0002093F7023093F8024093F9025093FA029B
:105000006093FB027093FC028093FD029093FE027A
:10501000809154028360809354022E7F61F50E9438
:10502000DE0F88E090E00E94EA2F6B017C0184E2B1
:1050300090E00E94E22F282F30E040E050E060E056
:1050400070E080E090E00E94762F26013701C22AAE
:1050500035294E295729C092F7023093F802409320
:10506000F9025093FA026093FB027093FC02809362
:10507000FD029093FE020E948D068091F70280FF50
:1050800004C060E086950E94A40F81E080933702FF
:105090000E94350B811102C00E94BE2D82E291E078
:1050A00090933D0480933C04F8E12F2E312C88E44A
:1050B00092E028E0280F2FA780916C04E0E4FE2EF8
:1050C00000E112E1853009F485C00E947F1179E387
:1050D000C72E72E0D72E08E412E021E432E0D801B6
:1050E000F60191918D912E173F0709F47DC0981715
:1050F000C1F30E94350B682E68E4A62E62E0B62E3E
:10510000F12C55245394D501ED905D01F601719079
:105110006F017E1429F17E24912C88248394882D9C
:105120008721B1F06620A1F09982FA820E945C0585
:105130009C838B835D8291E0882D8E2109F490E021
:105140009E8349815A816B817C818D810E94EB22F3
:105150009394880CF6E09F12E2CFF6013197E0823B
:10516000F39428E0F212CFCF0E94690B41C08091E6
:105170006C04843009F1109240040FB6F894A8959D
:10518000209260000FBEF092600083B7817F846040
:1051900083BF83B7816083BF7894889583B78E7F00
:1051A00083BF0FB6F894A8958091600088618093C2
:1051B0006000109260000FBE80916B04882351F054
:1051C0000E947F11E8E4F2E0819181115CC43FA567
:1051D0003E13FACF80916C04853009F4C8CF0E9449
:1051E000F6130E94580B71CF981383CF0E94E924C5
:1051F0000E94350B882309F46DC080912F04909193
:105200003004892B09F43EC04091240450912504B8
:1052100060912604709127042FB7F894809141047F
:1052200090914204A0914304B09144042FBF841B89
:10523000950BA60BB70B409120045091210460916F
:1052400022047091230484179507A607B707D0F0AE
:1052500080912F04909130040E94321910923004F2
:1052600010922F0410922404109225041092260408
:10527000109227041092200410922104109222040C
:1052800010922304C0903804D0903904C114D10482
:1052900009F180914102909142020E9430057C0107
:1052A000C6010E94870C8E159F05A0F480913804DA
:1052B00090913904992754E0880F991F5A95E1F786
:1052C000FC01E85EFC4F208122FD04C08D5E9C4FF6
:1052D0000E94CC130E94580B90914302891721F031
:1052E000809343020E943F0580916C04843009F052
:1052F000E3CE83E08093E9008091E80082FFDCCE7A
:105300008091E80090E085FF05C00E94E4038823B7
:1053100021F191E08091E8008B778093E800992358
:1053200009F4CACEE0905002F0905102E981E114F4
:10533000F10489F1EE3F09F053C08A81833020F0F7
:105340008550833008F04CC0EA81EE3008F048C048
:10535000F0E0E457FF4C0C94692F40E2E42EF12C6E
:10536000CE0101966C018091E80085FD0AC0809114
:10537000E8008B778093E8000E94E403882399F388
:10538000C8CF8091F100D6018D936D01B1E0EB1A89
:10539000F10849F7BECFE43150F4EE2351F0E1506B
:1053A000E33138F4F0E0E656FF4C0C94692FEE3F01
:1053B00059F28FEF898314C01A8289E08B8310C061
:1053C0008A81823009F475C3833099F0813089F77E
:1053D0000E943F050E946F2F6B837C838D839E8389
:1053E00040E250E0BE016F5F7F4F82E00E94470ABB
:1053F00063CE80911E0490911F04892B89F3FE01D6
:10540000339680E592E0D8012D918D0121938A1782
:105410009B07C9F7E5CF8A81823059F68B819C8141
:10542000AD81BE818BA79CA7ADA7BEA7BC01CD0156
:105430000E946F2F88E290E00E940630D1CF4C810D
:105440006B818A810E94A40C9827892798279E83C4
:105450008D83C6CF2D813E813227232732274C8171
:105460006B818A810E94AC0BBBCF0E94EC0BB8CF42
:105470008A818238A1F1C8F4803801F1813809F0BD
:10548000AFCF60E08B810E94A40F9B818091F702D7
:1054900091111DC08E7F8093F7028091540281602C
:1054A000809354020E94B10A9BCF833809F098CFB1
:1054B00020E04091FA026C818B8106C020E04B8194
:1054C0006091F9028091F8020E94490E89CF8160B3
:1054D0008093F70260E086950E94A40F81CF8B81B4
:1054E0008093FB027DCF8A818238D9F058F48038CE
:1054F00099F0813809F074CF8091F70280FF0FC0D6
:1055000086955CCF833809F06BCF8091F8028B834E
:105510008091F9028C8364CF8091FA024FCF80E0B2
:105520004DCF8091FB024ACF2091F7023091F802D3
:105530004091F9025091FA026091FB027091FC02D5
:105540008091FD029091FE020E94220E49CF80E1DF
:105550008A8346CF81E08A8387EB30CF8C81C82E47
:10556000D12C8D3108F03CCFEA80FB80FE24EF2463
:10557000FE248E010F5F1F4FC00ED11EC701875B37
:105580009D4F0C151D0509F42BCFA7EBEA16A1E0E2
:10559000FA0650F40E94E22FF8018483BFEFEB1A61
:1055A000FB0A0F5F1F4FEACFD80114961C92F6CF6B
:1055B00080911E0490911F04892B09F411CF8C81D6
:1055C000C82ED12C8D3108F00BCF0A811B811027FA
:1055D00001271027FE0131967F01CE0EDF1EC80184
:1055E000875B9D4FCE14DF0409F4FACE073BF1E050
:1055F0001F0728F4D70114966C910E940630BFEF64
:10560000EB1AFB0A0F5F1F4FEACF0E949C0BE8CEFC
:1056100084E09ECF8C81C82ED12C8D3108F0E0CE55
:10562000EA80FB80FE24EF24FE248E010F5F1F4FD3
:10563000C00ED11EC7018996C016D10609F4D0CE7E
:10564000E0E8EE16E1E0FE0658F40E94E22FD801F1
:1056500014968C93FFEFEF1AFF0A0F5F1F4FEACFEC
:10566000F8011482F7CF8C81E82EF12C8D3108F0EF
:10567000B7CE0A811B81102701271027003821E0AF
:10568000120708F0ADCE80E891E0801B910B8E15DB
:105690009F0508F4A5CE480139E2830E911C809144
:1056A0001E0490911F043701600E711E892BB9F002
:1056B000CE0101967C01C80189960615170509F4EB
:1056C0008FCE0038A1E01A0720F4F70164810E9410
:1056D0000630FFEFEF1AFF0A0F5F1F4FECCF680194
:1056E00091E0C922DD2400FF0DC0C80188960E9408
:1056F000E22F9D8189279827892781159C4711F4DE
:105700008FEF8D83570160FE17C0B1E0AB1AB1086F
:1057100035E0432E512C4C0E5D1E4A0C5B1CC4011F
:105720008E0D9F1D0E94E22FF201908181159C47F2
:1057300019F48FEFD2018C93E1E0F0E0EC0FFD1F44
:10574000EC0DFD1D2FEFCA14DB0408F0B1CF9481DE
:10575000858181159C4711F42483258332E0C30E93
:10576000D11C3296F0CF80911E0490911F04892B9A
:1057700009F436CE40E250E0BE016F5F7F4F82E019
:105780000E94470A2FEF31EE84E0215030408040E4
:10579000E1F700C00000F9CB88E0E4E3F1E0DE01CE
:1057A000919601900D928A95E1F7FE013D9684E174
:1057B000DF011D928A95E9F786E089831A821B82B0
:1057C0001C8288E07496DE01159601900D928A95F0
:1057D000E1F706CE84E8898381E08A831B821C82FC
:1057E000FFCD8C81682F70E0762F66278B81860F26
:1057F000972F911D092E000CAA0BBB0B25E0880FDB
:10580000991FAA1FBB1F2A95D1F7AC01BD01405EAD
:105810005F4F6F4F7F4F803EEFEF9E07AE07BE0793
:1058200008F0DECD8438F1E09F07A105B10508F04E
:10583000D7CD453821E052076105710520F044E8D5
:1058400051E060E070E0481B590BBC0161587E4F8D
:10585000CE0101960E94AC2FC3CD4AE150E06FEF1C
:1058600070E0CE0107960E94CB2F80911E048983A1
:10587000EA821B821C821D8281E08E83B1CD81E091
:1058800090E0909351028093500282E390E09093D5
:105890004702809346020E945C05909345028093E4
:1058A00044029ECDEF2851F11091480280914402AC
:1058B000909145020E9430058536910540F111FF17
:1058C00026C010FF24C00E945C059093450280937F
:1058D00044028091460290914702019790934702BB
:1058E00080934602892B51F410925102109250027B
:1058F00081E090E090931F0480931E0480911E0429
:105900008983809150028A838091460257CD82E339
:1059100090E09093470280934602F0CF10921F04CC
:1059200010921E045DCD40E250E06FEF70E0CE01BA
:1059300001960E94CB2F54CD8B81823009F44FC049
:1059400068F4811135C0FE0134968DE1DF011D92AE
:105950008A95E9F788E089831A8230CD853009F489
:1059600074C0863009F03CCD1C818AE0FE0135967A
:10597000DE01919601900D928A95E1F78BA19CA191
:105980000E9479069CA38BA38FEF183068F4FAE08D
:105990001F9FB001112467507E4F4AE050E0CE01B6
:1059A00081960E942A3080E089830E94960D18CD4E
:1059B0008C811AE07E01B1E2EB0EF11CF701212F80
:1059C00011922A95E9F7B7010E94730C8983F701B8
:1059D000DE01129601900D921A95E1F701CD1C811E
:1059E0008AE0FE013596DE01919601900D928A952E
:1059F000E1F789A19AA10E9479069AA389A38BA1B4
:105A00009CA10E9479069CA38BA38DA19EA10E94BC
:105A100079069EA38DA38FA198A50E94790698A7C9
:105A20008FA38FEF183068F43AE0139FB001112470
:105A300067557E4F4AE050E0CE0181960E942A30A1
:105A400080E089830E946106CBCC6C812AE0CE0184
:105A50008196DC01E22F1D92EA95E9F7683088F41F
:105A6000629FB001112467507E4F4AE050E00E94CF
:105A7000D22F80E089838AE0FE01B196DE01129682
:105A8000A4CE8FEFF7CF09BD19BD09B400FEFDCF3D
:105A90008091D8008F7D8093D8008091E000826053
:105AA0008093E0008091E00081FDFCCF0E94F6131E
:105AB00091CB88E290E00E94E22F1B821C821D8223
:105AC000DCCE8EE14A9B02C08150E1F74A9BFECFBB
:105AD00008955A9880E28A95F1F75A9A0895FC0140
