:100000000C94BA060C94D7060C94D7060C94C63000
:100010000C94D7060C94D7060C94D7060C94D706EC
:100020000C94D7060C94D7060C94062E0C94DE2E56
:100030000C9401190C94D7060C94D7060C94D7068F
:100040000C94D7060C94D7060C94D7060C94D706BC
:100050000C94D7060C94E22D0C94D7060C94D7067A
:100060000C94D7060C94D7060C94D7060C94D7069C
:100070000C94D7060C94D7060C94D7060C94D7068C
:100080000C94D7060C94D7060C94D7060C94D7067C
:100090000C94D7060C94D7060C94D7060C94D7066C
:1000A0000C94D7060C94D7060C94D706050109804A
:1000B000A101850319012AB700150126B700950192
:1000C00075108100C0050C0901A101850419012AE0
:1000D000A002150126A002950175108100C00660DE
:1000E000FF0961A1010962150026FF00952075082E
:1000F00081020963150026FF00952075089102C052
:1001000005010906A101050719E029E715002501E8
:10011000950875018102950175088101050719008F
:1001200029FF150026FF00950675088100050819AE
:1001300001290515002501950575019102950175A7
:10014000039101C000AF00AE0000000000003E5B64
:100150004F5B3E003E6B4F6B3E001C3E7C3E1C00E6
:10016000183C7E3C18001C577D571C001C5E7F5EAF
:100170001C0000183C180000FFE7C3E7FF00001850
:1001800024180000FFE7DBE7FF0030483A060E00C6
:10019000262979292600407F05050700407F05258F
:1001A0003F005A3CE73C5A007F3E1C1C0800081CDC
:1001B0001C3E7F0014227F2214005F5F005F5F00FF
:1001C00006097F017F00006689956A0060606060B3
:1001D000600094A2FFA2940008047E04080010208E
:1001E0007E20100008082A1C0800081C2A080800A5
:1001F0001E10101010000C1E0C1E0C0030383E3863
:100200003000060E3E0E0600000000000000000058
:100210005F000000000700070000147F147F140037
:10022000242A7F2A120023130864620036495620CC
:100230005000000807030000001C2241000000419C
:10024000221C00002A1C7F1C2A0008083E08080007
:100250000080703000000808080808000000606096
:1002600000002010080402003E5149453E000042B3
:100270007F4000007249494946002141494D330001
:100280001814127F10002745454539003C4A49495A
:1002900031004121110907003649494936004649D4
:1002A00049291E0000001400000000403400000036
:1002B00000081422410014141414140000412214E4
:1002C00008000201590906003E415D594E007C12AA
:1002D00011127C007F49494936003E4141412200CC
:1002E0007F4141413E007F49494941007F09090959
:1002F00001003E41415173007F0808087F00004122
:100300007F4100002040413F01007F08142241004E
:100310007F40404040007F021C027F007F040810A5
:100320007F003E4141413E007F09090906003E41F0
:1003300051215E007F0919294600264949493200AA
:1003400003017F0103003F4040403F001F20402049
:100350001F003F4038403F0063140814630003044B
:10036000780403006159494D4300007F4141410039
:10037000020408102000004141417F0004020102F4
:1003800004004040404040000003070800002054A3
:10039000547840007F2844443800384444442800BE
:1003A000384444287F0038545454180000087E090B
:1003B00002001824241C78007F08040478000044FC
:1003C0007D4000002040403D00007F102844000098
:1003D00000417F4000007C04780478007C0804041D
:1003E00078003844444438007C1824241800182429
:1003F00024187C007C080404080048545454240049
:1004000004043F4424003C4040207C001C20402049
:100410001C003C4030403C004428102844004C90D4
:1004200090907C004464544C440000083641000025
:1004300000007700000000413608000002010204BD
:1004400002003C2623263C00000000000080808043
:1004500080000000000080E070180C1830E0800080
:100460000010F8901030783010B8FC381000000000
:10047000000000F8FCF80000000000000000000090
:100480000000001C9C1C00000000F8FCF8000000AC
:100490000000001CFCF8C000000000000080E0F834
:1004A0007C1C000000F0FCFCFC1C1C1C1C1C1C1C0C
:1004B0001C000000000000C0F0F8381C1C1C1C1CB4
:1004C0001C3CF8F0E000E0F0F0F0E0ECEEF7F37048
:1004D00020007C7C7C7E007E7E7E7F7F7F00008093
:1004E000C0E07E5B4F5BFEC00000C000DCD7DEDEFC
:1004F000DED7DC00C00000000000000000000000AB
:10050000000000000000000000000000000FBCE040
:10051000818181838382870C183060C000001FFEB8
:1005200090B9FFBB91983C1811133F1100000000D7
:10053000000000FFFFFF00000000000000000000BE
:10054000000000FFFFFF00000000FFFFFF000000B1
:100550000000000000030F7FF8E080F0FC3F0F0177
:1005600000000000003F3F3F1C1C1C1C1C3C78F896
:10057000F0E08000000000C3E7FF7E3C3878787030
:1005800070F8FFDF87000F1F3F7F7F7F7F7F3F1E59
:100590000C001F1F1F3F003F3F3F7F7F7F00307BCE
:1005A0007F7830202030787F3B0003000F7F0F0FD3
:1005B0000F7F0F000300000000000000000000009B
:1005C0000000000000000000183C24666341C18167
:1005D00080808080808081C14162386C4CC681817E
:1005E000808080808081C14362361C18000000003A
:1005F000000000FFFFFFC0C0C0C0C0C0C0C0C080BE
:100600000000007FFF7F000000007FFFFFC0800030
:100610000000E0E0C0C0C0E0F97F1F07000000005C
:10062000000000000070F0E0E0C0C0C0C0E0F0F8E2
:100630007F3F0F0000000F3F7FF9E0E0C0C0C0C067
:10064000C0E0F97F3F1F0000000000000000000034
:10065000000000000000000000000000000000009A
:10066000000000000000000000000000000000008A
:10067000000000000000000000000000000000007A
:10068000000000000000000000000000000000006A
:10069000000000000000000000000000000000005A
:1006A0000000000000000000000000007E0F00D4E9
:1006B000FFFFFFC7000000780000000000000000FE
:1006C0002A2B2800000000000000000000000000AD
:1006D00000000029000000002C1E342021222434B8
:1006E0002627252E362D3738271E1F20212223248A
:1006F00025263333362E37381F0405060708090A26
:100700000B0C0D0E0F101112131415161718191AC1
:100710001B1C1D2F3130232D350405060708090A3F
:100720000B0C0D0E0F101112131415161718191AA1
:100730001B1C1D2F3130354C09025B00030100A04A
:10074000FA0904000001030101000921110100015F
:100750002244000705810308000109040100020387
:100760000000000921110100012222000705820377
:100770002000010705030320000109040200010312
:100780000000000921110100012232000705840345
:100790002000011201000200000008D8042DEB0027
:1007A00001010203011C037600690061006C003A3C
:1007B00000660036003400630032006200330063DC
:1007C0000000000E034C0069006C00790035003811
:1007D00000000010036C0069006C00690075006D7A
:1007E00000730000000403090429001E001F0020FC
:1007F00000210022002B0014001A00080015001729
:1008000000E00004001600070009000A00E1001DD6
:10081000001B0006001900050000002152E300E261
:10082000002C002F0035002700260025002400237F
:10083000002D00130012000C0018001C00340033BF
:10084000000F000E000D000B00E5003800370036E9
:10085000001000110000002252E7002A002800309A
:100860000001000100010001000100010001001E63
:10087000021F0220022102220201001E001F00208E
:10088000002100220001000100010001000100011F
:100890000000000100010001000100010001000151
:1008A00000010001000100010001002702260225CD
:1008B0000224022302010027002600250024002331
:1008C00000010030022F022E02350031020000012B
:1008D0000001000100010001000100010001000110
:1008E00000010001003A003B003C003D003E003F9B
:1008F00000010001000100010001000100010001F0
:1009000000010001000100010000000100010001E0
:1009100000010001000100010001000100010001CF
:100920000045004400430042004100400000004FE9
:100930000052005100500000000100310030002F33
:10094000002E002E02000001000100010001000144
:100950000000000000000000000000000000000097
:100960000000000000000000000000000000000087
:100970000000000000000000000000000000000077
:100980000000000100010001000100000000000063
:100990000000000000000000000000000000000057
:1009A0000000000000000000000000000000000047
:1009B0000000000000000000000000000000000136
:1009C0000001000100010000000000000000000024
:1009D0000000000000000000000000000000000017
:1009E0000000000000000000000000000000000007
:1009F00000000000000000000000000100010001F4
:100A000000010000000000000000000000000000E5
:100A100000000000000000000000000000000000D6
:100A200000000000000000000000000000000000C6
:100A300000000000000000010001000100010000B2
:100A400000000000000000000000000000000000A6
:100A50000000000000000000000000000000000096
:100A60000000000000000000000000000000000086
:100A70000000000100010001000100000000000072
:100A80000000000000000000000000000000000066
:100A90000000000000000000000000000000000056
:100AA0000000000000000000000000000000000145
:100AB00000010001000100000000DA0281FFD9F10D
:100AC000DB20A4A62EAF00A0C0D30000A1C8D30095
:100AD00000AED580A81F408D1420008081828384C1
:100AE00085868788898A8B8C8D8E8F90919293943E
:100AF000A0A1A2A3A4A5A6A7A8A9AAABACADAEAF7E
:100B0000B0B1B2B3B4C0C1C2C3C4C5C6C7C8C9CAF4
:100B1000CBCCCDCECFD0D1D2D3D4002077706D0A3C
:100B20000020200041646A75737400526169736526
:100B300020004C6F77657220005157455254590080
:100B40006C617965722000010001005E0561158904
:100B5000160000020002005A056115891600000304
:100B60000001005F056115891600000400020044C1
:100B70000561158916370A050001006005611589B0
:100B800016000006000200460561158916000007E0
:100B90000002005C05611589160000080001006173
:100BA00005611589160000120002006205611589B1
:100BB0001600001300020064056115891600001478
:100BC000000100660561158916000015000000008F
:100BD00000400A19110000FD377A585A000004E657
:100BE000D6B4460200210116000000742FE5A3E0F0
:100BF00005C7015C5D003D8889C65436C3174FE4C4
:100C0000E20F535D9075DB08C965CE09CBAEF2FFEC
:100C1000D16E9644531750A9573CF31C36AD768DD0
:100C20007A7A850BC9433E38EE515A3E9C7DCEB44C
:100C3000C813B9F1CF8867CEB8A9BF34EAE34999A0
:100C400014A741D5576A229C4F0765976DEDE65270
:100C500005C276003360F788AF8348607DF4FD32CB
:100C6000CB5CB4A3130FA779664A7A762F3B30DDAD
:100C7000CAA3AAFD617C0E3B1587C37683075D3B43
:100C8000DD124776E5A83D1F79BCA9EAD200281FEE
:100C9000B159F012878D588EB0E9D5FFF4E903A061
:100CA0004E8AAB492B16A40CD6DB26072A60542BA0
:100CB000ABFF81864810D3DE5CC6B9BB689DF815D2
:100CC0002AF17BB847E73BB48E1DC999D80C800D3B
:100CD0005362FBA3A7CA47DAC48DA5D400E4E0B6EB
:100CE0008391325BFE7CB952F711374FBEFCB3E300
:100CF00028B73538102A1B49CA110AF865AD63E9CF
:100D0000DB025F78A396C6F1162682AA735DAB2636
:100D1000F1710555F4D70A2670CB8BE97F1031D1DC
:100D2000D48C8FFE74B9BAE044C24CBC510C2D3344
:100D3000D5C383EC4DC6E7B18A91DCFD2D84C79203
:100D400084B72A1FE6A8020BE48425F3DCA34CFF3A
:100D5000F38400D549FD2D4E472EFA0001F802C854
:100D60000B0000C135F8FFB1C467FB0200000000B2
:100D700004595A0011241FBECFEFDAE0DEBFCDBF09
:100D800011E0A0E0B1E0E0E9FCE602C005900D92C0
:100D9000A43AB107D9F725E0A4EAB1E001C01D9259
:100DA000AC3AB207E1F70E94F1240C9414360C948B
:100DB00000009C01FB019A9581159F4120F5D90106
:100DC000AA27B270832F8170B90166277470A901B8
:100DD0004427587034FF0DC08295807FAB2B09F0FB
:100DE0008062672B09F08064452B09F080680995C3
:100DF0000895AB2B09F08260672B09F08460452BC6
:100E0000B1F38860F4CF80E0F2CF982F82958F7095
:100E1000882311F0982F84E0292F269526952223E8
:100E200011F08E5F922F969591118F5F0895282F64
:100E300092959F70963091F060F4925F9F7092301F
:100E400030F481E0203F79F030F4283E30F080E04B
:100E500008959A5FF3CF243FD1F7089581E0283EAB
:100E6000E0F3213FF9CF0895809342050895982F2C
:100E70009670963021F48860809343050895877FAB
:100E8000FBCF21E030E001C0220F8A95EAF7809184
:100E90004305822B0E943707089521E030E0A90125
:100EA00002C0440F551F8A95E2F7CA0180959091C0
:100EB000430589230E9437070895292F9A3098F512
:100EC000863088F590E036E0239F800D911D112437
:100ED000282F277041E001C0440F2A95EAF723E04C
:100EE000969587952A95E1F7FC01EE0FFF1FE80F15
:100EF000F91FE056FB4F20E030E070E05191DF0138
:100F00001197CB01022E02C0969587950A94E2F7BD
:100F1000817081958527842385278C932F5F3F4F90
:100F20002330310559F70895292F9A3078F5863006
:100F300068F590E036E0239F800D911D1124682F05
:100F4000677023E0969587952A95E1F7FC01EE0FEF
:100F5000FF1FE80FF91FE056FB4F40E050E080E034
:100F6000219130E0062E02C0369527950A94E2F7CB
:100F700021703327042E01C0220F0A94EAF7822B36
:100F80004F5F5F4F4330510559F7089580E0089552
:100F90009091430521E030E0F90101C0EE0F8A9500
:100FA000EAF7D90102C0AA0FBB1F6A95E2F7EA2B44
:100FB00001C0220F4A95EAF7892F8E23E81305C056
:100FC000892F822B0E94370708952095822F89232D
:100FD000F9CF80916A0590916905981301C0089531
:100FE0008F5F8770FACF982F909580914105892364
:100FF000809341050895803E9105D1F1C8F4813375
:10100000910509F47FC048F48932910509F46FC055
:101010008A32910509F47DC0089589339105E1F084
:1010200082389105C9F08533910509F45BC00895B4
:10103000843E9105D1F148F4823E910531F1833E21
:10104000910541F181EE90E00895863E9105C1F150
:10105000873E9105E1F1089520918E0423702111BE
:1010600065C020918F0423FF14C089E290E00895A9
:1010700020918E0420FD43C030918F0430FF09C0C1
:1010800024FF4EC080E090E0089520918E0422FD60
:10109000F7CF089520918E0422FD45C030918F0432
:1010A00030FD44C024FFF5CFEDCF20918F0421FF08
:1010B000F0CF80918E0484FDE5CF87EE90E0089517
:1010C00020918E0423FFE5CF24FDDCCFF6CF2091C5
:1010D0008E0423FD2EC030918F0431FFE3CF84EEC8
:1010E00090E0089520918E0425FFD3CFBECF2091AC
:1010F0008E0425FD21C020918F0423FFCACF89E3F0
:1011000090E0089520918E0426FFC3CF8AE290E0FC
:10111000089520918E0426FFBCCF81E390E00895CE
:1011200083EE90E0089582EE90E0089580EE90E0E6
:10113000089586EE90E0089585E390E0AACF90911F
:101140008E0492FF10C041E0282F2471243009F052
:1011500040E031E0282F2871283009F030E04317B3
:1011600011F02CE0822793FF10C041E0282F24715A
:10117000243109F040E031E0282F2871283109F0AE
:1011800030E0431711F02CE0822730918F0430FFBC
:1011900010C051E0282F2171213009F050E041E0CA
:1011A000282F2871283009F040E0541711F029E069
:1011B000822731FF10C041E0282F2171213109F031
:1011C00040E031E0282F2871283109F030E0431742
:1011D00011F029E0822794FD877E08951F93CF9315
:1011E000DF930E94FB07EC01811520E5920708F0D0
:1011F00048C0811540E4940708F0C2C0803E9105C4
:10120000E0F0811550E2950798F18D2F8F710E94C3
:101210009F08182FCE0199270E94FB07212F30E04D
:10122000322F222722273F71282B392BE901D06248
:10123000CE01DF91CF911F9108958D3C910508F06B
:101240008BC0883A910560F4853A910508F076C024
:101250008130910569F30497813A910548F305C0FF
:10126000885A91094B9708F46CC0C0E0D0E0E0CFF9
:101270008F3F910511F008F071C0805E91090797CA
:10128000EDCFC03682E5D80738F5C03422E5D20765
:1012900008F093C0C03242E5D40738F0CF71D0E0F7
:1012A000DC2FCC27C16FD06AC3CF8C2FC11552E57C
:1012B000D50708F06EC08F710E949F08282F30E07C
:1012C00084FD9CC085E0D695C7958A95E1F7CF70DF
:1012D0003C2BE901D069ACCFC03C82E5D80708F5CA
:1012E000C03A22E5D20708F07EC0CE018056924572
:1012F000809708F0BACF8C2F86958695877050E23C
:10130000859FC0011124C37021E030E0A90102C013
:10131000440F551FCA95E2F7EA01C82BD92BDA68AA
:1013200087CFCE01805C9245809708F09ECFDC2F5E
:10133000CC27CC27DF71C06FD06A7ACFA497D06456
:1013400077CFC85AD0E0CC0FDD1FC359DE4F0990CC
:10135000D881C02DD4646CCFD0656ACF8D2F0E9408
:101360009F08182FCE0199270E94FB07212F30E0FC
:10137000322F2227E901CC27DF71C82BD92B58CF78
:1013800099270E94FB07CC27DF70C82BD92BD06A86
:101390004FCF8695869540E2849FC0011124C3708B
:1013A00021E030E0A90102C0440F551FCA95E2F7C1
:1013B000EA01C82BD92BDD683BCF8C2F869586950B
:1013C000877050E2859FC0011124C37021E030E096
:1013D000A90102C0440F551FCA95E2F7EA01C82BC4
:1013E000D92BDC6825CF8C2F8F710E949F08C82FC6
:1013F000D0E0DC2FCC27CC27DF711ACF94E0220F6E
:10140000331F9A95E1F75ECF80E00895F894E82FB6
:10141000E295EF70F0E041A18F7021E030E0B9017A
:1014200002C0660F771F8A95E2F7CB01962F909541
:10143000942391A392A1892B82A378940895E9EF34
:10144000F4E080E090E069E972E240EC52E225E3EA
:1014500033E2768365835087478332872187968777
:10146000858701963F968430910599F7089580917C
:1014700044059091450590930C0180930B010895CC
:10148000A0E0B0E0E6E4FAE00C94FB31FB018FEF62
:101490009FEF4430510508F465C040918E0441FB34
:1014A000882780F990E0880F991F42FBAA24A0F8B2
:1014B000B12CAA0CBB1CAA0CBB1C8A299B2940FB83
:1014C000882480F8912C8829992943FBCC24C0F8E2
:1014D000D12C53E0CC0CDD1C5A95E1F78C299D29C9
:1014E00044FBEE24E0F8F12C64E0EE0CFF1C6A955E
:1014F000E1F78E299F2945FB002700F910E075E0F0
:10150000000F111F7A95E1F7802B912B46FB2227C4
:1015100020F9C22F20E0D22FA6E0CC0FDD1FAA9524
:10152000E1F78C2B9D2B47FB442740F920E8429F95
:10153000A0011124842B952B20918F04322F317020
:10154000932B26952170B22FBB0FA0E08A2B9B2BEB
:10155000092E000CAA0BBB0B80839183A283B3835B
:1015600080E090E0CDB7DEB7ECE00C941732AC0130
:1015700023E0969587952A95E1F78E719927FC01CE
:10158000E252FE4F0190F081E02D4F70552721E08F
:1015900030E002C0220F331F4A95E2F7662341F084
:1015A000E22BF32B82529E4FDC01ED93FC930895C6
:1015B00020953095E223F323F5CFFA01309709F017
:1015C00009950895A3E0B0E0E8EEFAE00C94053246
:1015D0009C018091DC019091DD0182179307A1F0BD
:1015E0003093DD012093DC01E0919604F0919704A3
:1015F000309751F083E089833B832A830680F7810B
:10160000E02DCE01019609952396E2E00C9421325B
:10161000A3E0B0E0EEE0FBE00C9405329C01809189
:10162000DA019091DB0182179307A1F03093DB017F
:101630002093DA01E0919604F0919704309751F0ED
:1016400084E089833B832A830680F781E02DCE01E5
:10165000019609952396E2E00C942132A4E0B0E0D3
:10166000E4E3FBE00C9405328FB7F8942091D601A7
:101670003091D7014091D8015091D90129833A8303
:101680004B835C838FBF69817A818B819C81249697
:10169000E2E00C942132A4E0B0E0E1E5FBE00C9440
:1016A0000332462F572FBC012FB7F8948091D601F3
:1016B0009091D701A091D801B091D9012FBF8C0191
:1016C0009D01041B150B260B370BC901B80124968D
:1016D000E4E00C941F3287E797E79093010880932A
:1016E000000888E19AE00FB6F894A895809360000E
:1016F0000FBE90936000FFCF8091D50108950895AB
:10170000FC019B018091CB019091CC01861797073A
:1017100040F0672B29F48091E8008E778093E800F1
:10172000C90140E0009741F4411106C08091E800F2
:1017300082FF2FC080E00895209188042223A9F120
:101740002530A9F12091E80023FD2DC02091E8006B
:1017500022FDECCF2091E80020FFE4CF3091F30090
:101760002091F200009719F02830310558F041E03F
:101770002830310509F040E02091E8002E772093D1
:10178000E800D0CF41914093F10001972F5F3F4F88
:10179000E9CF80918804882341F0853041F0809121
:1017A000E80083FFC3CF81E0089582E0089583E0DD
:1017B00008958091C50187FF13C08091E80082FFE2
:1017C00006C08091E8008B778093E80004C0809188
:1017D00088048111F2CF0895809188048823D9F379
:1017E0008091E80080FFF8CF8091E8008E77ECCF01
:1017F0002091E4003091E50095E6A9018091EC008C
:101800008170882331F08091E80080FF06C080E07D
:1018100008952091E80022FD1BC080918804882350
:1018200091F0853091F08091EB0085FD10C0209102
:10183000E4003091E5004217530701F391509111F4
:10184000DCCF84E0089582E0089583E0089581E08C
:101850000895E8EDF0E080818E7F80831092E200B1
:101860001092DA001092E100A0EEB0E08C9181605D
:101870008C9380818F77808319BCA7EDB0E08C9129
:101880008E7F8C9380818F7E80831092C401089517
:10189000FC01AC014B5F5F4F8FEF91E321918227F9
:1018A00028E030E087FF0BC0880F892721503109DD
:1018B00021153105B9F7E417F50781F70895880F69
:1018C000F5CF982FE42FE2709093E900891308C0B8
:1018D000762F242F50E0E11111C091E0980FF4CF42
:1018E0007091EC002091ED005091F00021FD06C0B8
:1018F0009F5F973049F78093E90008953091EB009E
:101900003E7F3093EB003091ED003D7F3093ED0052
:101910003091EB0031603093EB007093EC0020933A
:10192000ED005093F0002091EE0027FDE1CF0895E7
:10193000A0E0B0E0EEE9FCE00C94FF31C8EDD0E0AF
:1019400088818F7E8883E7EDF0E0808181608083ED
:1019500084E082BF81E08093C40188818E7F888388
:1019600002EE10E0F80110821092DA0081EEC82E2B
:10197000D12CF601108288818F77888388818068D6
:10198000888388818F7D888319BC10928804109287
:10199000C30110920F021092C20190EEE92EF12CB9
:1019A000F70180818B7F808388818160888342E01A
:1019B00060E080E00E94610CF60180818E7F808370
:1019C000F801808181608083808188608083F70155
:1019D00080818E7F8083888180618883CDB7DEB7E8
:1019E000E8E00C941B329C012115310509F408959F
:1019F0008FE99FE00197F1F700C000002150310905
:101A0000F3CF80918904811110C08091D80080614A
:101A10008093D8008AE18A95F1F700C08091D900BF
:101A200080FF0AC081E08093890481E0909189045D
:101A3000913009F080E0089582E0809389040E944B
:101A4000290C10928804F1CFA4E0B0E0EAE2FDE0B6
:101A50000C9405320E94010D882371F00E942E0B18
:101A600069837A838B839C8369817A818B819C8152
:101A70002496E2E00C9421320E942E0B69837A8333
:101A80008B839C8380918A0490918B04A0918C0419
:101A9000B0918D0429813A814B815C81280F391FD7
:101AA0004A1F5B1F29833A834B835C83DDCF0E94EF
:101AB000010D882359F0E0919604F0919704309736
:101AC00029F00190F081E02D0995089580E00895B6
:101AD0000F931F93CF93DF93EB018A0190918804BA
:101AE000943079F58093E9008FEF9091E80095FDAF
:101AF00007C095ED9A95F1F7000081508111F5CF5F
:101B00008091E80085FF1DC00E94F80B811114C070
:101B10008091E80085FD06C08091E8008E77809373
:101B2000E800F2CF88818093F1000150110901157E
:101B3000110511F02196ECCF8091E8008E7780930B
:101B4000E800DF91CF911F910F910895CF93DF931C
:101B5000D82FC92F48E050E0682F792F81E00E94EC
:101B6000680D88E0ED2FFC2FADECB1E001900D92F7
:101B70008A95E1F7DF91CF910895BC0143E050E0F1
:101B800084E00E94680D0895A0E0B0E0EAECFDE07A
:101B90000C94FD31F82EE92EB62EA72E8A018091E5
:101BA000C001CC24C394D12C8A3018F48AE0C82E0A
:101BB000D12CC1E0D0E06B2D7A2D8F2D9E2DF80118
:101BC0000995811116C02196CC16DD0694F0CC9FA4
:101BD000C001CD9F900D900D112420E030E045E331
:101BE0004A95F1F700002F5F3F4F28173907B9F7E3
:101BF000E2CFCDB7DEB7EAE00C94193285E290E08F
:101C00000E94BA358C3F89F486E290E00E94BA3592
:101C10008B3859F487E290E00E94BA3591E0863C17
:101C200009F090E0892F8170089580E0FCCF0F9338
:101C30001F93CF93DF9304E415E0C9EFD2E0CE0108
:101C40000E94BA35F80181938F012196CD31F3E0DE
:101C5000DF07A9F7C1E5DBE0FE01859194910097CC
:101C600011F0FC0109952C96FBE0C13EDF07A1F7BE
:101C7000DF91CF911F910F9108950F931F93CF93F1
:101C8000DF93863030F56A3020F5463010F5C42FEA
:101C9000D0E0CC0FDD1F2CE0629FC00DD11D1124C0
:101CA00038E7839FC00DD11D1124CE0189960E9473
:101CB000BA35082F10E0102F0027CE018A960E9417
:101CC000BA359801282BC901DF91CF911F910F914F
:101CD000089580E090E0F8CF462F672F209192047E
:101CE00030919304232B91F4703F39F4403F71F409
:101CF000809190049091910408957A3038F44630A0
:101D000028F4863018F40E943D0E089580E090E09B
:101D10000895A0E0B0E0EFE8FEE00C9400327C0112
:101D20000091430580914205082BC5E0D0E010E00A
:101D3000C8010C2E02C0959587950A94E2F780FDA4
:101D400009C02197A8F7D12C8D2DCDB7DEB7E7E0DC
:101D50000C941C32DC2EB7018C2F0E946C0E0E945A
:101D6000EE08019771F3F0CFCF93DF93D82FC92FEF
:101D70000E94890E6D2F7C2F0E946C0E0E94EE082F
:101D8000DF91CF910895FC018481882339F080810F
:101D900091810E94B40E0E941707089580E0089573
:101DA0001F93CF93DF93182FD92F662399F04423E5
:101DB00089F00E94890EC82F682F812F9D2F0E94C5
:101DC0005D07612F7D2F8C2F0E946C0EDF91CF91CC
:101DD0001F9108950E949407C82FF3CFFC01462F4E
:101DE0006581808191810E94D00E08958091410586
:101DF00090916805892B8093A60148E050E068E93E
:101E000074E086EA91E00E94C532892BA9F088E04F
:101E1000E6EAF1E0A8E9B4E001900D928A95E1F7D5
:101E2000E0919604F0919704309731F00280F381AD
:101E3000E02D86EA91E009950895882339F0909184
:101E40004105892B809341050E94F60E0895882351
:101E500039F090916805892B809368050E94F60EF1
:101E60000895882321F00E94F3070E94F60E08953A
:101E7000882341F0809590916805892380936805B7
:101E80000E94F60E08950F931F93CF93C82F8823B7
:101E900039F18CEF8C0F813AB0F508EA11E0F801C6
:101EA0008191C81709F121E0EE3AF207C9F7EFEF87
:101EB00080E0D8019D918D01C91781F0EF3F19F4A1
:101EC000911101C0E82F8F5F863099F7EF3F31F015
:101ED0000E2E000CFF0BEA55FE4FC2830E94F60E39
:101EE000CF911F910F910895E8EAF1E08191C81315
:101EF00003C0DF0111971C9231E0EE3AF307B1F70E
:101F00000E94F60ED4CF80E28C0F883068F4C77040
:101F100081E090E001C0880FCA95EAF7C0914105C1
:101F2000C82BC0934105DACF8BE58C0F833038F492
:101F30002C2F2452330BC9010E94E20AD1CFC85A78
:101F4000CB3170F6EC2FF0E0EE0FFF1FE359FE4FA0
:101F5000808191810E94080BC3CFCF93DF93EC0166
:101F6000805E9109089720F067E27FE0209711F4E6
:101F70006DE17FE0CE010E94D9068C2F0E94430FB5
:101F8000DF91CF910895662329F0209168052260A2
:101F9000209368059C0130522115304308F499279D
:101FA0000E94AD0F0895882389F19CEF980F913A14
:101FB00078F4E8EAF1E09191891303C0DF01119709
:101FC0001C9291E0EE3AF907B1F70E94F60E0895DF
:101FD00090E2980F983050F4877091E001C0990F0B
:101FE0008A95EAF7892F0E94F307EFCF9BE5980FB8
:101FF000933028F480E090E00E94E20A0895885A25
:102000008B3120F480E090E00E94080B0895CF937C
:10201000DF93EC010E94D30FCE01805E91090897F7
:1020200020F068E37FE0209711F461E37FE0CE01C8
:102030000E94D906DF91CF9108950F931F93CF93FC
:10204000C82F0091640510916505893321F0009136
:102050006205109163058C2F0E94430F0115110535
:1020600039F48C2F0E94D30FCF911F910F910895B7
:102070008FE99FE00197F1F700C0000001501109BE
:10208000EDCFA0E0B0E0E7E4F0E10C940032EC0129
:102090009881992309F49CC09130E1F599818A8156
:1020A000913021F422960E941D1005C0923029F42F
:1020B00022960E94430F2196EBCF933021F4229673
:1020C0000E94D30FF8CF943011F02196F4CF2296CE
:1020D00020E030E06AE0AE014F5F5F4F8053990B24
:1020E0008A30910560F02115310529F38FE99FE0D1
:1020F0000197F1F700C0000021503109F4CF629F31
:10210000F001639FF00D11249C012E0F3F1F898168
:10211000EA01E1CFE92FF0E0E854F94FD490292FFC
:1021200026952695269530E0F901E855F94F8491DA
:102130009770F901E856F94FE490F12C092E02C08E
:10214000F594E7940A94E2F741E0E422FF24F901D0
:10215000E857F94F049110E0092E02C01595079534
:102160000A94E2F701701127E82FF0E002C0F5951C
:10217000E7959A95E2F7E0FD0CC0E114F104A1F4B3
:102180008D2D0E941D100115110509F494CF8CE2CC
:102190008ACF81EE0E94430FE114F10479F48D2D72
:1021A0000E941D1081EE07C086EE0E94430F8D2D08
:1021B0000E941D1086EE0E94D30FE5CF86EE0E948E
:1021C000430F8D2D0E941D1086EE0E94D30FEACF83
:1021D000CDB7DEB7E7E00C941C3210924105E8EA77
:1021E000F1E086E0DF011D928A95E9F780E090E05A
:1021F0000E94E20A80E090E00E94080B10926805BD
:102200000E94F60E08950E94ED102FEF84E39CE0EB
:10221000215080409040E1F700C0000088E19AE042
:102220000FB6F894A895809360000FBE909360005D
:10223000FFCFCF92DF92EF92FF92FB018FEF9FEFE4
:102240004430510508F481C0C080D180E280F38021
:102250000E94ED10D701C601B695A7959795879571
:102260008170282F220FD701C60181709927AA27D4
:10227000BB27822BB701A60132E07695679557956B
:1022800047953A95D1F74170440F440F842BB7011D
:10229000A601E3E07695679557954795EA95D1F7BE
:1022A0004170440F440F440F842BB701A601F4E0A2
:1022B0007695679557954795FA95D1F74170429570
:1022C000407F842BB701A601A5E0769567955795C9
:1022D0004795AA95D1F741704295440F407E842BD3
:1022E000B701A601B6E07695679557954795BA95DB
:1022F000D1F741704295440F440F407C842BB701C5
:10230000A60197E076956795579547959A95D1F7E9
:10231000479544274795842B80938E04D1FA8827CC
:1023200080F9880F9D2D9170892B90918F049C7F4F
:10233000892B80938F0460918E0470918F0484E0C8
:1023400090E00E94F63580E090E0FF90EF90DF9003
:10235000CF900895AAE2B0E0E0EBF1E10C940432F2
:1023600085EC91E0FC0101962091F100208321E0B1
:102370008D3C9207B9F78091C601893009F456C0A7
:10238000C8F4823009F4B3C0833009F482C08130CC
:1023900071F18091E80083FFE7C08091C5019091C1
:1023A000C6019A3008F0E0C0E92FF0E0EA5EF94C8F
:1023B0000C948D328A3009F489C08B3051F78091AA
:1023C000C501813231F78091C9019091CA01892BF1
:1023D00001F78091E800877F8093E8000E94D90B85
:1023E0008091C701809300010E94ED10D2CF8091AF
:1023F000C501813A71F68091E800877F8093E800FB
:102400008091C9019091CA01892B61F060E080E060
:1024100090E070E00E94800B8091E8008B778093C1
:10242000E800B7CF68E08DEC91E0F3CF8091C50173
:10243000813209F0AECF8091C9019091CA018D7FA0
:10244000892B09F0A6CF8091E800877F8093E80070
:102450008091E80082FF18C09091F3008091F20013
:10246000029731F48091F100813011F0863021F42F
:102470008091F1008093D5018091E8008B77809363
:10248000E8000E94D90B85CF809188048111E0CFAC
:1024900080CF8091C501813A09F07BCF8091C9013D
:1024A0009091CA01892B09F074CF8091E800877F51
:1024B0008093E8008091E80080FFFCCF80910001CC
:1024C0008093F1008091E8008E77D9CF8091C5018B
:1024D000813209F05ECF8091E800877F8093E80029
:1024E0000E94D90B8091C8018093C10152CF809185
:1024F000C501813A09F04DCF8091E800877F809334
:10250000E8008091E80080FFFCCF8091C101D8CF26
:10251000803889F0823841F58091C9018F70873009
:1025200018F58093E9008091EB0085FB882780F9FE
:102530001092E90006C08091C20190910F029111A2
:1025400082609091E800977F9093E8008093F1007B
:102550001092F1008091E8008E7723C0811116C09F
:102560008091C701813011F18091E80083FF0AC09A
:102570008091E800877F8093E8008091EB00806283
:102580008093EB00AA96E3E00C942032823061F74E
:102590008091C701882389F01092E9008091E800BA
:1025A000877F8093E8000E94D90BDECF81E09330D3
:1025B00009F080E080930F02EFCF8091C9018F7006
:1025C0002FEF280F263080F68093E9002091EB0052
:1025D00020FFE2CF933031F48091EB008062809352
:1025E000EB00DACF9091EB0090619093EB0021E04B
:1025F00030E0A90102C0440F551F8A95E2F74093CD
:10260000EA001092EA008091EB008860E8CF811127
:10261000ABCF1091C7011F778091E3008078812BA9
:102620008093E3008091E800877F8093E8000E9418
:10263000D90B8091E80080FFFCCF8091E300806897
:102640008093E30083E0111101C082E0809388044D
:102650008BCF8058823008F087CF4091C7015091CE
:10266000C8014C3D83E0580799F583E08A838AE2EC
:1026700089834FB7F894DE01139620E03EE051E2E3
:10268000E32FF0E050935700849120FF03C0829520
:102690008F703F5F8F708A30C8F0895C90E08D93B7
:1026A0009D932F5F243161F74FBF8091E800877FB2
:1026B0008093E8006AE270E0CE0101960E94800BF0
:1026C0008091E8008B778093E8004ECF805DE6CF65
:1026D0008091C9019091CA01252F332723303105FC
:1026E00009F44AC078F52130310509F483C08BE53F
:1026F00090E0E8E3F7E02230310509F035CF209192
:10270000E800277F2093E8002091CB013091CC0195
:102710008217930708F49C0140E02115310509F068
:102720006EC041116CC08091E80082FDC9CF8091DC
:102730008804882329F2853019F28091E80083FF0C
:10274000F2CFBECF2132310509F445C02232310526
:1027500009F00ACF8330910508F006CFFC01EE0F97
:10276000FF1FE45BFE4F0190F081E02D875B9E4FE1
:10277000DC018C9190E010C0CA019927423019F118
:102780008330910568F4892BB1F4E5EEF7E0E4912C
:102790008E2F90E0E5EEF7E0009709F4E5CEAFCF9D
:1027A000039709F0E1CEE5EAF7E0E4918E2F90E09F
:1027B000E5EAF7E0F1CFE3EDF7E0E4918E2F90E06A
:1027C000E3EDF7E0E9CFE3ECF7E0E4918E2F90E062
:1027D000E3ECF7E0E1CF8330910508F0C5CEFC01D2
:1027E000EE0FFF1FEE5AFE4F0190F081E02D89E0C1
:1027F00090E085CF82E190E0E3E9F7E080CF80913F
:102800008804882309F45CCF853009F459CF80917E
:10281000E80083FD55CF8091E80082FD84CF809150
:10282000E80080FF7ACF9091F3008091F2002115AB
:10283000310519F08830910550F041E0089709F012
:1028400040E08091E8008E778093E80066CF449165
:102850004093F1003196215031090196E8CF80383C
:1028600009F082CE8091E800877F8093E800809114
:10287000C3018093F1006ECE811176CE1091C70115
:10288000123008F071CE8091E800877F8093E800D5
:102890001093C3010E94D90B1123D1F084E08093DF
:1028A000880442E061EC81E00E94610C42E261EC4C
:1028B00084E00E94610C42E261EC82E00E94610CC3
:1028C00042E260EC83E00E94610C809188044CCE6F
:1028D0008091E30087FDE2CF81E0E1CF80912C0180
:1028E000877F80932C01909168059D7F9093680568
:1028F00084FF08C08F7E80932C0180914105826007
:102900008093410580912C0185FF08C08F7D8093C5
:102910002C01809141058062809341050E94F60E52
:102920000895CF92DF92FF920F931F93CF93DF937F
:10293000EC018B01F42E80912C0182FF66C0C090C7
:102940003705D0903805CC16DD0619F0209709F030
:102950005CC080912C018B7F80932C01C1E081FDB4
:1029600010C080913505909136059801281B390BD0
:10297000C1E080910B0190910C012817390708F4F0
:10298000C0E0C17080912C01C0FB81F980932C01C3
:102990006C2FC6010E94B70A8091410581FF08C0D3
:1029A00080912C01806180932C0182E00E94F307CA
:1029B0008091410585FF08C080912C018062809341
:1029C0002C0180E20E94F3076C2FC6010E94C30F06
:1029D000FF2031F080915F0585FF02C086FF29C08E
:1029E00080916205909163050E94F30C80913705F8
:1029F000909138059C0130522115304308F49927F5
:102A00000E9407100E946E1410C0CE0190528115D2
:102A10009043B8F4CE0199270E94071080913705A2
:102A200090913805C817D90769F3109336050093BC
:102A30003505DF91CF911F910F91FF90DF90CF90DF
:102A40000895CE01E9CFCF93DF93EC0149855A85F4
:102A50006D857E850E94DD0A9B8190958091680539
:102A60008923809368050E94F60E85E0FE0111928D
:102A70008A95E9F7DF91CF910895CF93DF93EC0129
:102A80008C8181FD11C082608C83809168059B815F
:102A9000892B809368050E94F60E4F8158856D85BD
:102AA0007E85CE010E94DD0A1092F6041092F50494
:102AB0008C8180FD03C0CE010E942315DF91CF9150
:102AC00008959C01CB01BA01F901329645915491C8
:102AD0006417750748F0F9013496659174910E9466
:102AE000D23280E090E008958FEF9FEF0895A8E044
:102AF000B0E0EDE7F5E10C9404328091710490911F
:102B00007204A0917304B0917404BC01CD010E94C1
:102B10004B0B11E0643671058105910578F10E9437
:102B2000240DDC01CB010296A11DB11D89839A837E
:102B3000AB83BC8380912501909126018B589B4FDC
:102B400020912401422F50E0253010F044E050E065
:102B5000BE016F5F7F4F0E94D23282E090E00E9400
:102B60006C31182F882351F00E942E0B6093710452
:102B7000709372048093730490937404812F289649
:102B8000E3E00C942032AAE0B0E0E9ECF5E10C942B
:102B90000232F62E072F80E090E00E946C31182F51
:102BA000882309F462C080911701482F50E08823E0
:102BB00011F041E050E060911801709119016B58DB
:102BC0007B4FCE0106960E94D23280918404909170
:102BD0008504A0918604B0918704BC01CD010E94B8
:102BE0004B0B6F83788789879A87643671058105D7
:102BF000910538F486E794E00E94480C9E8189177D
:102C0000A1F181E090E00E946C318823C9F18091AC
:102C10001F01482F50E0863010F045E050E06091F1
:102C20002001709121016B587B4FCE0101960E94CB
:102C3000D23286E794E00E94480C9E81891320C01E
:102C40000E942E0B60938404709385048093860405
:102C50009093870485E0FE013196AFE7B4E00190E0
:102C60000D928A95E1F781E00CC085E0E6E7F4E09B
:102C7000DE01119601900D928A95E1F71111EACFCC
:102C800080E095E0EFE7F4E0AF2DB02F01900D92DA
:102C90009A95E1F72A96E5E00C941E32882381F09C
:102CA0006CEF85E290E00E94D8356BE886E290E018
:102CB0000E94D83566EC87E290E00E94D8350895EE
:102CC0006FEF85E290E00E94D8356FEF86E290E0EA
:102CD0000E94D8356FEFEFCF0F931F93CF93DF9301
:102CE00004E415E0C9EFD2E0CE010E94BA35F80144
:102CF00061918F01861719F0CE010E94D835219677
:102D0000CD31F3E0DF0781F7DF91CF911F910F9174
:102D100008959C01DA010296FC0145915491FC0151
:102D200085919491A817B90758F0F90134968591C7
:102D300094910E94D2320E946C1680E090E0089537
:102D40008FEF9FEF0895E4E4F5E0128E138E8FEA83
:102D500090E09183808385E0848F28E833E133839A
:102D6000228322E330E0378B268B24E630E0318F5C
:102D7000208F158E178E168E20E530E031A320A30C
:102D800082A30E946C160E94ED1010928F04109284
:102D90008E0480E0846080938F0460E074E084E0BF
:102DA00090E00E94F6350E94170E08951F93CF936E
:102DB000DF93962F122F632F8630D8F49A30C8F401
:102DC0004630B8F4C42FD0E0CC0FDD1F2CE0929F2A
:102DD000C00DD11D112498E7899FC00DD11D11246C
:102DE000CE0189960E94D835612FCE018A960E9425
:102DF000D835DF91CF911F910895CF93DF93C5E42C
:102E0000D3E060E0CE010E94D8352196C11584E060
:102E1000D807B9F7DF91CF910895CF93DF93682F4B
:102E200080912502909126026A30B9F42091270200
:102E300084559240622F70E00E94E131281B822F5E
:102E400066E00E942C32C82FC15018F4DF91CF9158
:102E5000089580E20E940D17F7CF6D30F9F49C01C0
:102E60002455324040912702642F70E0C9010E942E
:102E7000E131481B842FA901480F511D41155240D3
:102E800018F080E020E030E0820F932F911D8C5AE3
:102E90009D4F9093260280932502D8CF26E0FC0117
:102EA000AAEBB1E001900D922A95E1F7603E08F49B
:102EB00058C026E0FC0111922A95E9F7C09125023D
:102EC000D091260246E050E0BE018AEB91E00E94DC
:102ED000C5329E0124553240892B41F1C90145E09C
:102EE000969587954A95E1F741E050E0BA0102C016
:102EF000660F771F8A95E2F7CB01609156047091B7
:102F00005704862B972BB9016B5F7F4FE5E07695D1
:102F10006795EA95E1F702C0440F551F6A95E2F7FD
:102F2000842B952B90935704809356042A5F3F4F30
:102F300040912702642F70E0C9010E94E131481BD3
:102F4000463010F4240F311D211572E0370710F0C0
:102F500020E030E02C5A3D4F30932602209325028A
:102F600075CFF6E06F9FB0011124685B7E4F46E09D
:102F700050E00E94BC32A2CFCF93DF93EC01FE0160
:102F80008491811103C0DF91CF9108950E940D17A4
:102F90002196F5CFAAE0B0E0E0EDF7E10C94FA312C
:102FA00080906F049090700481E090E090937004A2
:102FB00080936F04A12CB12CE12C6501F12C15C07C
:102FC000F80125913491472D6F2D8E2D0E94D61634
:102FD0000E5F1F4F739486E07812F2CF86E0C80E22
:102FE000D11CF3948AE0F81639F08601000F111F06
:102FF0000751184F712CE4CFE3948CE3A80EB11C59
:1030000086E0E812DACF0E94A3161A8219821C8287
:103010001B821E821D8218861F8284E690E09A879A
:1030200089874AE050E06DE173E0CE0101960E948D
:10303000FC354AE050E067E273E0CE0101960E9461
:10304000FC354AE050E061E373E0CE0101960E9456
:10305000FC354AE050E06BE373E0CE0101960E943C
:10306000FC359092700480926F042A96EDE00C94E7
:10307000163280E00E944E1660E088E290E00E94E6
:10308000D8350E94CA170E94FD1681E00E944E1694
:103090000895A0E0B0E0EFE4F8E10C94FF317C018A
:1030A0006B0164E670E088E70E942D2FEC0197FD2C
:1030B00012C000E010E0F701E00FF11F849164E618
:1030C00070E00E949C2FEC010F5F1F4FC016D106CD
:1030D00011F097FFF0CF0E941E3081E0CD2B09F058
:1030E00080E0CDB7DEB7E8E00C941B3280915F043E
:1030F000882369F080915C04882349F062E070E0E5
:1031000086E491E00E944918811110925C040895B0
:10311000A4E0B0E0EEE8F8E10C94053280915F04A1
:103120008823F9F00E942E0BDC01CB01805A9541D7
:10313000AF4FBF4F8093580490935904A0935A0403
:10314000B0935B0480915C0481110BC062E070E07D
:1031500084E491E00E944918882319F081E080936B
:103160005C042496E2E00C942132282FCB01243019
:1031700070F44AE0249F90011124B901635E7C4FF2
:103180004AE050E00E94AA3580E090E008958FEF79
:103190009FEF0895AAE0B0E0E0EDF8E10C9405326D
:1031A0009C0197558F3F910509F070F4BE016F5F48
:1031B0007F4F822F0E94B518892B31F489859A851B
:1031C0002A96E2E00C94213280915C0590915D0595
:1031D000F7CF0F931F93CF93DF93EC01FC01019086
:1031E0000020E9F78F0101501109C017D10728F01D
:1031F000DF91CF911F910F91089589910E940D1732
:10320000F4CF1F921FB61F9211248F939F93AF93F9
:10321000BF9380910E02811113C08091D6019091CD
:10322000D701A091D801B091D9014196A11DB11D3E
:103230008093D6019093D701A093D801B093D90180
:10324000BF91AF919F918F911F901FBE1F901895B6
:103250002FB7F8948091D6019091D701A091D80111
:10326000B091D9012FBF08959C014FB7F894809178
:10327000D6019091D701A091D801B091D9014FBF4B
:10328000821B930B0895A0E0B0E0E9E4F9E10C940F
:103290000032D62E172FC42FD22F8823A9F04093A7
:1032A00040050E9428199093B9018093B801C77016
:1032B00081E001C0880FCA95EAF70E941D0FCDB7C3
:1032C000DEB7E7E00C941C3280914005481337C00C
:1032D0008091B8019091B9010E9434197C018D2D23
:1032E000912F0E94CA18E816F90648F5CD130CC0B4
:1032F000802F0E941D10D77081E001C0880FDA95E1
:10330000EAF70E94310FDBCFC77011E0812F01C0B7
:10331000880FCA95EAF70E94310F80E28D0F88303E
:1033200050F48D2F877001C0110F8A95EAF7812F15
:103330000E941D0FDDCF802F0E941D10C0CFC770CF
:1033400081E001C0880FCA95EAF7DBCFA4E0B0E0C6
:10335000ECEAF9E10C94FE317C01DC0114968C91CD
:10336000882309F427C361E0C7010E94EE0E8C0197
:10337000F7018581882309F18091F5049091F60485
:103380000097D9F008171907C1F0FFE08F9FC0011F
:103390001124FC01E350FB4F2081246020838750DF
:1033A0009B4FDC010D931C930E943D151092680504
:1033B00061E0C7010E94EE0E8C01F7018581882330
:1033C00009F4E2C0C8019A9581159F4408F06CC0C9
:1033D000C80199279C01245031092432310518F085
:1033E0008B970E9780F4E091EA04F0E0EE0FFF1F58
:1033F000E854FB4F808191818F3F2FE7920719F0AE
:10340000019691838083C80197578038910508F011
:103410005CC1F02E4FE0401708F4CCC28FEF93E070
:103420000E94BA358111C6C205E413E0F11043C011
:1034300080912D0190912E01A0912F01B09130012A
:1034400089839A83AB83BC8378018FEFE81AF80AEB
:10345000C8010E94BA3589831A82882309F4AAC256
:10346000813009F08BC0680192E0C90ED11CC70100
:103470000E94BA35E82E8A83882309F49BC2C601CC
:103480000E94BA35F82E8FEF8E0D833010F5FB8237
:10349000FF2021F0CE0101960E9441106801A3E0B7
:1034A000CA0ED11C8601D0CF0F3F110511F008F0D4
:1034B000AACFC8018FCF011554E0150709F47AC2CD
:1034C000C8010E94BA350F5F1F4F8111F4CFFA94E3
:1034D000ADCF8BEF8E0D833040F56801B3E0CB0E9E
:1034E000D11CFB82FF20F1F2C6010E94BA358C8309
:1034F000882381F08B819C818130EFEF9E0710F053
:10350000982F8827F6E0EF1651F027E0E21651F0E9
:103510000E948622680144E0C40ED11CC3CF0E94E1
:103520004222F8CF0E946422F5CF54E0E512BACFD0
:10353000680184E0C80ED11CC80103960E94BA3508
:10354000FF2009F437C2882309F434C28150990B53
:103550004FEF489F9001499F300D1124AF2DA1508E
:10356000BB0B2A0F3B1F2150310908F49BCFEFE919
:10357000FFE03197F1F700C00000F5CFCE010196D2
:103580000E94411067018ECF011527E5120708F44C
:10359000D9C0011548E5140708F09EC0680157E539
:1035A000D51A6BEE74E08C2D0E94B518892B29F585
:1035B0008FE08C9DF0018D9DF00D1124E750FB4FA5
:1035C0008281813009F066C08091EB049091EC0417
:1035D000892B99F08091ED049091EE04892B69F08C
:1035E0008091EF049091F0042091F1043091F20465
:1035F000822B932B892B09F457C08FE0089FF00191
:103600001124DF01A750BB4F6D01D70115968C9196
:10361000E350FB4F908180FB90F99083882309F45D
:1036200070C00E9428199093F8048093F704F60163
:1036300082818F5F82838091680590914105892BFB
:1036400083834581568165857685C6010E94DD0AA2
:10365000D60114968C9181FD51C0902F812F9093AB
:10366000F5048093F60480915F0580FFB2C10E944B
:1036700028196C01F70185818111A4C0013E110553
:1036800009F003C180912C018F7E80932C0180FF73
:103690005DC0EAC0823009F0B0CF8091EF04909114
:1036A000F004892B09F4A9CF2FE02C9DC0012D9D9A
:1036B000900D1124FC01E350FB4F20812E7F2083CD
:1036C00087509B4F0E943D1598CFC80197558F3F5B
:1036D000910509F008F491CF80915F0580FDC7CF77
:1036E000D70115968C91F801E851FC47E730F105B8
:1036F00008F06FC1E05EF94C0C948D3290E080E0F0
:10370000AECFD6011B964D915C911C971D966D9185
:103710007C91C6010E94DD0AF601848181FFA3CF5E
:10372000C6010E9423152091F5043091F604809182
:103730005F050217130709F098CF1092F604109254
:10374000F50493CF80915F0580FD91CFF701C08094
:10375000D180C6010E949407182FB601812F0E94C4
:103760006C0E0E94EE08182F092FF701C580B68055
:10377000B2942FE0B222892F82958F70883009F49D
:10378000CCC208F0FBC1843008F0E7C1F92FFF700C
:10379000DF2E823008F402C2892F807F803219F038
:1037A000D29480EFD822113009F038C2809166059A
:1037B000CC2009F42CC28B1508F44AC28D2D0E942E
:1037C0001D0FCEC180912C0182FF06C040E0B601E2
:1037D00080E090E00E9491140431FCE71F07C9F1DA
:1037E00005312CE7120709F1D70115968C910331A9
:1037F000BCE71B07E1F590912C01916090932C019F
:10380000882309F4A3CF109238051092370510923F
:103810004005D701CD90DC90C6010E94890E182F7B
:10382000682FC6010E945D0798CF90912C01892FC7
:103830008E7F90FF816080932C010E946E14809196
:103840002C0180FF2AC0F7018581882309F4C1C0BB
:1038500074C080912C018E7F80932C010E946E1485
:1038600080912C0180FDEFCFF70185810AC098017E
:1038700030522115304308F049C01092380510929B
:103880003705882309F462CFC2CF053E110549F4FC
:1038900080912C018F7D80932C01D70115968C91FE
:1038A000F0CFC80190528115904380F580912C0192
:1038B00082FF4CCF8091610581FD48CF40E0B60189
:1038C00080E090E00E949114F7018581882309F43B
:1038D0003DCF1092400501304CE7140709F43BC17D
:1038E00003305CE7150709F430C101151C4709F0E6
:1038F00090CF0E94ED109FEFA4E3BCE09150A04058
:10390000B040E1F700C000000E946B0BD701159694
:103910008C9190912C0190FFE3CE0832110590F428
:103920000E31110508F04AC09801245031092A319E
:10393000310520F1882309F409CF1092380510923F
:10394000370547C00933110570F40D321105D8F55C
:103950000B321105C1F1882309F4F8CE1092380515
:1039600010923705B6CF0436110569F1882309F4A2
:10397000B7CE1092380510923705B2CE90915F0500
:1039800094FDD8CF882309F496C0809141058D7F9E
:10399000882391F1109238051092370580915F05C8
:1039A00081FD2AC060E0C8010E94B70A60E0C8013A
:1039B0000E94C30F2496E9E00C941A3290915F059F
:1039C00093FDB8CFDFCF90915F0592FFDBCF8111E0
:1039D000D0CFD70115968C9181119FC00737BCE7D6
:1039E0001B0709F4B0C082E00837ECE71E0709F0B6
:1039F000ADCE0E944D079FC087E0F701A9E3B5E077
:103A000001900D928A95E1F710923E0510923C05C7
:103A100010923B05809137059091380508171907DA
:103A2000B9F520915F0525FF33C030912C0131FF9E
:103A300002C026FF2DC02091350530913605760154
:103A4000E21AF30A0E94CA18E816F90608F58091EE
:103A5000410581FF08C080912C01806180932C0179
:103A600082E00E94F3078091410585FF08C08091A4
:103A70002C01806280932C0180E20E94F307609108
:103A80002C0166956170809137059091380590CF33
:103A9000809141051093380500933705D092360583
:103AA000C09235058270846090912C01997F892B9A
:103AB00080932C017FCF40E0B601C8010E94911491
:103AC00079CF06E221EE41EE6AE17CE70E944319DC
:103AD00071CF07E225EE45EE6BE17CE7F7CF06E21A
:103AE00021EE40EE68E17CE7F1CF07E225EE44EEFF
:103AF00069E17CE7EBCF06E221EE42EE6CE17CE788
:103B0000E5CF07E225EE46EE6DE17CE7DFCF08E288
:103B100021E045EE6EE17CE7D9CF109240050737F2
:103B2000FCE71F0771F082E008372CE7120709F065
:103B3000D2CE0E94410743E062E081E00E94C807C4
:103B400039CF81E0F6CF81E054CF6FEF7FEF80E097
:103B500090E00E94F6350E940311843009F4C2C03F
:103B6000812F902F0E941707882309F471C0CC2061
:103B700009F4A9C1BB2009F47DC06AC0893009F4E9
:103B80003DC18A5F8F70823058F7123F09F049C1FA
:103B9000892F8F71CC2009F473C140C1903118F086
:103BA000D29490EFD922CC20C9F0DD2069F080E2D8
:103BB000810F883010F011110BC0809141058D29C3
:103BC000809341050E94F60E812F0E94430FC8CFBB
:103BD000809168058D2980936805F4CF812F0E941C
:103BE000D30FDD2009F4BCCF80E2810F883010F0C4
:103BF000111106C08D2D0E94F3070E94F60EB0CF62
:103C0000D094809168058D2180936805F6CFB81611
:103C100008F0A6CF8D2D0E94310FA2CFCC2079F1D4
:103C2000BB20F9F040E0D70115966C9115978D9166
:103C30009C910E94D00E8091610581FD0EC0F7011C
:103C4000868180FF0AC08F7086838D2D0E941D0F94
:103C50001092AB051092AA050DC0812F0E94430F50
:103C6000F7CF8D2D0E941D0F812F902F0E941707D7
:103C7000882371F360E0C7010E94EE0E9BCEBB204B
:103C800081F08091640590916505193321F0809150
:103C90006205909163050E94F30C812F0E94D30F5F
:103CA000D7CF8D2D0E94310F812F902F0E941707A3
:103CB000882371F240E0D70115966C9115978D918C
:103CC0009C910E94D00E8091610583FFC1CF8091AD
:103CD000AA059091AB05029709F0BACF812F0E94F7
:103CE0001D10B6CF892F869586958370882361F045
:103CF000813009F035CF812F9370C11002C080E070
:103D000090E00E94080B2CCF812F9370C11002C04D
:103D100080E090E00E94E20A23CF892F8370811116
:103D200035C0C11028C0412F429546954770440FB9
:103D3000440F812F8F70042E01C0880F0A94EAF778
:103D4000212F2071222339F02FE030E001C0220F13
:103D50004A95EAF72095302F3695369533703230F4
:103D600081F0333061F040914205313039F0822BDF
:103D700084230E9434070E94570DF2CE842B822B9D
:103D8000F8CF822B909142058927F3CFCC2059F1AF
:103D900090FFF1CF412F429546954770440F440F55
:103DA000812F8F70042E01C0880F0A94EAF7212F0B
:103DB0002071222339F02FE030E001C0220F4A9514
:103DC000EAF72095302F369536953370323089F0EA
:103DD000333069F040914305313041F0822B842328
:103DE0000E943707C8CF823030F2D4CF842B822B89
:103DF000F7CF822B909143058927F2CFF92FFF70DF
:103E0000DF2ECC2039F08F2F0E944107812F0E9496
:103E10001D0FB1CF812F0E94310F8D2D0E944D07B4
:103E2000AACF133F60F4103F99F0113F29F1CC2045
:103E3000C1F1BB2099F1812F0E94430F9CCF133F0A
:103E400011F1C110F6CFB11034C0802F8F71E6CFC1
:103E500080916605CC2061F0B81608F08CCF202F39
:103E60002F7181E090E001C0880F2A95EAF7C2CF58
:103E70008B1508F480CFF3CF892F8F71CC2071F28E
:103E80000E94410778CF80E0CC2009F4A9CF81E0DF
:103E90009F7101C0880F9A95EAF7A2CF802F8F718A
:103EA000EFCFBB2091F280916405909165051933A5
:103EB00021F080916205909163050E94F30C812F9F
:103EC0000E94D30F58CFB110C3CEF4CEA0E0B0E023
:103ED000ECE6FFE10C9400328091A905803108F0F6
:103EE00049C08091A805882309F444C0C0916A059F
:103EF00087E0D82E809169058C17E1F1EC2EF12C2A
:103F0000DC9EE0011124FE01E559FA4F84818823EB
:103F1000B1F191818091A405981331C09081809175
:103F2000A30598132CC08581811129C002811381BA
:103F30008091A5059091A605081B190B60E083EA06
:103F400095E00E94EE0E0E94CA1808171907B8F4EF
:103F50008091A9058F7080618093A905CF58DA4FB1
:103F600088818F708061888383EA95E00E94A6191A
:103F70000E94E907CDB7DEB7E7E00C941C32E701F9
:103F80002196C770B7CFADE0B0E0E9ECFFE10C944B
:103F9000F8318C0186E0F801DE01189601900D924F
:103FA0008A95E1F7D801CC9011967C9011971596DF
:103FB0006C9015971296ED90FC90139714965C9068
:103FC00083EAA82E85E0B82E8091A705811118C03C
:103FD000552099F0662009F491C1C8010E94C30ED2
:103FE000882309F48BC187E0F801A3EAB5E00190CA
:103FF0000D928A95E1F70E94661FFF24F39441C059
:1040000060E083EA95E00E94EE0ED090A8058091D2
:10401000A5059091A605DD2009F425C14701881A60
:10402000990A60E083EA95E00E94EE0E0E94CA18A9
:104030008816990608F0DBC05520F9F2B090A90562
:104040009091A405F8018181FFE0FB1508F497C069
:10405000F62C98131BC09091A305D8018C9198134E
:1040600015C0611077C08B2D8F7080618093A9057A
:1040700083EA95E00E94A6198091A905F80186833C
:10408000F12C8F2D2D96EFE00C941432611062C04C
:10409000E0916A0580916905AE2F97E0A81302C0F0
:1040A00097E02AC02A2F30E09A9FD0011124A55909
:1040B000BA4F11964C911197741207C04C91C412CB
:1040C00004C015964C91411123C1D9011196A770D6
:1040D000E5CF2E2F30E09E9FF0011124E559FA4FD5
:1040E0004181741206C04081C41203C04581411150
:1040F000C7CFF9013196E7708E13EBCF888599858C
:104100000E94B40E292F22952F70903448F02A5F18
:104110002F702230C8F0C8010E94A619FD2CB1CF23
:104120009F70223038F0992351F0F8019681903138
:1041300030F4A7CF992319F0882309F4A2CF805E29
:10414000883008F49ECFE7CF803F08F49ACF815F94
:104150008230F7CF8091A90581608093A905809175
:10416000610581FD8DCF83EA95E00E94A61987E065
:10417000E3EAF5E0DF011D928A95E9F781CF981314
:1041800016C09091A305D8018C91981310C06110AE
:104190000EC01696BC92C8010E94A61987E0F801CD
:1041A000A3EAB5E001900D928A95E1F726CFC80108
:1041B0000E94C30E882309F4A1C0662009F49EC0A2
:1041C0008091A905803208F40ECF8091A3059091CB
:1041D000A4059A838983FC82EB828091A7058D8355
:1041E0001E82BF82CE0101960E94A619FCCED090FD
:1041F000A905BFE0BD1508F0B6CF552009F4FDCEE6
:104200009091A405F8018181981311C09091A305A4
:10421000808198130CC061100AC0D682C8010E9428
:10422000A61987E0D5011D928A95E9F7E6CEC80167
:104230000E94C30E882309F461C0662009F45EC0A1
:104240008091A905803208F4CECE8091A30590918B
:10425000A4059A838983FC82EB828091A7058D83D4
:104260001E82DF82BFCF6701C81AD90A60E083EAE5
:1042700095E00E94EE0E0E94CA18C816D90608F0F2
:1042800041C0552009F4B9CE6620C1F19091A40532
:10429000F8018181981328C09091A305808198131B
:1042A00023C08091A5059091A605E81AF90AF4E6C5
:1042B000EF16F10408F072CF8091A90580FD6ECF52
:1042C000803108F46BCFD80116968C931697982FEF
:1042D000907F903F09F45FCF982F907F905F8F7011
:1042E000892B16968C9357CFC8010E94C30E81115B
:1042F0007ACE8091A90581608093A905C8010E94AA
:10430000A6197BCE87E0F50111928A95E9F7B8CE20
:104310009091610590FFC4CE26CFABE1B0E0E3E918
:10432000F1E20C9404324E8B5F8B688F798F8A8F09
:104330009B8F882349F08091AA059091AB05019647
:104340009093AB058093AA058B8D8111109268051F
:104350001D8A86E0FE017696DE011F9601900D9281
:104360008A95E1F78B89882329F061E0CE010F96C9
:104370000E94EE0E87E0FE013F96DE011896019046
:104380000D928A95E1F7CE0108960E94C31F811114
:104390002BC087E0FE013896DE01119601900D9248
:1043A0008A95E1F72091690540916A058C858823FB
:1043B000D9F030E0C90101968770992750E0841741
:1043C0009507E9F097E0929FD001939FB00D1124DB
:1043D000A559BA4FFE01319601900D929A95E1F7D9
:1043E000809369050E94E90717E080916A05909122
:1043F0006905891312C06B96E3E00C9420320E9489
:10440000ED101092690510926A0587E0E3EAF5E085
:10441000DF011D928A95E9F7E7CF189FC0011124AB
:1044200085599A4F0E94C31F882329F380916A05FA
:1044300090E001968770992780936A05D6CFA6E011
:10444000B0E0E5E2F2E20C9403320E9428198C01FC
:1044500080919404909195048017910779F01982C6
:104460001A820E942819BC0149815A8180E090E09B
:104470000E948D2110939504009394042696E4E005
:104480000C941F32A6E0B0E0E8E4F2E20C940532AE
:104490009093910480939004811520E2920730F468
:1044A0000E94AD0F2696E2E00C94213280EF8983C2
:1044B0008A830E9428198160BC0149815A8181E068
:1044C00091E00E948D21EECFA6E0B0E0EAE6F2E2B4
:1044D0000C9405329093910480939004811520E20E
:1044E000920730F40E9407102696E2E00C942132E5
:1044F00080EF89838A830E9428198160BC014981E9
:104500005A8181E090E00E948D21EECFCF93DF931E
:10451000D82FC92F0E944222809162059091630595
:104520000E94F30C8D2F9C2F0E946422DF91CF916B
:1045300008950F931F93CF93DF938C01862F6BEE1B
:1045400074E00E94B518892BB1F4C091EB04D091AE
:10455000EC04209781F0F8018281833051F4CE0180
:104560000E948622CE010E948622CE010E948622CF
:1045700002C08430D0F7DF91CF911F910F91089541
:104580000F931F93CF93DF938C01EB016BEE74E0DD
:104590008C2F0E94B518892B09F05AC0FE01FF2705
:1045A000D80112968C911297E250FE4F8130A9F4F7
:1045B00014968C9182FD51C080FF4FC082E08083B1
:1045C0008091ED049091EE040097B9F48091EB0492
:1045D0009091EC040097E1F110C08230B9F5149687
:1045E0008C9182FD28C080FD0BC083E08083809188
:1045F000EF049091F004009701F10E94422228C03C
:1046000084E080838091F1049091F2040097A9F7EF
:104610008091EB049091EC04009711F10E948622A6
:104620008091ED049091EE04009739F78091EB04AE
:104630009091EC04E2CF85E080838091EB0490912F
:10464000EC04009729F00E948622F0CF86E0808358
:10465000DF91CF911F910F91089581E08083B6CFB4
:104660008091ED049091EE04B5CF0F931F93CF93FB
:10467000DF938C01EB016BEE74E08C2F0E94B51878
:10468000892BA1F480916205909163050E94F30C3F
:10469000DD27C250DE4F8881F801128218828330F4
:1046A000F1F048F4813059F0823081F0DF91CF9100
:1046B0001F910F9108958430B9F08530B9F780913A
:1046C000EB049091EC04009789F306C08091ED040F
:1046D0009091EE04009799F30E946422E7CF8091B5
:1046E000EF049091F004F6CF8091F1049091F204E0
:1046F000009791F72091EB043091EC048091ED0448
:104700009091EE0421153105F1F2009729F7C901C6
:10471000E3CFA3E1B0E0EFE8F3E20C94FA311A82C0
:104720001982FE01339688E0DF011D928A95E9F730
:1047300088E5A82E81E0B82E8E010F5F1F4F48013B
:10474000EE24E394F12C23E6C22E21E0D22EF501D3
:1047500081915F018F3F09F441C0F894E82FE29501
:10476000EF70F0E021A18F70A70102C0440F551F28
:104770008A95E2F7CA01922F982B91A392A1809576
:10478000892382A3789400C0EDE5F1E031E0712C3B
:1047900021912F3F09F465C0A22FA295AF70A05EB2
:1047A000B0E08C9190E02F7002C0959587952A9586
:1047B000E2F78170811155C0832F782A330FCE160E
:1047C000DF0631F7F501319780818F3F11F00E94AC
:1047D000060A50EA5A95F1F7D8017C920F5F1F4FF5
:1047E000BDE5AB16B1E0BB0609F0B1CF4AE050E041
:1047F000B40182E092E00E94C53200910D02892B43
:1048000091F18AE0F401A2E0B2E001900D928A9564
:10481000E1F781E08093B7010E9428199093B601D7
:104820008093B5018091B5019091B6010E94341931
:104830000597E8F010E00B591B4F45E050E062E0AF
:1048400072E0C8010E94C532892B41F085E0E2E0A8
:10485000F2E0D80101900D928A95E1F71092B7012C
:1048600006C080E0AACF8091B7018111DBCF0E9402
:10487000010DE0910D02882309F472C01C861B868D
:104880009E01235F3F4F83E0D9011D928A95E9F78E
:104890000E2F10E00B591B4F8091C0018A3058F544
:1048A0007E01BBE0EB0EF11C43EC55E1B701C80102
:1048B0000E94C40D6701882309F440C047E755E111
:1048C000B701C8010E94C40D8823C1F11092C00134
:1048D00080910C0290E045E050E0B6018B599B4F6F
:1048E0000E94C53221E02093B401892BD1F4639654
:1048F000EDE00C9416328091B2019091B3010E94C8
:104900003419843F914060F68091B401882379F393
:10491000FE013B9685E0DF011D928A95E9F7109232
:10492000B401A0910C02B0E0AB59BB4F85E0FE0191
:104930003B9601900D928A95E1F7D9CF8091C00105
:104940008F3F39F40E9428199093B3018093B201EC
:10495000DBCF8F5F8093C0018A3008F4B9CFF2CFEC
:10496000F0E0EB59FB4F85E0A6E7B4E001900D9233
:104970008A95E1F786E794E00E94480C80937504DD
:10498000C0907B04D0907C04E0907D04F0907E0485
:104990008091AE019091AF01A091B001B091B101B1
:1049A000C816D906EA06FB0609F4A1CFC092AE01EB
:1049B000D092AF01E092B001F092B1010E94010DDE
:1049C000811195CF0E942E0BC61AD70AE80AF90A60
:1049D000C0928A04D0928B04E0928C04F0928D04F1
:1049E00086CFCDB7DEB7E6970FB6F894DEBF0FBE21
:1049F000CDBF85B7806885BF85B7806885BF84B720
:104A0000877F84BF0FB6F894A89580916000886175
:104A100080936000109260000FBE80E890E00FB6B7
:104A2000F89480936100909361000FBE84E09AE057
:104A30009093A5018093A4010E941F0A0E94170E63
:104A40000E94290C0E94980C8091E200846080935F
:104A5000E200789480918804882399F08091E9009D
:104A60001091EC001795112717958F70182B109245
:104A7000E9008091E80083FD0E94AA111F70109345
:104A8000E90082E084BD93E095BD9AEF97BD8093E5
:104A90006E0010928A0410928B0410928C04109273
:104AA0008D040E94FE0D811102C00E9439180E94DF
:104AB000010D809301010E94010D81110E947E3041
:104AC000809101018091010190E0811101C095E088
:104AD00090930D0285E0891B80930C0208E511E09C
:104AE0004DE5E42E41E0F42ED8018D918D018F3FEC
:104AF00011F00E94060AE016F106B1F70DE511E08B
:104B000033E6E32E31E0F32EF80181918F018F3FE0
:104B100011F00E94060AE016F106B1F78AE0E5E618
:104B2000F4E0DF01282F1D922A95E9F7E2E0F2E098
:104B3000DF011D928A95E9F780E090E00E94C2357E
:104B4000863E9E4F21F40E94FE0D811167C066EEE5
:104B50007EEF80E090E00E94F63560E082E090E039
:104B60000E94D83560E083E090E00E94D835109232
:104B7000420560E074E184E090E00E94F63560E078
:104B800086E090E00E94D8356FEF87E090E00E94C9
:104B9000D83540E050E0BA0188E090E00E94EA3564
:104BA00060E084E290E00E94D83560E087E190E028
:104BB0000E94D83560E08CE090E00E94D83560E03B
:104BC0008DE090E00E94D83519821A821B821C82E7
:104BD0001D821E821F82188648E050E068E170E066
:104BE000CE0101960E94C83540E050E0BA0180E253
:104BF00090E00E94EA3580E00E944E160E9439182B
:104C000040E050E0BA018FE090E00E94EA3540E0D9
:104C100050E0BA0183E190E00E94EA3582E090E042
:104C20000E94BA358093100284E090E00E94C23561
:104C300090938F0480938E040E948923EFEFF6E710
:104C400021E0E150F0402040E1F700C000000E9468
:104C500089238091650480FF08C06FEF7FEF80E0BB
:104C600090E00E94F6350E946B0B83E090E00E947A
:104C7000BA350E9434070E94010D91E08927880F00
:104C80008093540480E8809327020E94272F6BE0D2
:104C900070E080ED9AE00E944918882309F443C02F
:104CA0008091540465E070E081FDD4C08BEC9AE003
:104CB0000E9449188823B9F16DE070E089EB9AE011
:104CC0000E944918882379F10E942E0B6BA77CA7BC
:104CD0008DA79EA7DC01CB01805A9541AF4FBF4FF6
:104CE0008093580490935904A0935A04B0935B04A2
:104CF000E4E5F2E080E092E0DF019C011D922150AA
:104D00003040E1F7F0932602E09325028FEF9FEF0A
:104D1000909357048093560481E080935F048093BE
:104D20005C04109255040E94010D811102C00E9482
:104D3000813082E091E0909397048093960428E17B
:104D4000222E312C80918804853049F4809188048A
:104D5000853009F482C00E94ED100E94570D0E9418
:104D6000892301E112E095E6E92E94E0F92E2BE18A
:104D700032E0D701F80191918D912E173F0709F488
:104D8000BEC09817C1F30E94010D882ED12C772444
:104D90007394D701CD907D01F80191908F019C14FF
:104DA00039F19C24B12CAA24A394892D8A2188232B
:104DB000B9F08820A9F0B982DA820E9428199C8370
:104DC0008B837D8291E08C2D8A21811101C090E03E
:104DD0009E8349815A816B817C818D810E948D21C6
:104DE000B394AA0CF6E0BF12E0CFF8013197C0826D
:104DF000D3942AE0D212CDCF0E94240D0E94010D3F
:104E00008BA7811187C030915F043BA7311199C1F5
:104E10000E9488180E94570D90916004891721F014
:104E2000809360040E942E0B80918804843009F0E6
:104E300089CF83E08093E9008091E80082FF82CFF0
:104E40008091E80085FD02C38091E8008B77809314
:104E5000E80078CF86EC9AE02BCF809188048430EC
:104E600021F10E94761810920E0230E40FB6F894E9
:104E7000A895209260000FBE3093600083B7817FB9
:104E8000846083BF83B7816083BF7894889583B73C
:104E90008E7F83BF0FB6F894A895809160008861DB
:104EA00080936000109260000FBE80910F028823F3
:104EB00009F44CCF0E948923E5E6F4E08191811149
:104EC00006C04FE654E04E175F07C1F73FCF80E1C1
:104ED00089BD82E189BD09B400FEFDCF8091D80073
:104EE0008F7D8093D8008091E00082608093E00005
:104EF0008091E00081FDFCCF0E94ED1027CF981338
:104F000042CF0E941F220E94010D8BA7882309F423
:104F100013C11BA6E090F504F090F604E114F1042F
:104F2000E9F08091F7049091F8040E9434198C0103
:104F3000C7010E94CA188017910780F48091F50478
:104F40004FE0849FC0011124FC01E350FB4F2081FE
:104F500022FD04C087509B4F0E943D154090B8042D
:104F60005090B904052C000C6608770810910A01CE
:104F7000E12EF12CE8EBF4E081E090E03296E816C7
:104F8000F9060CF06CC18091210290912202A0914F
:104F90002302B0912402BC01CD010E944B0B4B01B6
:104FA0005C019201A30177FE04C020E030E040E004
:104FB00050E0A0E6BAEE0E949A326FA778AB89ABB8
:104FC0009AAB88EC8E9D90018F9D300D1124032E9D
:104FD000000C440B550B280D391D4A1D5B1DA5E027
:104FE000B0E00E949A326BAB7CAB8DAB9EAB6FA5F1
:104FF00078A989A99AA92BA93CA94DA95EA90E94C3
:105000004C3269017A01213F31054105510510F00B
:1050100080EFC82EA9EC8A169104A104B1040CF10A
:105020008091EA0490E0019669E170E00E943832D4
:105030008093EA04880F991FFC01E854FB4F11820A
:105040001082183108F017E11F5F10930A010E94C7
:105050002E0B60932102709322028093230290937F
:105060002402B2E04B165104610471040CF4C12C0B
:1050700020911D0230911E0240911F02509120028A
:10508000CA01B9010E944B0B2B013C0135E64316C6
:1050900051046104710484F00E942E0B60931D0280
:1050A00070931E0280931F02909320028091280229
:1050B00080931C02C0921B0210911C02A0911B0243
:1050C000A11BBB0BA30192010E94A5326FA778AB75
:1050D00089AB9AAB24E630E040E050E00E946E32AB
:1050E000120F1093280280915F0580FF1CC08091F1
:1050F0002C0182FF18C00E942819BC01809135053F
:10510000909136059B01281B390B80910B019091E2
:105110000C012817390738F041E08091370590914C
:1051200038050E94911480915F0481110AC04BA53B
:10513000442309F46FCE6CCE80915F04882309F478
:1051400069CE80915D0490915E040E943419C297EB
:1051500008F444C00E94281990935E0480935D0473
:1051600084E592E090932602809325020E94010D2F
:10517000882309F4A2C080E49BE00E94BC178091C0
:1051800043050E940507823009F491C008F073C0FE
:1051900081118AC089E39BE00E94BC1781E29BE0F9
:1051A0000E94BC17809128021F928F938BE391E09D
:1051B0009F938F9389E292E09F938F930E94E232B4
:1051C00089E292E00E94E9188BE19BE00E94BC1703
:1051D0000F900F900F900F900F900F9080915604AA
:1051E00090915704892BA9F080915F04882389F05E
:1051F0008091550481110DC00E9488182091560499
:105200003091570480E061E070E02115310509F02C
:105210005AC080915C04882309F489CF0E942E0B28
:105220006FA778AB89AB9AAB8091580490915904E1
:10523000A0915A04B0915B042FA538A949A95AA995
:10524000281B390B4A0B5B0BDA01C9018F3F9F4FBB
:10525000AF4FBF4708F06BCF0E94761868CF4081F0
:105260005181052E000C660B770B440E551E661EF1
:10527000771E019683CE8330E9F01F928F9381E3EE
:1052800091E09F938F938DE292E09F938F930E9482
:10529000E2328DE292E00E94E9180F900F900F9099
:1052A0000F900F900F907ACF82E39BE075CF8BE247
:1052B0009BE072CF84E29BE06FCF8BED9AE00E947F
:1052C000BC178CCF8F5F082F10E04B01082E02C057
:1052D000880C991C0A94E2F7A40142235323452B1E
:1052E00089F39091540490FD43C098013695279519
:1052F00036952795322F8295880F80769FE1980FFB
:1053000080930F01309312019093100120931301A9
:1053100024E630E047E050E06DE071E088E70E946D
:10532000CC2F892B09F075CFA801A5E0440F551F9C
:10533000AA95E1F78091540480FD22C04C5A5D4F3C
:1053400004E610E020E230E060E488E70E94F32FFA
:10535000892B09F05ECF80949094809156049091AF
:10536000570488219921909357048093560451CF74
:10537000880F880F880F97E0980F30E023E0C0CFA8
:10538000E4E3F2E080E2DF011D928A95E9F7E7E6C7
:10539000F1E0FCABEBAB63E671E0EBE64E2EE1E057
:1053A0005E2EF7E0EF2EDD24D394EBA9FCA9A191AA
:1053B000FCABEBABFB018191BF01840F952F911DDD
:1053C0009C012C5A3D4F38AB2FA7EA2FF0E0EC5C44
:1053D000FD4F80E090E0AE2CA81AFD2C082E01C0F5
:1053E000FF0C0A94EAF76FA478A800E0D3011D919E
:1053F0003D011F212A2D201B277030E0B12F022EE6
:1054000001C0BB0F0A94EAF7319521953109277045
:10541000332701C016952A95EAF71B2B2081212BF3
:1054200020830F5F083011F701963196883091057F
:1054300091F6EBA9FCA94E165F0609F0B6CF04E67B
:1054400010E020E230E044E352E07ECF0E94F80B0F
:1054500050E2E52EF12C8E010F5F1F4F882361F182
:105460008091E8008B778093E8000091920410917E
:105470009304E9810115110569F1EE3F09F04DC072
:105480008A81833020F08550833008F046C0EA815D
:10549000EE3008F042C0F0E0E95DF94C0C948D323A
:1054A0008091F100D8018C93B1E0EB1AF108E1147E
:1054B000F104B1F20F5F1F4F8091E80085FDF0CF3E
:1054C0008091E8008B778093E8000E94F80B882396
:1054D00099F3C6CFE43150F4EE2351F0E150E331BB
:1054E00038F4F0E0EB5CF94C0C948D32EE3F79F23D
:1054F0008FEFA3C21A8289E08B830FC08A8182302A
:10550000A9F08330E1F0813099F70E942E0B0E94C0
:1055100093326B837C838D839E8340E250E0BE0197
:105520006F5F7F4F82E00E94680D0CCC88E290E0B4
:105530000E94BA351B821C821D828E83EECF809121
:105540006F0490917004892B41F38AE0E5E6F4E062
:10555000DE01139601900D928A95E1F7DECF8A81E4
:10556000823031F62B813C814D815E812BA73CA797
:105570004DA75EA7CA01B9010E94933288E290E06C
:105580000E94D835CACF4C816B818A810E943D0E22
:105590009827892798279E838D83BFCF2D813E81B1
:1055A0003227232732274C816B818A810E94D616AD
:1055B000B4CF0E94CA17B1CF80E18A83AECF1A82DE
:1055C0008BEB9ACF8C81082F10E08D3108F0A5CF9E
:1055D000CA80DB80DC24CD24DC240C0D1D1D7E0163
:1055E00035E0E30EF11CC016D10609F496CF80E039
:1055F0004BEBC416D10428F4C6018B5B9C4F0E9470
:10560000BA35D7018D937D01BFEFCB1ADB0AEBCF03
:1056100080916F0490917004892B09F47ECF8C8166
:10562000E82EF12C8D3108F078CF0A811B811027EC
:1056300001271027FE0131966F01EE0EFF1EEC14BC
:10564000FD0409F46ACF0B3B110540F4D601149612
:105650006C91C8018B5B9C4F0E94D8350F5F1F4F28
:10566000BFEFCB1ADB0AEBCF0E94FD1656CF86E0C8
:10567000A4CF8C81082F10E08D3108F04ECFCA8066
:10568000DB80DC24CD24DC240C0D1D1D7E01E5E037
:10569000EE0EF11CC016D10609F43FCF80E0F0ED0C
:1056A000CF16F2E0DF0620F4C60189960E94BA35D3
:1056B000D7018D937D01BFEFCB1ADB0AEBCF8C8135
:1056C000E82EF12C8D3108F028CF0A811B8110279C
:1056D00001271027003DE2E01E0708F01ECF80EDF5
:1056E00092E0801B910B8E159F0508F416CF8091D8
:1056F0006F0490917004892B09F03FC04801F9E2D2
:105700008F0E911C680121E0C222DD24C114D10456
:1057100069F0C80188960E94BA359D81892798272B
:10572000892781159C4711F48FEF8D83C8018E0D59
:105730009F1D570180FF17C041E0A41AB10845E042
:10574000642E712C6C0E7D1E6A0C7B1CC4018E0DA8
:105750009F1D0E94BA35D3019C9181159C4719F475
:105760008FEFF3018083E1E0F0E0EC0FFD1FEC0D23
:10577000FD1D2FEFCA14DB0430F0FE0131966F01DE
:10578000EE0EFF1E1CC09481858181159C4711F48B
:105790002483258342E0C40ED11C3296EBCF003D1A
:1057A00052E0150738F4D60114966C91C801899619
:1057B0000E94D8350F5F1F4FBFEFCB1ADB0AEC14E6
:1057C000FD0469F7AACE80916F0490917004892B33
:1057D00009F4A3CE40E250E0BE016F5F7F4F82E04C
:1057E0000E94680DFFEF21EE34E0F1502040304080
:1057F000E1F700C0000037CA88E0E0E4F1E0DE0134
:10580000919601900D928A95E1F7FE0132968FE113
:10581000DF011D928A95E9F786E0898388E07F960B
:10582000DE01159697CE8CE9898381E08A831B82FD
:105830001C8273CE8B819C81092E000CAA0BBB0BA2
:1058400035E0880F991FAA1FBB1F3A95D1F7AC010D
:10585000BD01405E5F4F6F4F7F4F803EEFEF9E0771
:10586000AE07BE0708F059CE8C39F1E09F07A105BD
:10587000B10508F052CE4D3921E05207610571059E
:1058800020F04CE951E060E070E0481B590BBC018E
:105890006952744FCE0101960E94BC323ECE4AE15D
:1058A00050E06FEF70E0CE0107960E94DB328091EE
:1058B0006F0489830A8384E08B838C8399E09D83C2
:1058C0003CCE81E090E0909393048093920482E335
:1058D00090E090936404809363040E94281990934D
:1058E00062048093610419CE012B61F10091690477
:1058F00010916E0480916104909162040E943419A9
:105900008536910540F104FF26C014FF24C00E9493
:1059100028199093620480936104809163049091AC
:10592000640401979093640480936304892B51F479
:10593000109293041092920481E090E0909370048E
:1059400080936F0480916F048983809192048A838D
:1059500080916304D1CD82E390E0909364048093BE
:105960006304F0CF1092700410926F04D6CD0B81B7
:105970001C8140E250E06FEF70E0CE0101960E9482
:10598000DB3287E49BE042E050E020E030E0FC01C5
:10599000659174910617170758F04BE08B3C9407FC
:1059A00009F4BBCDB9016E5F7F4F0C96A90116C0FB
:1059B000A1E0B0E0AC0FBD1F2A0F3B1FF9017183BE
:1059C0006083FBE08B3C9F0709F4A7CDBA016E5FB3
:1059D0007F4F0C966132710508F09FCD9A01AB01A3
:1059E000D6CF2B813C81E7E4FBE085919491281789
:1059F000390791F083E59BE047ED5BE048175907D5
:105A000009F476CDFC0165917491FC013C96261752
:105A1000370721F0CF01F2CF87E49BE0FC013696F7
:105A2000259134912115310509F462CD4FE150E003
:105A3000BE016E5F7F4FF901099589836ECD8B8121
:105A40009C81E7E4FBE02591349103E51BE02817F6
:105A5000390741F507E41BE0F801389625913491A8
:105A60002115310519F14CE150E0BE016B5F7F4F0C
:105A7000C801F90109957C01892B41F4F8013A9696
:105A800085919491009711F0FC010995E98245CD2B
:105A9000F80125913491A801445F5F4F8217930765
:105AA000D9F28A01FBE0073D1F0791F7EE24EA9443
:105AB000FE2CECCF0E94A31630CD8B81813069F093
:105AC000823011F1811129CDFE0132968FE1DF0183
:105AD0001D928A95E9F784E0B0CF8C819AE0F92E87
