:100000000C94F1020C940E030C940E030C944429EE
:100010000C940E030C940E030C940E030C940E031C
:100020000C940E030C940E030C947F270C94572809
:100030000C9434270C940E030C940E030C940E03B2
:100040000C940E030C940E030C940E030C940E03EC
:100050000C940E030C945B270C940E030C940E036B
:100060000C940E030C940E030C940E030C940E03CC
:100070000C940E030C940E030C940E030C940E03BC
:100080000C940E030C940E030C940E030C940E03AC
:100090000C940E030C940E030C940E030C940E039C
:1000A0000C940E030C940E030C940E0305010980AE
:1000B000A101850319012AB700150126B700950192
:1000C00075108100C0050C0901A101850419012AE0
:1000D000A002150126A002950175108100C005013E
:1000E0000906A1018506050719E029E71500250184
:1000F0009508750181020507190029EF15002501F2
:1001000095F075018102050819012905950575010C
:100110009102950175039101C00660FF0961A1017B
:100120000962150026FF00952075088102096315F4
:100130000026FF00952075089102C005010906A15F
:1001400001050719E029E7150025019508750181CA
:10015000029501750881010507190029FF15002680
:10016000FF0095067508810005081901290515008D
:100170002501950575019102950175039101C00056
:10018000000000000000000000000000000000006F
:10019000000000000000000000000000000000005F
:1001A0000000007E0F00D4FFFFFFC70000007800B2
:1001B000000000000000002A2B28000000000000C2
:1001C0000000000000000000000029000000002CDA
:1001D0001E3420212224342627252E362D37382779
:1001E0001E1F202122232425263333362E37381F85
:1001F0000405060708090A0B0C0D0E0F1011121347
:100200001415161718191A1B1C1D2F3130232D35E4
:100210000405060708090A0B0C0D0E0F1011121326
:100220001415161718191A1B1C1D2F3130354C09BF
:10023000025B00030100A0FA0904000001030101B0
:100240000009211101000122440007058103080073
:10025000010904010002030000000921110100014D
:100260002222000705820320000107050303200066
:10027000010904020001030000000921110100012D
:10028000226D000705840320000112010002000016
:100290000008534601000100010203011C0376001F
:1002A000690061006C003A006600360034006300AB
:1002B000320062003300630000000C0343006F0053
:1002C00072006E0065000000100366006F006F0092
:1002D0007300740061006E000000040309042B0029
:1002E00014001A00080015001700E00004001600B2
:1002F000070009000A00E1001D001B0006001900AC
:100300000500000000000000E300777C2C002A00BC
:10031000130012000C0018001C00340033000F0002
:100320000E000D000B0029003800370036001000C9
:100330001100000000000000E600787C28002B007F
:100340001E001F00200021002200E000000000002D
:10035000000000000000E1000000000000000000BC
:100360000000000000000000E30001002C002A0053
:1003700027002600250024002300000000004F0075
:10038000520051005000000000000000000000007A
:100390000000000000000000E600010028002B0023
:1003A0001E021F02200221022202E00000000000C3
:1003B000000000000000E10000000000000000005C
:1003C0000000000000000000E30001002C002A00F3
:1003D00027022602250224022302350031003000C4
:1003E0002F002E002D003502310230022F022E0286
:1003F0002D02000000000000E60001002800007C43
:10040000000000000000000000002078237825781C
:1004100027780000000021782478267828780000CA
:100420000000000000000000E30001002C000000BC
:1004300000000000000000000000000000000000BC
:1004400000000000000000000000000000000000AC
:100450000000000000000000E60001002800FD3759
:100460007A585A000004E6D6B4460200210116006C
:100470000000742FE5A3E0042F01425D003D888950
:10048000C65436C3174FE4DCCBB3DF6320E7D7177E
:1004900039D83D5F52C90BECB7E6D5195224B07379
:1004A0006759B3E0B456C74788C96520CF4A3C9422
:1004B0000C015E29865C8E1FD2901470DD8177B2AC
:1004C000096EB5F6AEE987F3FD6E8628D433CFB852
:1004D00075786A02A926DEE8E6250BF2F12FEB9586
:1004E000EF757127C27F9195E2635AB0D245B87219
:1004F000C0B554D7004EDE62BA2013945BD1FF59C9
:1005000021584935658A11E5CA1A8401C66412A7C3
:10051000BCC461E80A8B8F1814972CD485C2CA1109
:10052000139D8194454D5141C1135A07F3F59C8A9F
:100530002EB089D73F3EF2C32110C396AA6256BAA5
:1005400070B31061455FB111971836BB16666F7BAB
:10055000478FC44223D0767E3FA7ECEA0CBF2774B6
:10056000C309BD093C35A8EED8AEC7E9FF0F2F641B
:10057000DF72C5CDF6701A8177ECEF634989711E81
:10058000FAEC985A059B0A0F6BC0B382F93085B01C
:10059000A8A630E1DE91E0E101A42FEECFFAB4CCC1
:1005A00009FA55E9DC3EB4782343F5F745FEAA6A1B
:1005B0007F620EBDEBFB2CF315BF380D4959E000EF
:1005C00000005614AADD3187545C0001DE02B00839
:1005D0000000C0E5C082B1C467FB02000000000457
:1005E000595A11241FBECFEFDAE0DEBFCDBF11E0B4
:1005F000A0E0B1E0E2E1F7E502C005900D92A2387B
:10060000B107D9F723E0A2E8B1E001C01D92A53EF1
:10061000B207E1F70E945A210C94332B0C9400008E
:100620009C019A9581159F4118F5F901EE27F2700A
:10063000832F8170B90166277470A901442758700F
:1006400034FF0CC08295807FEF2B09F08062672B0E
:1006500009F08064452B69F080680895EF2B09F05C
:100660008260672B09F08460452B19F0886008953B
:1006700080E00895CF93DF93EB010E941003FE0109
:100680000995DF91CF91089580939A0308958093FF
:100690009B03089521E030E001C0220F8A95EAF71C
:1006A00080919B03822B0E944703089521E030E054
:1006B000A90102C0440F551F8A95E2F7CA0180952F
:1006C00090919B0389230E9447030895292F983016
:1006D00098F5863088F590E036E0239F800D911DD7
:1006E0001124282F277041E001C0440F2A95EAF712
:1006F00023E0969587952A95E1F7FC01EE0FFF1F01
:10070000E80FF91FE851FD4F20E030E070E0519113
:10071000DF011197CB01022E02C0969587950A94AE
:10072000E2F7817081958527842385278C932F5F3D
:100730003F4F2330310559F70895292F983078F528
:10074000863068F590E036E0239F800D911D1124DE
:10075000682F677023E0969587952A95E1F7FC014D
:10076000EE0FFF1FE80FF91FE851FD4F40E050E08A
:1007700080E0219130E0062E02C0369527950A943C
:10078000E2F721703327042E01C0220F0A94EAF702
:10079000822B4F5F5F4F4330510559F7089580E03A
:1007A000089590919B0321E030E0F90101C0EE0F24
:1007B0008A95EAF7D90102C0AA0FBB1F6A95E2F732
:1007C000EA2B01C0220F4A95EAF7892F8E23E813FE
:1007D00005C0892F822B0E94470308952095822F00
:1007E0008923F9CF8091A3039091A203981301C0AC
:1007F00008958F5F8770FACF909121019923C1F0FE
:100800009091E30397FF14C0E82FE695E695E695EF
:10081000803FF8F4F0E0EC57FE4F877021E030E0C5
:1008200001C0220F8A95EAF78281822B8283089584
:10083000A6E8B1E0EFEF90E02D91821751F0EF3F85
:1008400019F4211101C0E92F9F5F9630A9F7EF3FFE
:1008500009F408950E2E000CFF0BEC57FE4FE6CF67
:10086000909121019923E1F09091E30397FF18C043
:10087000E82FE695E695E695803FF0F4F0E0EC573A
:10088000FE4F877021E030E0A90102C0440F551FE0
:100890008A95E2F7CA01809592818923828308951F
:1008A000E6E8F1E09191891303C0DF0111971C92F2
:1008B00051E0EC38F507B1F7089590919D038095CC
:1008C000892380939D03282F2770211111C0891738
:1008D00079F09091E40392FF0BC0869586958695FA
:1008E0000E94560310929D0310929F0310929E0344
:1008F0000895982F90958091980389238093980369
:10090000089580919703882331F0109297031092F5
:10091000A1031092A0030895803E9105D1F1C8F47F
:100920008133910509F47FC048F48932910509F4B7
:100930006FC08A32910509F47DC00895893391050D
:10094000E1F082389105C9F08533910509F45BC067
:100950000895843E9105D1F148F4823E910531F12C
:10096000833E910541F181EE90E00895863E910528
:10097000C1F1873E9105E1F108952091E3032370D1
:10098000211165C02091E40323FF14C089E290E0A7
:1009900008952091E30320FD43C03091E40330FF2C
:1009A00009C024FF4EC080E090E008952091E30349
:1009B00022FDF7CF08952091E30322FD45C0309139
:1009C000E40330FD44C024FFF5CFEDCF2091E403D4
:1009D00021FFF0CF8091E30384FDE5CF87EE90E027
:1009E00008952091E30323FFE5CF24FDDCCFF6CF6C
:1009F0002091E30323FD2EC03091E40331FFE3CFC8
:100A000084EE90E008952091E30325FFD3CFBECF7D
:100A10002091E30325FD21C02091E40323FFCACFE9
:100A200089E390E008952091E30326FFC3CF8AE293
:100A300090E008952091E30326FFBCCF81E390E08E
:100A4000089583EE90E0089582EE90E0089580EEA0
:100A500090E0089586EE90E0089585E390E0AACFB7
:100A60009091E30392FF10C041E0282F24712430BD
:100A700009F040E031E0282F2871283009F030E0FB
:100A8000431711F02CE0822793FF10C041E0282F7C
:100A90002471243109F040E031E0282F28712831F9
:100AA00009F030E0431711F02CE082273091E40385
:100AB00030FF10C051E0282F2171213009F050E0A3
:100AC00041E0282F2871283009F040E0541711F038
:100AD00029E0822731FF10C041E0282F2171213108
:100AE00009F040E031E0282F2871283109F030E08A
:100AF000431711F029E0822794FD877E08951F9304
:100B0000CF93DF930E948C04EC01811522E59207BC
:100B100008F053C0811540E5940708F0DDC0803E21
:100B20009105F8F48D3C910508F0AEC0883A910526
:100B300080F4853A910508F099C08130910521F043
:100B40000497813A910550F4CE01DF91CF911F9126
:100B50000895885A91094B9708F48BC0C0E0D0E003
:100B6000F3CF811550E49507F8F4C11580E2D8075A
:100B700008F0CBC0C83ED10538F3CE019A95811557
:100B80009F4160F78D2F0E943005182FCE019927C5
:100B90000E948C04212F30E0322F2227E901CC273C
:100BA000DF71C82BD92BD0CF99270E948C04CC277A
:100BB000DF70C82BD92BD06AC7CF803842E59407A5
:100BC000C8F5803652E5950708F067C0C03482E565
:100BD000D807B0F08C2F86958695877020E2829F8B
:100BE000C0011124C37021E030E0A90102C0440F0C
:100BF000551FCA95E2F7EA01C82BD92BDC68A4CFB0
:100C0000C03252E5D50708F041C08C2F86958695F5
:100C100020E2829FC0011124C37021E030E0A901CD
:100C200002C0440F551FCA95E2F7EA01C82BD92B21
:100C3000DD688ACF803C52E5950760F48F71C03A39
:100C4000D24508F03FC090E0982F8827EC01C46F90
:100C5000D06A7ACF805C9245809708F07FCFDC2FF6
:100C6000CC27CC27DF71C06FD06A6ECFA497D06439
:100C70006BCFC85AD0E0CC0FDD1FC55BDE4F0990AB
:100C8000D881C02DD46460CFD0655ECFCF71D0E065
:100C9000DC2FCC27C16FD06A57CF86958695877099
:100CA00020E2829FC0011124C37021E030E0A9013D
:100CB00002C0440F551FCA95E2F7EA01C82BD92B91
:100CC000DA6842CF0E943005C82FD0E0DC2FCC2755
:100CD000CC27DF71D06238CF8F710E94300565E07C
:100CE000D695C7956A95E1F7CF70D0E0DC2FCC2779
:100CF000282F30E084FF05C054E0220F331F5A959F
:100D0000E1F7C22BD32BD0691FCF8D2F8F710E949B
:100D10003005182FCE0199270E948C04212F30E036
:100D2000322F222722273F71282B392BE901D2CFDE
:100D300080E00895F894E82FE295EF70F0E041A18B
:100D40008F7021E030E0B90102C0660F771F8A95ED
:100D5000E2F7CB01962F9095942391A392A1892B32
:100D600082A37894089581152CE7920741F420918D
:100D7000A3023091A402232B11F480E090E00895A7
:100D8000E5E1F3E080E090E060E770E247E950E2FF
:100D90002CE031E27783668351874087338722874F
:100DA00097878687019670968830910599F7089500
:100DB000FC018481862381110AC082818823B9F0D5
:100DC0006823908593FF05C081E061110FC080E02A
:100DD0000895282F22952F708F70282B962F92958B
:100DE0009F706F70962B81E02913F1CF089581E0F9
:100DF000FDCFFA01309709F009950895A3E0B0E01E
:100E0000E4E0F7E00C946F2A9C018091E40190915A
:100E1000E50182179307A1F03093E5012093E401E7
:100E2000E091C602F091C702309751F083E08983C8
:100E30003B832A830680F781E02DCE010196099538
:100E40002396E2E00C948B2AA3E0B0E0EAE2F7E01C
:100E50000C946F2A9C018091E2019091E30182172A
:100E60009307A1F03093E3012093E201E091C602E1
:100E7000F091C702309751F084E089833B832A8345
:100E80000680F781E02DCE01019609952396E2E0D8
:100E90000C948B2A2FB7F8948091DE019091DF019A
:100EA000A091E001B091E1012FBF08959091E4037A
:100EB00092FF10C098E0899F90011124622B6093EB
:100EC0009D030E944A030E944A0790939F038093C8
:100ED0009E0308950E944A03089590919703292F35
:100EE0002823222361F08095892380939703882308
:100EF00039F00E944A078093A0039093A1030895BC
:100F000080E090E0F8CFA4E0B0E0E9E8F7E00C94EE
:100F10006F2A8FB7F8942091DE013091DF01409164
:100F2000E0015091E10129833A834B835C838FBFB9
:100F300069817A818B819C812496E2E00C948B2AD2
:100F40009C014FB7F8948091DE019091DF01A09150
:100F5000E001B091E1014FBF821B930B0895A4E023
:100F6000B0E0E5EBF7E00C946D2A462F572FBC015B
:100F70002FB7F8948091DE019091DF01A091E001FC
:100F8000B091E1012FBF8C019D01041B150B260BB5
:100F9000370BC901B8012496E4E00C94892AA6E035
:100FA000B0E0E5EDF7E00C946B2A7C0100910B03B7
:100FB00010910C0320910D032E8380910E038D83DD
:100FC000B801822F9D810E94AF07643F7140810567
:100FD000910518F10E9483078B018E839D8382E324
:100FE00090E0A0E0B0E000939202109393022E8173
:100FF000209394022D812093950280938E029093EA
:101000008F02A0939002B0939102E0920903F092B4
:101010000A032696E6E00C94872A84EF91E0A0E08C
:10102000B0E0E1CF87E797E790930108809300084D
:1010300088E19AE00FB6F894A895809360000FBEFF
:1010400090936000FFCF8091DD0108950895FC0129
:101050009B018091BB019091BC018617970740F0DE
:10106000672B29F48091E8008E778093E800C9010E
:1010700040E0009741F4411106C08091E80082FFF2
:101080002FC080E008952091BA022223A9F12530D3
:10109000A9F12091E80023FD2DC02091E80022FD58
:1010A000ECCF2091E80020FFE4CF3091F3002091B5
:1010B000F200009719F02830310558F041E028304F
:1010C000310509F040E02091E8002E772093E800F8
:1010D000D0CF41914093F10001972F5F3F4FE9CF6F
:1010E0008091BA02882341F0853041F08091E80078
:1010F00083FFC3CF81E0089582E0089583E00895DF
:101100008091B50187FF13C08091E80082FF06C07F
:101110008091E8008B778093E80004C08091BA0248
:101120008111F2CF08958091BA028823D9F380917A
:10113000E80080FFF8CF8091E8008E77ECCF209117
:10114000E4003091E50095E6A9018091EC00817002
:10115000882331F08091E80080FF06C080E0089588
:101160002091E80022FD1BC08091BA02882391F0F3
:10117000853091F08091EB0085FD10C02091E40056
:101180003091E5004217530701F391509111DCCFE4
:1011900084E0089582E0089583E0089581E0089551
:1011A000E8EDF0E080818E7F80831092E200109263
:1011B000DA001092E100A0EEB0E08C9181608C9397
:1011C00080818F77808319BCA7EDB0E08C918E7FF2
:1011D0008C9380818F7E80831092B4010895FC01EE
:1011E000AC014C5F5F4F8FEF91E32191822728E0A4
:1011F00030E087FF0BC0880F892721503109211566
:101200003105B9F7E417F50781F70895880FF5CF91
:10121000982FE42FE2709093E900891308C0762F8D
:10122000242F50E0E11111C091E0980FF4CF70919C
:10123000EC002091ED005091F00021FD06C09F5F71
:10124000973049F78093E90008953091EB003E7F95
:101250003093EB003091ED003D7F3093ED00309105
:10126000EB0031603093EB007093EC002093ED00C5
:101270005093F0002091EE0027FDE1CF0895A0E00B
:10128000B0E0E5E4F9E00C94692AC8EDD0E088818B
:101290008F7E8883E7EDF0E080818160808384E049
:1012A00082BF81E08093B40188818E7F888302EEC3
:1012B00010E0F80110821092DA0081EEC82ED12CD5
:1012C000F601108288818F7788838881806888837F
:1012D00088818F7D888319BC1092BA021092B30165
:1012E000109284021092B20190EEE92EF12CF701D7
:1012F00080818B7F808388818160888342E060E089
:1013000080E00E940809F60180818E7F8083F801C9
:10131000808181608083808188608083F701808103
:101320008E7F8083888180618883CDB7DEB7E8E0D7
:101330000C94852AE091A3039091A20327E0E9137E
:1013400002C080E00895AE2FB0E02E9FF00111247E
:10135000EC55FC4F3181361306C03081381303C081
:101360003581341304C0FD013196E770E8CF81E088
:1013700008958091BB02811110C08091D8008061D6
:101380008093D8008AE18A95F1F700C08091D90056
:1013900080FF0AC081E08093BB0281E09091BB0294
:1013A000913009F080E0089582E08093BB020E94B2
:1013B000D0081092BA02F1CFA4E0B0E0E2EEF9E07A
:1013C0000C946F2A0E94B909882371F00E94830748
:1013D00069837A838B839C8369817A818B819C81E9
:1013E0002496E2E00C948B2A0E94830769837A8317
:1013F0008B839C838091BC029091BD02A091BE0220
:10140000B091BF0229813A814B815C81280F391F3D
:101410004A1F5B1F29833A834B835C83DDCF0E9485
:10142000B909882359F0E091C602F091C7023097BC
:1014300029F00190F081E02D0995089580E008954C
:101440000F931F93CF93DF93EB018A019091BA0220
:10145000943079F58093E9008FEF9091E80095FD45
:1014600007C095ED9A95F1F7000081508111F5CFF5
:101470008091E80085FF1DC00E949F08811114C063
:101480008091E80085FD06C08091E8008E7780930A
:10149000E800F2CF88818093F10001501109011515
:1014A000110511F02196ECCF8091E8008E778093A2
:1014B000E800DF91CF911F910F910895CF93DF93B3
:1014C000D82FC92F80912101811113C048E050E02D
:1014D0006D2F792F81E00E94200A80E2ED2FFC2FF2
:1014E000ADEBB1E001900D928A95E1F7DF91CF91DC
:1014F00008958091E30387FD06C048E081E050E055
:101500006D2F7C2FE8CF40E284E0F9CFBC0143E0AF
:1015100050E084E00E94200A0895A0E0B0E0E3E9F2
:10152000FAE00C94672AF82EE92EB62EA72E8A012F
:101530008091B001CC24C394D12C8A3018F48AE075
:10154000C82ED12CC1E0D0E06B2D7A2D8F2D9E2D91
:10155000F8010995811116C02196CC16DD0694F08C
:10156000CC9FC001CD9F900D900D112420E030E064
:1015700045E34A95F1F700002F5F3F4F28173907E1
:10158000B9F7E2CFCDB7DEB7EAE00C94832A9091A9
:10159000E40392FB222720F9281779F080FB92F9C7
:1015A0009093E4036091E3037091E40384E090E09E
:1015B0000E94152B82E00E945D040895882381F02B
:1015C00066EB85E290E00E94F72A68E686E290E00A
:1015D0000E94F72A65EB87E290E00E94F72A0895BF
:1015E0006FEF85E290E00E94F72A6FEF86E290E0CD
:1015F0000E94F72A6FEFEFCF1F93CF93DF93962FC1
:10160000122F632F8430D8F49830C8F44630B8F4E1
:10161000C42FD0E0CC0FDD1F2CE0929FC00DD11D58
:10162000112490E6899FC00DD11D1124CE01899609
:101630000E94F72A612FCE018A960E94F72ADF9135
:10164000CF911F910895CF93DF93C9E4D2E060E07A
:10165000CE010E94F72A2196C11584E0D807B9F778
:10166000DF91CF91089585E290E00E94D92A863BD0
:1016700089F486E290E00E94D92A883659F487E2FC
:1016800090E00E94D92A91E0853B09F090E0892FF3
:101690008170089580E0FCCF0F931F93CF93DF9369
:1016A000843030F5683020F5463010F5C42FD0E096
:1016B000CC0FDD1F2CE0629FC00DD11D112430E640
:1016C000839FC00DD11D1124CE0189960E94D92A75
:1016D000082F10E0102F0027CE018A960E94D92AE9
:1016E0009801282BC901DF91CF911F910F91089587
:1016F00080E090E0F8CF462F672F2091C202309112
:10170000C302232B91F4703F39F4403F71F4809170
:10171000C0029091C1020895783038F4463028F420
:10172000843018F40E944C0B089580E090E00895F6
:10173000A0E0B0E0EEE9FBE00C946A2A7C010091A5
:101740009B0380919A03082BC3E0D0E010E0C8010E
:101750000C2E02C0959587950A94E2F780FD09C08A
:101760002197A8F7D12C8D2DCDB7DEB7E7E00C94EB
:10177000862ADC2EB7018C2F0E947B0B0E947F05EE
:10178000019771F3F0CF0F931F93CF93FC018581E5
:1017900000811181882391F0662381F0C8010E94A5
:1017A000980BC82F682FC8010E946603B8018C2FC0
:1017B0000E947B0BCF911F910F910895C8010E9449
:1017C0009D03C82FF3CFCF93DF93D82FC92F0E944B
:1017D000980B6D2F7C2F0E947B0B0E947F05DF9161
:1017E000CF910895FC0184818823A1F080819181AB
:1017F0000E94E30B282F92959F70963091F060F431
:10180000925F9F70923030F481E0203F79F030F4A5
:10181000283E30F080E004C09A5FF3CF243FD1F738
:10182000089581E0283E18F0213FF9CF08950895EA
:10183000CF938091980390919C03892B809384018E
:1018400080919703882361F10E944A072091A003A9
:101850003091A103821B930B8838934110F00E94B2
:1018600081048091840190919703892B8093840156
:1018700080912101882309F44CC08091E30387FF04
:1018800048C08DE190E026E831E0F90140812F5F0A
:101890003F4F41119F5F8150C0F791110E94810419
:1018A000C0910503C09580918401C82380910403F1
:1018B000C82BC093840140E250E068EC72E084E8F9
:1018C00091E00E94AC2A892B11F180E2E4E8F1E07A
:1018D000A8ECB2E001900D928A95E1F7E091C60282
:1018E000F091C702309799F080912101882349F047
:1018F0008091E30387FF05C0C093850186E0809354
:1019000084010280F381E02D84E891E00995CF9174
:10191000089585E0B7CF882339F090919803892BFB
:10192000809398030E94180C0895882339F09091B1
:101930009C03892B80939C030E94180C0895CF93DD
:10194000C82F8823B1F18CEF8C0F813AA0F58091DC
:101950002101882301F18091E30387FF1CC0EC2F54
:10196000E695E695E695F0E0EC57FE4F828190E033
:101970004C2F477021E030E002C0220F331F4A9500
:10198000E2F782239323892B79F08C2F0E94300475
:101990000E94180C09C0E6E8F1E08191C817A9F38C
:1019A00021E0EC38F207C9F78C2F0E94FC030E945B
:1019B000180CCF91089580E28C0F883068F4C770BE
:1019C00081E090E001C0880FCA95EAF7C0919803C2
:1019D000C82BC0939803EBCF8BE58C0F833038F482
:1019E0002C2F2452330BC9010E94FE06E2CFC85AA5
:1019F000CB31F8F6EC2FF0E0EE0FFF1FE55BFE4F6A
:101A0000808191810E942407D4CFCF93DF93EC0192
:101A1000805E9109089720F065E97CE0209711F439
:101A20006BE87CE0CE010E943A038C2F0E949F0C51
:101A3000DF91CF910895882339F19CEF980F913A67
:101A400028F40E9430040E94180C089590E2980F28
:101A5000983050F4877091E001C0990F8A95EAF7A9
:101A6000892F0E947904EFCF9BE5980F933028F4DB
:101A700080E090E00E94FE060895885A8B3120F4A1
:101A800080E090E00E94240708950F931F93CF9366
:101A9000C82F00E010E0893311F400E510E08C2F2E
:101AA0000E949F0C0115110539F48C2F0E941B0D0B
:101AB000CF911F910F9108958FE99FE00197F1F762
:101AC00000C0000001501109EDCFA0E0B0E0EBE64E
:101AD000FDE00C946A2AEC019881992309F49CC0DA
:101AE0009130E1F599818A81913021F422960E940A
:101AF000450D05C0923029F422960E949F0C219634
:101B0000EBCF933021F422960E941B0DF8CF943036
:101B100011F02196F4CF229620E030E06AE0AE0189
:101B20004F5F5F4F8053990B8A30910560F021150C
:101B3000310529F38FE99FE00197F1F700C000001C
:101B400021503109F4CF629FF001639FF00D112401
:101B50009C012E0F3F1F8981EA01E1CFE92FF0E0C0
:101B6000E155FE4FD490292F26952695269530E0F5
:101B7000F901E156FE4F84919770F901E157FE4F4C
:101B8000E490F12C092E02C0F594E7940A94E2F750
:101B900041E0E422FF24F901E158FE4F049110E0F6
:101BA000092E02C0159507950A94E2F701701127D6
:101BB000E82FF0E002C0F595E7959A95E2F7E0FD91
:101BC0000CC0E114F104A1F48D2D0E94450D011506
:101BD000110509F494CF8CE28ACF81EE0E949F0C0C
:101BE000E114F10479F48D2D0E94450D81EE07C0BA
:101BF00086EE0E949F0C8D2D0E94450D86EE0E9460
:101C00001B0DE5CF86EE0E949F0C8D2D0E94450D89
:101C100086EE0E941B0DEACFCDB7DEB7E7E00C944D
:101C2000862A882321F00E9479040E94180C0895C6
:101C3000882341F0809590919C03892380939C0395
:101C40000E94180C08951092980380912101E6E8F3
:101C5000F1E08823B1F08091E30387FF12C08EE1A9
:101C6000DF011D928A95E9F780E090E00E94FE0670
:101C700080E090E00E94240710929C030E94180CC0
:101C8000089586E0EDCF0E94230E2FEF84E39CE0C1
:101C9000215080409040E1F700C0000088E19AE0C8
:101CA0000FB6F894A895809360000FBE90936000E3
:101CB000FFCFAAE2B0E0EFE5FEE00C946E2A85EBE0
:101CC00091E0FC0101962091F100208321E08D3B01
:101CD0009207B9F78091B601893009F456C0C8F46B
:101CE000823009F4B3C0833009F482C0813071F1CD
:101CF0008091E80083FFE7C08091B5019091B60123
:101D00009A3008F0E0C0E92FF0E0EB5CF44D0C9461
:101D1000962A8A3009F489C08B3051F78091B50139
:101D2000813231F78091B9019091BA01892B01F785
:101D30008091E800877F8093E8000E94800880916E
:101D4000B701809321010E94230ED2CF8091B5016B
:101D5000813A71F68091E800877F8093E800809156
:101D6000B9019091BA01892B61F060E080E090E0C8
:101D700070E00E9427088091E8008B778093E8004C
:101D8000B7CF60E28DEB91E0F3CF8091B501813266
:101D900009F0AECF8091B9019091BA018D7F892B66
:101DA00009F0A6CF8091E800877F8093E8008091BA
:101DB000E80082FF18C09091F3008091F200029732
:101DC00031F48091F100813011F0863021F480915E
:101DD000F1008093DD018091E8008B778093E8002B
:101DE0000E94800885CF8091BA028111E0CF80CF18
:101DF0008091B501813A09F07BCF8091B901909132
:101E0000BA01892B09F074CF8091E800877F809315
:101E1000E8008091E80080FFFCCF80912101809351
:101E2000F1008091E8008E77D9CF8091B5018132A1
:101E300009F05ECF8091E800877F8093E8000E94E0
:101E400080088091B8018093B10152CF8091B50193
:101E5000813A09F04DCF8091E800877F8093E800B8
:101E60008091E80080FFFCCF8091B101D8CF80380D
:101E700089F0823841F58091B9018F70873018F56B
:101E80008093E9008091EB0085FB882780F9109210
:101E9000E90006C08091B2019091840291118260A4
:101EA0009091E800977F9093E8008093F100109262
:101EB000F1008091E8008E7723C0811116C08091D7
:101EC000B701813011F18091E80083FF0AC0809151
:101ED000E800877F8093E8008091EB008062809328
:101EE000EB00AA96E3E00C948A2A823061F7809195
:101EF000B701882389F01092E9008091E800877F7C
:101F00008093E8000E948008DECF81E0933009F0E2
:101F100080E080938402EFCF8091B9018F702FEF22
:101F2000280F263080F68093E9002091EB0020FFF7
:101F3000E2CF933031F48091EB0080628093EB002C
:101F4000DACF9091EB0090619093EB0021E030E0CC
:101F5000A90102C0440F551F8A95E2F74093EA0099
:101F60001092EA008091EB008860E8CF8111ABCF3E
:101F70001091B7011F778091E3008078812B8093C7
:101F8000E3008091E800877F8093E8000E9480084A
:101F90008091E80080FFFCCF8091E300806880930F
:101FA000E30083E0111101C082E08093BA028BCF7D
:101FB0008058823008F087CF4091B7015091B80126
:101FC0004C3D83E0580799F583E08A838AE2898350
:101FD0004FB7F894DE01139620E03EE051E2E32F84
:101FE000F0E050935700849120FF03C082958F70DA
:101FF0003F5F8F708A30C8F0895C90E08D939D932D
:102000002F5F243161F74FBF8091E800877F809375
:10201000E8006AE270E0CE0101960E9427088091F4
:10202000E8008B778093E8004ECF805DE6CF80910B
:10203000B9019091BA01252F33272330310509F4D6
:102040004AC078F52130310509F483C08BE590E072
:10205000EFE2F2E02230310509F035CF2091E800BF
:10206000277F2093E8002091BB013091BC018217AB
:10207000930708F49C0140E02115310509F06EC07A
:1020800041116CC08091E80082FDC9CF8091BA02F5
:10209000882329F2853019F28091E80083FFF2CF7E
:1020A000BECF2132310509F445C02232310509F095
:1020B0000ACF8330910508F006CFFC01EE0FFF1F19
:1020C000ED5CFE4F0190F081E02D805D9E4FDC01C4
:1020D0008C9190E010C0CA019927423019F18330E9
:1020E000910568F4892BB1F4EAEDF2E0E4918E2FCA
:1020F00090E0EAEDF2E0009709F4E5CEAFCF039768
:1021000009F0E1CEECE9F2E0E4918E2F90E0ECE909
:10211000F2E0F1CFE8ECF2E0E4918E2F90E0E8EC11
:10212000F2E0E9CFEAEBF2E0E4918E2F90E0EAEB07
:10213000F2E0E1CF8330910508F0C5CEFC01EE0F4F
:10214000FF1FE75CFE4F0190F081E02D89E090E0F9
:1021500085CF82E190E0EAE8F2E080CF8091BA0298
:10216000882309F45CCF853009F459CF8091E800C9
:1021700083FD55CF8091E80082FD84CF8091E800F7
:1021800080FF7ACF9091F3008091F2002115310504
:1021900019F08830910550F041E0089709F040E0CF
:1021A0008091E8008E778093E80066CF4491409359
:1021B000F1003196215031090196E8CF803809F0BD
:1021C00082CE8091E800877F8093E8008091B30100
:1021D0008093F1006ECE811176CE1091B70112304E
:1021E00008F071CE8091E800877F8093E80010931B
:1021F000B3010E9480081123D1F084E08093BA02D9
:1022000042E061EC81E00E94080942E261EC84E076
:102210000E94080942E261EC82E00E94080942E261
:1022200060EC83E00E9408098091BA024CCE809154
:10223000E30087FDE2CF81E0E1CFCF93DF93EC01B4
:102240004A855B856E857F850E94F9069B81909506
:1022500080919C03892380939C038C810E94790444
:102260000E94180C86E0FE0111928A95E9F7DF9131
:10227000CF910895CF93DF93EC018D8181FD17C03D
:1022800082608D8380919C039B81892B80939C032A
:10229000809198039C81892B809398030E94180C4D
:1022A000488559856E857F85CE010E94F90610927A
:1022B0001203109211038D8180FD03C0CE010E9494
:1022C0001D11DF91CF9108951F93CF93DF93182FA6
:1022D000A0910703B0910803109709F44AC0109227
:1022E0000A03109209031092050310920403169634
:1022F000CD91DC911797CE019A9581159F4108F4F5
:10230000D07ED1E0C11101C0D0E01996ED91FC91D1
:102310001A97309731F01B966D917C9180E009956A
:10232000D823DD2339F08CEF8C0F813A30F58C2FD8
:102330000E9430041123A9F0E0910703F0910803F3
:10234000808584FD0EC080910603882351F0808132
:1023500091819C01215031092F333E4710F40E9496
:10236000CF070E94180C10920803109207031092D6
:102370000603DF91CF911F9108950E94180C8C2FB6
:102380000E941B0DD7CFA0E1B0E0E9ECF1E10C9485
:10239000642A1A821982FE01339686E0DF011D92BB
:1023A0008A95E9F78FE3A82E81E0B82E8E010F5FA2
:1023B0001F4F4801EE24E394F12C29E4C22E21E0C2
:1023C000D22EF50181915F018F3F09F441C0F8944D
:1023D000E82FE295EF70F0E021A18F70A70102C015
:1023E000440F551F8A95E2F7CA01922F982B91A3AB
:1023F00092A18095892382A3789400C0E3E4F1E060
:1024000031E0712C21912F3F09F465C0A22FA295D4
:10241000AF70A05EB0E08C9190E02F7002C09595F7
:1024200087952A95E2F78170811155C0832F782A0C
:10243000330FCE16DF0631F7F501319780818F3FDC
:1024400011F00E949A0650EA5A95F1F7D8017C9251
:102450000F5F1F4FB3E4AB16B1E0BB0609F0B1CF7D
:1024600048E050E0B40189E792E00E94AC2A009174
:102470008202892B91F188E0F401A9E7B2E0019092
:102480000D928A95E1F781E08093AD010E944A07A1
:102490009093AC018093AB018091AB019091AC0122
:1024A0000E94A0070597E8F010E005561D4F44E094
:1024B00050E069E772E0C8010E94AC2A892B41F024
:1024C00084E0E9E7F2E0D80101900D928A95E1F706
:1024D0001092AD0106C080E0AACF8091AD018111BC
:1024E000DBCF0E94B909E0918202882309F46DC014
:1024F0001A8619861C861B860E2F10E005561D4F66
:102500008091B0018A3058F57E01E9E0EE0EF11CB1
:1025100047E753E1B701C8010E948D0A670188238C
:1025200009F441C04BE253E1B701C8010E948D0A92
:102530008823C9F11092B0018091810290E044E0BB
:1025400050E0B60185569D4F0E94AC2A21E02093B1
:10255000AA01892BD1F46096EDE00C94802A809139
:10256000A8019091A9010E94A007843F914060F6C4
:102570008091AA01882379F3FE01399684E0DF0176
:102580001D928A95E9F71092AA01E0918102F0E08C
:10259000E556FD4F89859A85AB85BC8580839183FF
:1025A000A283B383D8CF8091B0018F3F39F40E94CA
:1025B0004A079093A9018093A801DACF8F5F809397
:1025C000B0018A3008F4B8CFF2CFF0E0E556FD4F05
:1025D00080819181A281B3818093AA029093AB0202
:1025E000A093AC02B093AD028AEA92E00E94EF0899
:1025F0008093A902C090AE02D090AF02E090B002EA
:10260000F090B1028091A4019091A501A091A60142
:10261000B091A701C816D906EA06FB0609F49BCFBC
:10262000C092A401D092A501E092A601F092A70168
:102630000E94B90981118FCF0E948307C61AD70A59
:10264000E80AF90AC092BC02D092BD02E092BE0232
:10265000F092BF0280CFA8E0B0E0E1E3F3E10C9498
:102660006E2A8091A5029091A602A091A702B09136
:10267000A802BC01CD010E94AF0711E064367105CC
:102680008105910578F10E94DC09DC01CB010296FD
:10269000A11DB11D89839A83AB83BC8380911A01EC
:1026A00090911B0187559D4F20911901422F50E0B9
:1026B000253010F044E050E0BE016F5F7F4F0E9474
:1026C000B92A82E090E00E94EA29182F882351F06D
:1026D0000E9483076093A5027093A6028093A702CD
:1026E0009093A802812F2896E3E00C948A2AEF9217
:1026F000FF921F93CF93DF93CDB7DEB729970FB625
:10270000F894DEBF0FBECDBF7B0180E090E00E9459
:10271000EA29182F81111BC010E08091B20290911C
:10272000B302A091B402B091B502F7018083918306
:10273000A283B383812F29960FB6F894DEBF0FBE14
:10274000CDBFDF91CF911F91FF90EF9008958091C1
:102750000C01482F50E0882311F041E050E06091D7
:102760000D0170910E0167557D4FCE0105960E94B7
:10277000B92A8091B6029091B702A091B802B091A7
:10278000B902BC01CD010E94AF076E837F838887A9
:102790009987643671058105910538F48AEA92E0DB
:1027A0000E94EF089D818917B9F181E090E00E94B5
:1027B000EA29882309F4B0CF80911401482F50E012
:1027C000853010F044E050E06091150170911601E1
:1027D00067557D4FCE0101960E94B92A8AEA92E0A0
:1027E0000E94EF089D81891397CF0E948307609311
:1027F000B6027093B7028093B8029093B9028981B0
:102800009A81AB81BC818093B2029093B302A09372
:10281000B402B093B50281CF8091AA029091AB022D
:10282000A091AC02B091AD0289839A83AB83BC8343
:10283000E6CFA4E1B0E0EFE1F4E10C94642AA090CB
:10284000A302B090A40281E090E09093A402809350
:10285000A302812C912CE12C6401F12C15C0F8010C
:1028600025913491472D6F2D8E2D0E94FC0A0E5F0D
:102870001F4F739486E07812F2CFA6E0CA0ED11CE7
:10288000F394B8E0FB1639F08601000F111F0252D5
:102890001D4F712CE4CFE39480E3880E911CA4E0DB
:1028A000EA12DACF1A8219821C821B821E821D82D2
:1028B00018861F8284EB90E09A87898709EA11E0E5
:1028C0004AE050E0B801CE0101960E941B2B065F42
:1028D0001F4F093FB1E01B0799F7FE013B9689E0C6
:1028E000DF011D928A95E9F78FEF9FEF988B8F8715
:1028F00087E08C8B7F014AE050E0B801C7010E945D
:102900001B2B065F1F4F0934B2E01B07A1F7B092E3
:10291000A402A092A3026496EDE00C94802A80E0C9
:102920000E94DE0A60E088E290E00E94F72A0E949E
:1029300019140E94230B81E00E94DE0A0895AAE088
:10294000B0E0E5EAF4E10C94652A09EF11E087EEC6
:10295000C82E81E0D82E99EFE92EFF24F39427E0CA
:10296000922E36EEA32E31E0B32E88248394D60126
:102970000D931D936D014AE050E0B701CE01019621
:102980000E94C92AF8013896DF01892D1D928A9587
:10299000E9F789819A81D80111969C938E938F8152
:1029A00012968C9312978D8113968C93139788852A
:1029B00014968C931497898515968C9315978B8113
:1029C0009C8117969C938E9316978A8587FD04C0E9
:1029D0001E96BC92AE921D9780FF02C0F8018086C1
:1029E00081FF07C0D80118969C911897926018969D
:1029F0009C9382FF04C0F80190859460908783FFC8
:102A000007C0D80118969C911897986018969C93C7
:102A100084FF04C0F80190859061908785FF07C00E
:102A2000D80118968C911897806218968C93015F44
:102A30001F4FBAE0EB0EF11CE9E4EE16E2E0FE06F1
:102A400009F095CF2A96ECE00C94812A282FCB012F
:102A5000283070F44AE0249F90011124B901675591
:102A60007E4F4AE050E00E94C92A80E090E008953D
:102A70008FEF9FEF0895AAE0B0E0E1E4F5E10C9458
:102A80006F2A9C0197558F3F910509F070F4BE01A4
:102A90006F5F7F4F822F0E942615892B31F4898525
:102AA0009A852A96E2E00C948B2A84EB90E0F9CF89
:102AB000A0E0B0E0EEE5F5E10C946A2AD62E172FDF
:102AC000C42FD22F8823A9F0409395030E944A0770
:102AD0009093AF018093AE01C77081E001C0880F71
:102AE000CA95EAF70E948B0CCDB7DEB7E7E00C94ED
:102AF000862A80919503481337C08091AE0190914A
:102B0000AF010E94A0077C018D2D912F0E943B15E3
:102B1000E816F90648F5CD130CC0802F0E94450D2C
:102B2000D77081E001C0880FDA95EAF70E94110E94
:102B3000DBCFC77011E0812F01C0880FCA95EAF77B
:102B40000E94110E80E28D0F883050F48D2F877017
:102B500001C0110F8A95EAF7812F0E948B0CDDCFFF
:102B6000802F0E94450DC0CFC77081E001C0880F43
:102B7000CA95EAF7DBCFA5E0B0E0E1ECF5E10C9413
:102B80005F2A7C01DC0114968C91882309F440C2F1
:102B900061E0C7010E94C30B8C01F7018581882386
:102BA00019F180911103909112030097E9F0081731
:102BB0001907D1F0992774E0880F991F7A95E1F7EA
:102BC000FC01E65EFC4F2081246020838B5E9C4FDD
:102BD000DC010D931C930E943A1110929C0361E05A
:102BE000C7010E94C30B8C01F7015580552009F4E1
:102BF000B9C0C80197578038910508F0DFC1D02EC1
:102C0000FFE0F01708F4F4C18FEF93E00E94D92A97
:102C10008111EEC109E412E0D1103BC08091230183
:102C200090912401A0912501B091260189839A8376
:102C3000AB83BC8368015FEFC51AD50AC8010E9447
:102C4000D92A89831A82882309F4D2C1813009F0F4
:102C500083C0580182E0A80EB11CC6010E94D92A87
:102C6000D82E8A83882309F4C3C1C5010E94D92ABA
:102C7000C82E8FEF8D0D8330D0F4CB82CC2021F085
:102C8000CE0101960E94650D580193E0A90EB11C7A
:102C900033C0011524E0120709F4AAC1C8010E943B
:102CA000D92A0F5F1F4F8111F4CFDA94B5CF8BEF84
:102CB0008D0D833048F55801A3E0AA0EB11CCB82DC
:102CC000CC20D1F0C5010E94D92A8C83882381F0C1
:102CD0008B819C818130BFEF9B0710F0982F882754
:102CE000E6E0DE1659F0F7E0DF1659F00E946320A7
:102CF000580144E0A40EB11C85019CCF0E940E2017
:102D0000F7CF0E943020F4CF24E0D212F5CF580143
:102D100044E0A40EB11CC80103960E94D92ACC201D
:102D200009F466C1882309F463C18150990B4FEF00
:102D3000489F9001499F300D1124AC2DA150BB0B31
:102D40002A0F3B1F21503109B8F2EFE9FFE031971C
:102D5000F1F700C00000F6CFCE0101960E94650D8C
:102D60005601CACF011527E5120708F455C1011510
:102D700048E5140708F062C1680157E5D51A6AEF03
:102D800072E08C2D0E942615892B21F5C60154E096
:102D9000880F991F5A95E1F7FC01EB5EFC4F2281E9
:102DA0002130D9F42091FA023091FB02232B91F0CB
:102DB0002091FC023091FD02232B61F02091FE0254
:102DC0003091FF024091000350910103242B352BD9
:102DD000232B59F0F701558015C02230D9F72091E7
:102DE000FE023091FF02232BA9F3FC01E65EFC4FAB
:102DF00020812E7F20838B5E9C4F0E943A11D70149
:102E000015965C9080912201882309F430C1480115
:102E100050EE851A91084090990380919803482AB2
:102E200080919703482A88E08816910408F066C1CB
:102E300098012770332781E090E001C0880F2A9520
:102E4000EAF7552009F457C1482AD7018D919C9182
:102E50000E949D0321E030E0190102C0220C331CC6
:102E60008A95E2F760900703709008031D82BD8188
:102E7000EB2FF0E0EE0FFF1FE951FE4FC080D18035
:102E8000C114D10409F4B7C1411004C0F601828114
:102E9000811181C1D60113968C91139790E0822104
:102EA0009321892B09F477C118968C91982F9770EC
:102EB000911163C1B8E08B16910408F070C15110F4
:102EC00064C1F601A080B1800A151B0509F463C135
:102ED000C614D70409F45FC1D6011D96ED91FC918B
:102EE000309721F08081882309F455C1642DC601F3
:102EF0000E94D806882309F44EC10A151B0511F457
:102F0000511005C0A114B10409F051C1512C80E049
:102F10000E946411D0920803C092070381E080935D
:102F20000603F60185818093050351100DC0AB287F
:102F300059F0808191819C0124503109213A310559
:102F400008F03DC10E943004F601A680B780C5019B
:102F50009A9581159F4110F420EEB2227724739444
:102F6000C50101978F339E4708F0712CD601199641
:102F7000ED91FC911A97309731F01B966D917C91F1
:102F800081E00995782281E05826772009F430C144
:102F9000F601868197810E94100380930403C50186
:102FA000F8E08F16910408F00DC10E94CF070E942F
:102FB000180C511035C00E94180C1AC00E35FCE7D1
:102FC0001F0799F00F352CE7120749F050902201A6
:102FD0000D354CE7140709F040C0552031F0109230
:102FE000220180E00E94641103C081E080932201ED
:102FF00080919D038770882359F0F701858188238C
:1030000039F08091E40382FF03C082E00E945D04F6
:103010002596E2E10C947B2A809122018111F7CE62
:10302000D70115968C9181110DC20631BCE71B07A3
:1030300009F458C10737ECE71E0757C080912201F9
:103040008111E5CEF801E851FC47E730F10508F0C1
:1030500080C1E15CF44D0C94962A5110D8CEF70152
:103060008581980137552F3F310509F058F7F80150
:10307000FF2734E0EE0FFF1F3A95E1F7AF014B5EFB
:103080005C4F6A01D70115968C91E65EFC4F9081EA
:1030900080FB90F990838111ECC0FA01448555853D
:1030A00066857785C6010E94F906D60115968C9132
:1030B00081FFB2C0C6010E941D1180911103909141
:1030C00012030817190709F0A7C0109212031092F3
:1030D0001103F70185818111A5C00631FCE71F07A7
:1030E00009F400C107372CE7120709F045C181E058
:1030F0000E945603A6C080954822A7CE51102AC030
:1031000080910F03909110030817190781F4109212
:10311000100310920F0310920B0310920C031092E5
:103120000D0310920E0310920A0310920903E0910E
:103130000703F0910803309709F491CF80819181C2
:103140000817190709F08BCF1092060380E00E9440
:10315000641185CF1093100300930F030E9483071F
:1031600060930B0370930C0380930D0390930E03F5
:1031700010920A031092090368CEE8E08E169104BB
:1031800088F4552031F081FF06C0D601AD90BC9087
:103190009FCE82FD96CE9D819F5F9D8368CE51100C
:1031A000F4CFF9CF5520B9F380FFF5CFEECF809162
:1031B0000F03909110038A159B0569F7A7CE0E9413
:1031C0001B0DC2CE0497813A910530F48A2D0E94DE
:1031D000FC03511044CFEFCE0E94180C8FE39CE902
:1031E0000197F1F700C000008A2D0E949F0CF1CFDB
:1031F0000E94180CEECF6114710409F430CFA8E0DE
:103200008A16910420F5642DC3010E94D80681110D
:1032100003C081E00E946411D70115968C91882328
:1032200009F4A0C010929503C8019057839708F441
:1032300025C107374CE7140709F0F3C181E00E946C
:103240004A0343E062E081E00E94D103D1CEF30162
:10325000808191810817190739F4552009F474CF3A
:10326000808585FDFCCE72CF552009F4F8CE80858F
:10327000F8CF0E944A079093140380931303D6015A
:1032800012968C9112978F5F12968C931297809161
:103290009C0390919803892B13968C93139780919C
:1032A000970314968C93149716964D915C911797EB
:1032B0001E966D917C91C6010E94F906F6018581EA
:1032C00081FD18C0902F812F9093110380931203DA
:1032D000D70115968C918111A5CF0631BCE71B074C
:1032E00009F045C080919603811199C189E20E943D
:1032F000300461CE90E080E0E7CF06E221EE41EEBF
:103300006AE17CE70E94581573CE07E225EE45EE90
:103310006BE17CE7F7CF06E221EE40EE68E17CE767
:10332000F1CF07E225EE44EE69E17CE7EBCF06E260
:1033300021EE42EE6CE17CE7E5CF07E225EE46EEBA
:103340006DE17CE7DFCF08E221E045EE6EE17CE74E
:10335000D9CFF701858181118BC00631FCE71F07AA
:1033600009F4C0CF07375CE7150709F4C0CE08376A
:103370008CE7180709F479C1D70115968C91159738
:10338000CD90DC90882309F490C1C6010E94980B6F
:10339000182F682FC6010E946603B601812F0E9474
:1033A0007B0B0E947F058C01F701B580A680A2945B
:1033B0002FE0A22280919D0387708823F1F0CB2C0F
:1033C000BB20E1F0812F807F803451F080E2800FBC
:1033D000883098F0A11004C0812F807E803269F07F
:1033E0008091E40382FF09C082E00E945D04809125
:1033F0009D038770CC24C3948111C12C812F8295A9
:103400008F70883009F45DC208F070C1843008F014
:1034100051C1F12FFF70DF2E823008F478C1107F88
:10342000103219F0D29480EFD822002309F4A6C1FB
:10343000013009F40BC2BB2009F417C2AA2009F419
:10344000BBC17BC11092950306312CE7120709F02E
:10345000F0CE809198038A7A91E0811101C090E0CA
:10346000909396038111D9C089E20E94FC03A3CDF9
:1034700010929503C8019057839730F784E090E04D
:103480000E94E12A9093E4038093E303F801E15062
:10349000F047E232F10520F4EA5BF44D0C94962AF1
:1034A0008091E30381608093E3036091E303709173
:1034B000E40384E090E00E94152B0E94230E98CD37
:1034C0008091E40388608093E403EFCF8091E3036D
:1034D0008260E9CF8091E3038460E5CF8091E303CC
:1034E0008860E1CF8091E4038160EDCF8091E403B7
:1034F0008260E9CF8091E3038061D5CF8091E303BF
:103500008062D1CF8091E3038064CDCF0E94230EEF
:103510008091E3038068C7CF8091E3038C60C3CFC1
:103520008091E4038360CFCF8091E3038E7FBBCF94
:103530008091E403877FC7CF8091E3038D7FB3CF72
:103540008091E3038B7FAFCF8091E303877FABCF85
:103550008091E4038E7FB7CF8091E4038D7FB3CF5A
:103560008091E3038F7E9FCF8091E3038F7D9BCF7C
:103570008091E3038F7B97CF0E94230E8091E3031A
:103580008F7791CF8091E303837F8DCF8091E40388
:103590008C7F99CF8091E30382FB992790F921E0FA
:1035A000922790FB82F990FB83F97DCF8091E40311
:1035B000982F909591708E7F892B90FB81F983CF06
:1035C0009091E303892F8F7B96FF80646CCF0E94DC
:1035D000230E9091E303892F97FB87F9805863CFDF
:1035E00061E08EE090E00E94F72A5FCF60E0F9CFC3
:1035F0009091E303892F8F7E94FF806154CF909147
:10360000E303892F8E7F90FF81604DCF9091E4037B
:10361000892F877F93FF886056CF85E326CF85E388
:1036200066CE82E008379CE7190709F408CE0A3510
:10363000ACE71A07B1F1D8F40130ECE71E0779F1D5
:103640000330FCE71F0729F101151C4709F094CE50
:103650000E94230E8FEF94E3ACE081509040A04095
:10366000E1F700C000000E94120882E041CD0B3556
:103670004CE71407C1F00C351C4709F07DCE809152
:10368000E40382FB882780F991E089270E94C70A1A
:1036900073CE6FEF7FEF80E090E00E94152B0E94C9
:1036A000430E81E0F3CF80E0F1CFC6010E949D037D
:1036B000182F73CE843009F4E9C0CC2009F4D7C1A7
:1036C00080919D0380FDD3C1F70115828695869573
:1036D00086950E944A03C7010E94BB1580919D03F5
:1036E0008695869586950E945603C1C1893009F456
:1036F00057C18A5F8F70823000F7023F09F061C1C5
:10370000812F8F71B1105AC10E944A0307C1103135
:1037100018F0D29490EFD922BB20B9F0DD2069F0E7
:1037200080E2800F883010F0011109C08091980369
:103730008D29809398030E94180C802F2FC08091B0
:103740009C038D2980939C03F6CF802F0E941B0D34
:10375000DD2009F4B2CF80E2800F883010F0011133
:1037600004C08D2D0E94790406C0D09480919C03E2
:103770008D2180939C030E94180C9FCF8091E403BD
:1037800082FD16C0BB2069F0DD2039F080919803DE
:103790008D29809398030E94180C80E00E949F0C52
:1037A0008CCF80E00E941B0DDD2009F486CFD9CF9D
:1037B000BB2071F1A11004C08D2D0E948B0C7DCF18
:1037C00021E0A21211C0109197038D2D8123D816EC
:1037D00009F473CF0E944A079093A1038093A0033A
:1037E0001D291093970369CF45E0A41266CF8D2D54
:1037F0000E948B0C8D2D0E946D07809199039D2D49
:103800009823D91609F459CF8D298093990355CF60
:10381000A11012C08D2D0E94110E8D2D0E946D07DA
:10382000809199039D2D9823992309F446CFD09434
:10383000D822D092990341CF51E0A5123ECF80917A
:1038400098038D21882309F438CFE4CFBB2029F0D9
:1038500085E08A1508F431CFAFCF94E09A1508F4CB
:103860002CCF8D2D0E94110E28CFAA20D1F3093321
:1038700049F4AFEFB7EEE3E0A150B040E040E1F72C
:1038800000C00000802F0E941B0D17CF812F86954E
:1038900086958370882361F0813009F00ECFC801CE
:1038A0009370B11002C080E090E00E94240705CF21
:1038B000C8019370B11002C080E090E00E94FE0643
:1038C000FCCE812F8370811134C0B11027C0402FEE
:1038D000429546954770440F440F802F8F70042EF9
:1038E00001C0880F0A94EAF70071002341F02FE02D
:1038F00030E001C0220F4A95EAF7022F0095169595
:1039000016951370123081F0133061F020919A03F4
:10391000113039F0802B82230E9444030E940F0A49
:10392000CCCE822B802BF8CF802B90919A038927C5
:10393000F3CFBB2051F110FFF1CF402F42954695B8
:103940004770440F440F802F8F70042E01C0880FE2
:103950000A94EAF70071002341F02FE030E001C043
:10396000220F4A95EAF7022F0095169516951370C7
:10397000123089F0133069F020919B03113041F02F
:10398000802B82230E944703C9CF823038F2D5CFE3
:10399000822B802BF7CF802B90919B038927F2CF2E
:1039A0001F70BB2039F0812F0E944A03802F0E9494
:1039B0008B0CB4CF802F0E94110E812F0E945603D2
:1039C000ADCF033F70F4003FB9F0013FB9F1BB2028
:1039D00009F472C0AA2009F46CC0802F0E949F0CC9
:1039E0009DCF033FD9F0043F29F1B110F3CFA110CF
:1039F00071C0812F8F71E2CFBB2069F0F4E0FA151E
:103A000008F48CCF1F7181E090E0012E01C0880F77
:103A10000A94EAF7C1CF25E0A216F2CF80E0BB20DE
:103A200009F4B0CF1F7181E0012E01C0880F0A9404
:103A3000EAF7A8CF8091E40382FD06C0812F8F7141
:103A4000BB2009F4BBCF60CEBB2011F180919D0358
:103A50008770843089F410929D0310929F03109216
:103A60009E03812F8F710E9456030E940F0A60E00F
:103A7000C7010E94C30BCCCA44E04A15B0F31F71C2
:103A8000812F0E944A0363E0812F0E945607EDCFE9
:103A900054E05A1550F410929D0310929F03109217
:103AA0009E0364E0812F8F71F0CF81E00E945D045E
:103AB000DCCF812F8F7128CEAA2009F49ACF093349
:103AC00049F48FEF97EEA3E081509040A040E1F7DA
:103AD00000C00000802F0E941B0D20CFA0E0B0E0AE
:103AE000E4E7FDE10C946A2A8091E203803108F05A
:103AF00049C08091E103882309F444C0C091A30325
:103B000087E0D82E8091A2038C17E1F1EC2EF12CE6
:103B1000DC9EE0011124FE01EC55FC4F84818823DA
:103B2000B1F191818091DD03981331C09081809132
:103B3000DC0398132CC08581811129C00281138177
:103B40008091DE039091DF03081B190B60E08CED80
:103B500093E00E94C30B0E943B1508171907B8F4A5
:103B60008091E2038F7080618093E203C655DC4F41
:103B700088818F70806188838CED93E00E94BB15F3
:103B80000E94F203CDB7DEB7E7E00C94862AE70186
:103B90002196C770B7CFADE0B0E0E1EDFDE10C9448
:103BA000622A8C0186E0F801DE01189601900D92E0
:103BB0008A95E1F7F801C0805180F580A280B3803A
:103BC000E4808CED882E83E0982E8091E0038111B3
:103BD00018C0EE2099F0FF2009F44FC1C8010E94DF
:103BE000F20B882309F449C187E0F801ACEDB3E09A
:103BF00001900D928A95E1F70E946E1DFF24F394C7
:103C00005DC0D090E1038091DE039091DF03350128
:103C1000681A790A60E08CED93E0DD2009F4EBC0CE
:103C20000E94C30B0E943B156816790608F09EC0DF
:103C3000EE2021F3E090E2039091DD03F801818111
:103C4000FFE0FE1508F45BC0981317C09091DC03E9
:103C5000F8018081981311C0F1104BC08E2D8F7028
:103C600080618093E2038CED93E00E94BB1580910C
:103C7000E203F8018683F12C21C0F1103AC040E044
:103C8000652D8C2D0E949A0940E0652D8C2D0E9497
:103C90009A09F82E8111EFCF888599850E94E30B50
:103CA000292F22952F70903470F49F702230A0F04D
:103CB0009923B1F0F8019681903190F48F2D2D96D3
:103CC000EFE00C947E2A2A5F2F70223068F0C80142
:103CD0000E94BB15FD2CF2CF992311F0882371F3BC
:103CE000805E883058F3F3CF803F40F3815F8230AD
:103CF000F9CF8091E20381608093E203BCCF9813F7
:103D000015C09091DC03F801808198130FC0F11069
:103D10000DC0E682C8010E94BB1587E0F801ACED3A
:103D2000B3E001900D928A95E1F768CFC8010E9437
:103D3000F20B882309F4A1C0FF2009F49EC08091F2
:103D4000E203803208F450CF8091DC039091DD03D0
:103D50009A838983BC82AB828091E0038D831E822B
:103D6000EF82CE0101960E94BB153ECFD090E203B8
:103D7000FFE0FD1550F08CED93E00E94BB1587E04D
:103D8000F40111928A95E9F776CFEE2009F436CF47
:103D90009091DD03F8018181981311C09091DC03AB
:103DA000808198130CC0F1100AC0D682C8010E940D
:103DB000BB1587E0F40111928A95E9F71FCFC8017E
:103DC0000E94F20B882309F458C0FF2009F455C063
:103DD0008091E203803208F407CF8091DC03909158
:103DE000DD039A838983BC82AB828091E0038D835B
:103DF0001E82DF82B6CF0E94C30B0E943B1568165D
:103E0000790608F0BCCFEE2009F4F8CEFF20A9F126
:103E10009091DD03F8018181981325C09091DC0316
:103E20008081981320C08091DE039091DF03A81A4F
:103E3000B90AF4EBAF16B10408F06FCF8091E2033A
:103E400080FD6BCF803108F468CFF8018683982F0E
:103E5000907F903F09F45ECF982F907F905F8F7096
:103E6000892B868357CFC8010E94F20B8111BCCEEB
:103E70008091E20381608093E203C8010E94BB1538
:103E8000BDCEABE1B0E0E7E4FFE10C946E2A4E8BCF
:103E90005F8B688F798F8A8F9B8F911110929C0313
:103EA0001D8A86E0FE017696DE011F9601900D9236
:103EB0008A95E1F78091E40382FF1FC00E944A07C0
:103EC00020919E0330919F03821B930B883893416E
:103ED00038F080919D0382FD03C082E00E945D0462
:103EE0000E944A072091A0033091A103821B930BEB
:103EF0008838934110F00E9481048B89882329F02F
:103F000061E0CE010F960E94C30B87E0FE013F9651
:103F1000DE01189601900D928A95E1F7CE01089680
:103F20000E94CB1D811110C087E0FE013896DE0192
:103F3000119601900D928A95E1F72091A20340918C
:103F4000A3038C8581110BC017E08091A30390918E
:103F5000A20389132EC06B96E3E00C948A2A30E00A
:103F6000C90101968770992750E08417950771F46D
:103F70000E94230E1092A2031092A30387E0ECED9F
:103F8000F3E0DF011D928A95E9F7DECF97E0929F7B
:103F9000D001939FB00D1124AC55BC4FFE0131965A
:103FA00001900D929A95E1F78093A2030E94F2038B
:103FB000CBCF189FC00111248C559C4F0E94CB1D64
:103FC000882349F28091A30390E001968770992796
:103FD0008093A303BACFA6E0B0E0E1EFFFE10C9439
:103FE0006D2A0E944A078C018091C4029091C502FB
:103FF0008017910779F019821A820E944A07BC0142
:1040000049815A8180E090E00E94411F1093C502CF
:104010000093C4022696E4E00C94892AA6E0B0E05E
:10402000E4E1F0E20C946F2A9093C1028093C00205
:10403000811520E2920730F40E94050D2696E2E0F9
:104040000C948B2A80EF89838A830E944A078160BF
:10405000BC0149815A8181E091E00E94411FEECF6D
:10406000A6E0B0E0E6E3F0E20C946D2A8C019093B8
:10407000C1028093C002011580E21807B0F4802FBE
:104080000E941B0DC801805E9109089728F068E125
:104090007EE00115110511F461E17EE0C8010E9486
:1040A0003A032696E4E00C94892A80EF89838A8378
:1040B0000E944A078160BC0149815A8181E090E0F9
:1040C0000E94411FEECFCF93DF93D82FC92F0E94BC
:1040D0000E208D2F9C2F0E943020DF91CF910895CC
:1040E0000F931F93CF93DF938C01862F6AEF72E0BB
:1040F0000E942615892BB1F4C091FA02D091FB02DF
:10410000209781F0F8018281833051F4CE010E9422
:104110006320CE010E946320CE010E94632002C072
:104120008430D0F7DF91CF911F910F9108950F93B5
:104130001F93CF93DF938C01EB016AEF72E08C2F1A
:104140000E942615892B09F05AC0FE01FF27D801CD
:1041500012968C911297EF58FD4F8130A9F4159665
:104160008C9182FD51C080FF4FC082E0808380919E
:10417000FC029091FD020097B9F48091FA029091AF
:10418000FB020097E1F110C08230B9F515968C91D1
:1041900082FD28C080FD0BC083E080838091FE02F9
:1041A0009091FF02009701F10E940E2028C084E048
:1041B000808380910003909101030097A9F780917B
:1041C000FA029091FB02009711F10E946320809106
:1041D000FC029091FD02009739F78091FA029091CC
:1041E000FB02E2CF85E080838091FA029091FB028E
:1041F000009729F00E946320F0CF86E08083DF9152
:10420000CF911F910F91089581E08083B6CF809167
:10421000FC029091FD02B5CF0F931F93CF93DF93D4
:104220008C01EB016AEF72E08C2F0E942615892B1E
:1042300071F4DD27CF58DD4F8881F8011282188292
:104240008330F1F048F4813059F0823081F0DF9111
:10425000CF911F910F9108958430B9F08530B9F74F
:104260008091FA029091FB02009789F306C0809139
:10427000FC029091FD02009799F30E943020E7CF55
:104280008091FE029091FF02F6CF80910003909101
:104290000103009791F72091FA023091FB0280917F
:1042A000FC029091FD0221153105F1F2009729F7EA
:1042B000C901E3CFCDB7DEB7AE970FB6F894DEBF36
:1042C0000FBECDBF85B7806885BF85B7806885BFC5
:1042D00084B7877F84BF0FB6F894A895809160005B
:1042E000886180936000109260000FBE80E890E0CB
:1042F0000FB6F89480936100909361000FBE88E937
:1043000096E090938301809382010E94C0060E94F0
:104310009F140E94D0080E943F098091E2008460AF
:104320008093E20078948091BA02882399F080917A
:10433000E9001091EC001795112717958F70182B35
:104340001092E9008091E80083FD0E94590E1F70D1
:104350001093E90082E084BD93E095BD9AEF97BD8C
:1043600080936E001092BC021092BD021092BE02A9
:104370001092BF020E94330B811102C00E948F1461
:104380000E94B909809300010E94B90981110E941D
:10439000FC28809100018091000191E08927880F1D
:1043A000880F8093820294E0981B9093810284E9A5
:1043B0000E949A0686E60E949A0687E90E949A065B
:1043C00086EC0E949A0603E411E0F9E4EF2EF1E096
:1043D000FF2ED8018D918D018F3F11F00E949A061A
:1043E000E016F106B1F788E0EBE9F2E0DF01282FF3
:1043F0001D922A95E9F7E9E7F2E0DF011D928A951F
:10440000E9F780E090E00E94E12A863E9E4F21F489
:104410000E94330B811167C066EE7EEF80E090E072
:104420000E94152B60E082E090E00E94F72A60E095
:1044300083E090E00E94F72A10929A0360E074E112
:1044400084E090E00E94152B60E086E090E00E94FE
:10445000F72A6FEF87E090E00E94F72A40E050E0F3
:10446000BA0188E090E00E94092B60E084E290E0CD
:104470000E94F72A60E087E190E00E94F72A60E05E
:104480008CE090E00E94F72A60E08DE090E00E94CE
:10449000F72A19821A821B821C821D821E821F82A9
:1044A000188648E050E068E170E0CE0101960E9475
:1044B000E72A40E050E0BA0180E290E00E94092B38
:1044C00080E00E94DE0A0E948F1440E050E0BA01B2
:1044D0008FE090E00E94092B40E050E0BA0183E1B8
:1044E00090E00E94092B82E090E00E94D92A8093FC
:1044F000850284E090E00E94E12A9093E403809397
:10450000E3030E94C311EFEFF6E721E0E150F04032
:104510002040E1F700C000000E94C3110E94B909C9
:10452000E82F81E0E827EE0FEE0FF0E0E556FD4FB3
:10453000808181FF08C06FEF7FEF80E090E00E94F4
:10454000152B0E94120883E090E00E94D92A0E9455
:1045500044030E94B909811102C00E94FF2881E032
:1045600091E09093C7028093C60273EA272E72E00F
:10457000372EEEE84E2EE2E05E2E8091BA028530B4
:1045800049F48091BA02853009F451C00E94230E8B
:104590000E940F0A0E94C31106E812E06BE9E62EA2
:1045A00062E0F62ED701F80191918D914E165F06CB
:1045B00009F48DC09817C1F30E94B909882ED12C37
:1045C000D701CD907D01F80191908F019C1441F1AC
:1045D0009C24B12CAA24A394892D8A218823C1F07C
:1045E0008820B1F0B982DA820E944A079C838B83CB
:1045F000F1E0FD8391E08C2D8A21811101C090E0D2
:104600009E8349815A816B817C818D810E94411FEB
:10461000B394AA0C26E0B212DFCFF8013197C08222
:10462000D39438E0D312CCCF0E94DC0954C08091DF
:10463000BA02843021F11092830248E150E080E414
:104640000FB6F894A895409360000FBE8093600069
:1046500083B7817F846083BF83B7816083BF789491
:10466000889583B78E7F83BF0FB6F894A895809105
:104670006000886180936000109260000FBE80919E
:104680008402882309F47DCF0E94C311EBE9F2E094
:104690008191811104C02E163F06D1F772CF80E1BF
:1046A00089BD82E189BD09B400FEFDCF8091D800AB
:1046B0008F7D8093D8008091E00082608093E0003D
:1046C0008091E00081FDFCCF0E94230E5ACF981309
:1046D00073CF0E94EB1F0E94B909882309F467C0B9
:1046E0000091090310910A0301151105C1F1809190
:1046F000920290919302A0919402B0919502BC0114
:10470000CD010E94AF076BA77CA78DA79EA78091C4
:104710008E0290918F02A0919002B09191022BA5F0
:104720003CA54DA55EA5281739074A075B07B8F0D9
:10473000C8010E94050D10920A03109209031092FD
:10474000920210929302109294021092950210928B
:104750008E0210928F021092900210929102E090BD
:104760001103F0901203E114F10409F18091130395
:10477000909114030E94A0078C01C7010E943B1571
:1047800080179107A0F4809111039091120399274B
:1047900054E0880F991F5A95E1F7FC01E65EFC4F43
:1047A000208122FD04C08B5E9C4F0E943A110E9422
:1047B0000F0A90919602891721F0809396020E9429
:1047C00083078091BA02843009F0D7CE83E08093CA
:1047D000E9008091E80082FFD0CE8091E80085FD5D
:1047E00006C08091E8008B778093E800C6CE0E94D7
:1047F0009F0840E2E42EF12C8E010F5F1F4F8823AB
:1048000061F18091E8008B778093E8000091C2020B
:104810001091C302E9810115110569F1EE3F09F01C
:104820004EC08A81833020F08550833008F047C025
:10483000EA81EE3008F043C0F0E0E859F44D0C9402
:10484000962A8091F100D8018C93B1E0EB1AF1081F
:10485000E114F104B1F20F5F1F4F8091E80085FD74
:10486000F0CF8091E8008B778093E8000E949F084A
:10487000882399F3C6CFE43150F4EE2351F0E15090
:10488000E33138F4F0E0EA58F44D0C94962AEE3F08
:1048900079F28FEF898313C01A8289E08B830FC06E
:1048A0008A818230A9F08330E1F0813091F70E9453
:1048B00083070E949C2A6B837C838D839E8340E2C6
:1048C00050E0BE016F5F7F4F82E00E94200A55CE0C
:1048D00088E290E00E94D92A1B821C821D828E836E
:1048E000EECF8091A3029091A402892B41F388E03E
:1048F000EBE9F2E0DE01139601900D928A95E1F763
:10490000DECF8A81823029F62B813C814D815E8108
:104910002BA73CA74DA75EA7CA01B9010E949C2AFC
:1049200088E290E00E94F72ACACF4C816B818A818D
:104930000E944C0B9827892798279E838D83BFCF91
:104940002D813E813227232732274C816B818A813A
:104950000E94FC0AB4CF0E941914B1CF80E18A836F
:10496000AECF81E08A8387EB99CF8C81E82EF12C42
:104970008D3108F0A4CF0A811B8110270127102751
:10498000E00EF11E6E0135E0C30ED11C0E151F05A1
:1049900009F495CF80E0073B41E0140728F4C801F3
:1049A000875B9D4F0E94D92AD6018D936D010F5FC1
:1049B0001F4FECCF8091A3029091A402892B09F4A0
:1049C0007ECF8C81C82ED12C8D3108F078CF0A8112
:1049D0001B81102701271027FE0131967F01CE0E83
:1049E000DF1ECE14DF0409F46ACF073BF1E01F0796
:1049F00040F4D70114966C91C801875B9D4F0E94CB
:104A0000F72A0F5F1F4FBFEFEB1AFB0AEACF0E9496
:104A1000230B55CF84E0A3CF8C81E82EF12C8D3170
:104A200008F04DCF0A811B81102701271027E00EC7
:104A3000F11E6E01E5E0CE0ED11C0E151F0509F426
:104A40003ECF80E00038F1E01F0720F4C8018996CE
:104A50000E94D92AD6018D936D010F5F1F4FEDCFB4
:104A60008C81E82EF12C8D3108F029CF0A811B8131
:104A70001027012710270038B1E01B0708F01FCFCF
:104A800080E891E0801B910B8E159F0508F417CFED
:104A90008091A3029091A402892B09F03FC04801A4
:104AA000E9E28E0E911C6801F1E0CF22DD24C114F1
:104AB000D10469F0C80188960E94D92A9D8189276E
:104AC0009827892781159C4711F48FEF8D83C801A2
:104AD0008E0D9F1D570180FF17C031E0A31AB1084A
:104AE00035E0632E712C6C0E7D1E6A0C7B1CC4019C
:104AF0008E0D9F1D0E94D92AD3019C9181159C4740
:104B000019F48FEFF3018083E1E0F0E0EC0FFD1F7B
:104B1000EC0DFD1D2FEFCA14DB0430F0FE013196C1
:104B20006F01EE0EFF1E1CC09481858181159C478C
:104B300011F42483258342E0C40ED11C3296EBCFBE
:104B4000003851E0150738F4D60114966C91C8016D
:104B500089960E94F72A0F5F1F4FBFEFCB1ADB0A1F
:104B6000EC14FD0469F7ABCE8091A3029091A402EE
:104B7000892B09F4A4CE40E250E0BE016F5F7F4F65
:104B800082E00E94200AFFEF21EE34E0F150204045
:104B90003040E1F700C00000D4CC88E0E7E2F1E06B
:104BA000DE01919601900D928A95E1F7FE01329611
:104BB0008FE1DF011D928A95E9F786E0898388E01D
:104BC0007F96DE01159698CE84E8898381E08A83FA
:104BD0001B821C8274CE8B819C81092E000CAA0B37
:104BE000BB0B25E0880F991FAA1FBB1F2A95D1F781
:104BF000AC01BD01405E5F4F6F4F7F4F803EEFEFD6
:104C00009E07AE07BE0708F05ACE8438F1E09F0732
:104C1000A105B10508F053CE453821E052076105E2
:104C2000710520F044E851E060E070E0481B590B4A
:104C3000BC01625A7B4FCE0101960E94A32A3FCE4F
:104C40004AE150E06FEF70E0CE0107960E94C22A61
:104C50008091A30289830A831B821C821D8281E0CA
:104C60003ECE81E090E09093C3028093C20282E343
:104C700090E090939A02809399020E944A07909341
:104C80009802809397021BCE012B51F110919B0249
:104C900080919702909198020E94A0078536910515
:104CA00040F111FF26C010FF24C00E944A079093D4
:104CB0009802809397028091990290919A020197AD
:104CC00090939A0280939902892B51F41092C30217
:104CD0001092C20281E090E09093A4028093A3021C
:104CE0008091A30289838091C2028A838091990274
:104CF000D5CD82E390E090939A0280939902F0CF11
:104D00001092A4021092A302DACD40E250E06FEFBD
:104D100070E0CE0101960E94C22AD1CD8B818230F3
:104D200009F44EC060F4811134C0FE0132968FE167
:104D3000DF011D928A95E9F788E08983AFCD853040
:104D400009F474C0863009F0BACD1C818AE0FE01F6
:104D50003596DE01919601900D928A95E1F78BA12F
:104D60009CA10E94B3069CA38BA38FEF183068F41C
:104D7000FAE01F9FB001112467507E4F4AE050E0D7
:104D8000CE0181960E941B2B80E089830E949F1494
:104D900096CD8C819AE0F92E8E010F5D1F4FF801A0
:104DA0002F2D11922A95E9F7B8010E9426158983C3
:104DB000F801DE01129601900D92FA94E1F77FCD91
:104DC0001C818AE0FE013596DE01919601900D92DC
:104DD0008A95E1F789A19AA10E94B3069AA389A3B3
:104DE0008BA19CA10E94B3069CA38BA38DA19EA125
:104DF0000E94B3069EA38DA38FA198A50E94B3061F
:104E000098A78FA38FEF183068F43AE0139FB00192
:104E1000112467557E4F4AE050E0CE0181960E94F2
:104E20001B2B80E089830E94C00649CD2C816AE05B
:104E3000CE018196DC01E62F1D92EA95E9F7283034
:104E400088F4629FB001112467507E4F4AE050E021
:104E50000E94C92A80E089838AE0FE01B196DE01C2
:104E600012964ACD8FEFF7CF1F921FB61F921124D3
:104E70008F939F93AF93BF9380918302811113C04F
:104E80008091DE019091DF01A091E001B091E101FC
:104E90004196A11DB11D8093DE019093DF01A09387
:104EA000E001B093E101BF91AF919F918F911F906D
:104EB0001FBE1F90189578941F921FB61F92112441
:104EC0008F939F93AF93BF938091DE019091DF0109
:104ED000A091E001B091E1010196A11DB11D809367
:104EE000DE019093DF01A093E001B093E101BF9157
:104EF000AF919F918F911F901FBE1F9018951F9289
:104F00000F920FB60F9211242F933F934F935F93FD
:104F10006F937F938F939F93AF93BF93EF93FF9381
:104F20008091E10082FF09C08091E20082FF05C00C
:104F30008091E1008B7F8093E1008091DA0080FF17
:104F400024C08091D80080FF20C08091DA008E7F3D
:104F50008093DA008091D90080FF9BC080E189BDF9
:104F600082E189BD09B400FEFDCF81E08093BA02E1
:104F70008091B401811109C00E94D0080E943F09AC
:104F80008091E20084608093E2008091E10080FFE4
:104F900017C08091E20080FF13C08091E2008E7FF5
:104FA0008093E2008091E20080618093E200809132
:104FB000D80080628093D80019BC85E08093BA0243
:104FC0008091E10084FF29C08091E20084FF25C028
:104FD00080E189BD82E189BD09B400FEFDCF8091E9
:104FE000D8008F7D8093D8008091E1008F7E8093E0
:104FF000E1008091E2008F7E8093E2008091E200E8
:1050000081608093E2008091B301882309F447C056
:1050100084E08093BA028091BA028091E10083FF1C
:1050200027C08091E20083FF23C08091E100877F49
:105030008093E10082E08093BA021092B3018091E4
:10504000E1008E7F8093E1008091E2008E7F80936B
:10505000E2008091E20080618093E20042E060E043
:1050600080E00E9408098091F00088608093F00041
:10507000FF91EF91BF91AF919F918F917F916F9130
:105080005F914F913F912F910F900FBE0F901F9006
:10509000189519BC1092BA021092B40176CF809183
:1050A000E30087FF02C083E0B4CF81E0B2CF1F925C
:1050B0000F920FB60F921124FF920F931F932F930D
:1050C0003F934F935F936F937F938F939F93AF9390
:1050D000BF93CF93DF93EF93FF9309EE10E0F801B6
:1050E0008081C091EC00C795CC27C7958F70FC2EAE
:1050F000F82A1082C0EFD0E08881877F8883789477
:105100000E94590EF8011082888188608883CF2D13
:10511000CF70C083FF91EF91DF91CF91BF91AF919D
:105120009F918F917F916F915F914F913F912F91BF
:105130001F910F91FF900F900FBE0F901F90189529
:105140008EE14A9B03C081508111FBCF4A9BFECF69
:1051500008955A9880E28A95F1F75A9A0895FC01C9
:105160003BE03A95F1F798E020E080E031E040E163
:105170004A95F1F7880F4A9B02C08160232742E0DD
:105180004A95F1F7000040E14A95F1F791509111ED
:10519000EECF90E19A95F1F799B132E03A95F1F7B7
:1051A000000040E14A95F1F792FB992790F9922788
:1051B0002081920F90830895A1E0B0E0E2EEF8E242
:1051C0000C946B2A19828C017C01E60EF11C0E15E1
:1051D0001F0541F481E09981911180E02196E6E07C
:1051E0000C94872A0E94A028CE0101960E94AF2825
:1051F000F80181938F01EBCF529A5A9A08955298F1
:105200005A9AEA9AE9E6F0E080818F7C80830895DB
:105210006150770B91E001C0990F6A95EAF7692F09
:1052200090E021E0611108C0992399F05A9A80E238
:105230008A95F1F75A980895362F3823332339F099
:105240005A9A922730E23A95F1F76695EBCF5A9841
:10525000F9CF5A98ECCFFF920F931F93CF93DF9320
:10526000EC018C01060F111DC017D10729F4CDB731
:10527000DEB7E5E00C94882AF9900E94A92868E03E
:105280008F2D0E940829F0CF1F920F920FB60F9218
:1052900011240F931F932F933F934F935F936F931B
:1052A0007F938F939F93AF93BF93EF93FF93CF938E
:1052B000DF930F92CDB7DEB719820E94A028CE01EE
:1052C00001960E94AF28082F069506950695982FFF
:1052D00092959570202F2570920F292F2370969507
:1052E0009695920F982797708981892B81115CC0C0
:1052F000043008F059C080E18A95F1F75A9A529A21
:1053000082E08A95F1F700C05A9888E0089F8001F2
:105310001124D801A75FBE4F1696ED91FC91179707
:105320003097A9F06091490170914A0114962D912E
:105330003C911597260F371F11968D919C911297CE
:10534000680F791F13964C9113978C910995F8016A
:10535000E75FFE4F6381662351F020914901309150
:105360004A0184819581820F931F0E942B290E94FC
:10537000A92880E18A95F1F75A9852985A9A80E1C3
:105380008A95F1F7F801E75FFE4F6081662351F0DF
:105390002091490130914A0181819281820F931FAE
:1053A0000E94DC280E94A0280F90DF91CF91FF91EE
:1053B000EF91BF91AF919F918F917F916F915F918D
:1053C0004F913F912F911F910F910F900FBE0F9012
:1053D0001F9018950F931F93CF93DF938C01049721
:1053E0000CF065C0F894529A5A9885E08A95F1F7C6
:1053F0000000C02FC695C570802F8570C80F8C2FF8
:105400008370C695C69593E0000F111F9A95E1F73A
:10541000C80FC8018C2BEC010E94A92800C068E0CD
:105420008C2F0E94082990E19A95F1F752985A9A88
:105430004A9B35C087E090E04A9933C0F801E75FA6
:10544000FE4F6381662361F02091490130914A014A
:1054500084819581820F931F0E94DC28882321F18B
:105460000E94A02880E28A95F1F75A98529A90E11A
:105470009A95F1F7F801E75FFE4F6081662351F0DE
:105480002091490130914A0181819281820F931FBD
:105490000E942B290E94A928789481E009C000C0AD
:1054A000C7CF0197009749F4529A5A9A789480E0AE
:1054B000DF91CF911F910F91089500C0BDCF2F9222
:1054C0003F924F925F926F927F928F929F92AF9294
:1054D000BF92CF92DF92EF92FF920F931F93CF93E1
:1054E000DF93CDB7DEB7CA1BDB0B0FB6F894DEBF78
:1054F0000FBECDBF09942A88398848885F846E849E
:105500007D848C849B84AA84B984C884DF80EE80E7
:10551000FD800C811B81AA81B981CE0FD11D0FB6F0
:10552000F894DEBF0FBECDBFED010895EE0FFF1F53
:105530000590F491E02D099469279627692778272B
:10554000872778270895FB01DC0102C005900D92A2
:1055500041505040D8F70895FB01DC0104C08D9103
:105560000190801921F441505040C8F7881B990BD5
:105570000895FB01DC0102C001900D9241505040A2
:10558000D8F70895DC0101C06D9341505040E0F719
:105590000895DC01CB01FC01F999FECF06C0F2BDF4
:1055A000E1BDF89A319600B40D9241505040B8F7E1
:1055B0000895F999FECF92BD81BDF89A992780B5DB
:1055C0000895A8E1B0E042E050E00C94CB2ADC0161
:1055D000A40FB51F4150504048F0CB01840F951FD8
:1055E0002E910E94F82A41505040D0F70895262F5E
:1055F000F999FECF92BD81BDF89A019700B40216C9
:1056000039F01FBA20BD0FB6F894FA9AF99A0FBE76
:1056100008950396272F0E94F82A0E94F72A252F23
:105620000E94F82A242F0C94F82A0196272F0E9412
:10563000F82A0C94F72ADC01CB0103C02D910E94BB
:10564000262B41505040D0F70895262FF999FECFD0
:105650001FBA92BD81BD20BD0FB6F894FA9AF99A8F
:105660000FBE01960895F894FFCF370F5D0F630FBB
:105670005D0F630FB60FD80F630FDE10EB108B19A1
:1056800091197D19851997199D19A319941AFF1A53
:105690009C1A661A6A1AA01A6E1AA41AB01A7A1AF2
:1056A000F81A7E1AB41A821AB81AE01A861ABC1AA4
:1056B000E71A8C1AC21ACA1A721AA81A761AAC1ADF
:1056C000901AC61AD61AF01AF61A601A981A061BF9
:1056D000CD25E425EB255F245F24202631264426B2
:1056E000802685265F245F245F248E264C24502448
:1056F00081249524A024AB24492449244924492405
:10570000B425AE24B124B524DA2407250A250C25B6
:02571000302542
:105712000123085E0A2608860A0000000100000034
:105722000000000004010000000405000000000069
:10573200000101000000003B6BA0298056EDD10062
:1057420044226D3B011901AC0041025A027A0294D3
:105752006697C6F4F5F6F73133A902E200E900EAEA
:1057620000B500B600B700CD008301CC008A0192DB
:105772000194012102230224022502260227022A81
:1057820002B300B4006F0070009F01CB019F02A022
:02579200020013
:00000001FF
